{
	"ProposalContract.sol": {
		"ProposalContract": {
			"abi": [
				{
					"inputs": [],
					"stateMutability": "nonpayable",
					"type": "constructor"
				},
				{
					"inputs": [
						{
							"internalType": "string",
							"name": "_title",
							"type": "string"
						},
						{
							"internalType": "string",
							"name": "_description",
							"type": "string"
						},
						{
							"internalType": "uint256",
							"name": "_total_vote_to_end",
							"type": "uint256"
						}
					],
					"name": "create",
					"outputs": [],
					"stateMutability": "nonpayable",
					"type": "function"
				},
				{
					"inputs": [],
					"name": "getCurrentProposal",
					"outputs": [
						{
							"components": [
								{
									"internalType": "string",
									"name": "title",
									"type": "string"
								},
								{
									"internalType": "string",
									"name": "description",
									"type": "string"
								},
								{
									"internalType": "uint256",
									"name": "approve",
									"type": "uint256"
								},
								{
									"internalType": "uint256",
									"name": "reject",
									"type": "uint256"
								},
								{
									"internalType": "uint256",
									"name": "pass",
									"type": "uint256"
								},
								{
									"internalType": "uint256",
									"name": "total_vote_to_end",
									"type": "uint256"
								},
								{
									"internalType": "bool",
									"name": "current_state",
									"type": "bool"
								},
								{
									"internalType": "bool",
									"name": "is_active",
									"type": "bool"
								}
							],
							"internalType": "struct ProposalContract.Proposal",
							"name": "",
							"type": "tuple"
						}
					],
					"stateMutability": "view",
					"type": "function"
				},
				{
					"inputs": [
						{
							"internalType": "uint256",
							"name": "number",
							"type": "uint256"
						}
					],
					"name": "getProposal",
					"outputs": [
						{
							"components": [
								{
									"internalType": "string",
									"name": "title",
									"type": "string"
								},
								{
									"internalType": "string",
									"name": "description",
									"type": "string"
								},
								{
									"internalType": "uint256",
									"name": "approve",
									"type": "uint256"
								},
								{
									"internalType": "uint256",
									"name": "reject",
									"type": "uint256"
								},
								{
									"internalType": "uint256",
									"name": "pass",
									"type": "uint256"
								},
								{
									"internalType": "uint256",
									"name": "total_vote_to_end",
									"type": "uint256"
								},
								{
									"internalType": "bool",
									"name": "current_state",
									"type": "bool"
								},
								{
									"internalType": "bool",
									"name": "is_active",
									"type": "bool"
								}
							],
							"internalType": "struct ProposalContract.Proposal",
							"name": "",
							"type": "tuple"
						}
					],
					"stateMutability": "view",
					"type": "function"
				},
				{
					"inputs": [
						{
							"internalType": "address",
							"name": "_address",
							"type": "address"
						}
					],
					"name": "isVoted",
					"outputs": [
						{
							"internalType": "bool",
							"name": "",
							"type": "bool"
						}
					],
					"stateMutability": "view",
					"type": "function"
				},
				{
					"inputs": [],
					"name": "owner",
					"outputs": [
						{
							"internalType": "address",
							"name": "",
							"type": "address"
						}
					],
					"stateMutability": "view",
					"type": "function"
				},
				{
					"inputs": [
						{
							"internalType": "address",
							"name": "new_owner",
							"type": "address"
						}
					],
					"name": "setOwner",
					"outputs": [],
					"stateMutability": "nonpayable",
					"type": "function"
				},
				{
					"inputs": [],
					"name": "teminateProposal",
					"outputs": [],
					"stateMutability": "nonpayable",
					"type": "function"
				},
				{
					"inputs": [
						{
							"internalType": "uint8",
							"name": "choice",
							"type": "uint8"
						}
					],
					"name": "vote",
					"outputs": [],
					"stateMutability": "nonpayable",
					"type": "function"
				}
			],
			"devdoc": {
				"kind": "dev",
				"methods": {},
				"version": 1
			},
			"evm": {
				"assembly": "    /* \"ProposalContract.sol\":58:3526  contract ProposalContract {... */\n  mstore(0x40, 0x80)\n    /* \"ProposalContract.sol\":237:323  constructor() {... */\n  callvalue\n  dup1\n  iszero\n  tag_1\n  jumpi\n  0x00\n  dup1\n  revert\ntag_1:\n  pop\n    /* \"ProposalContract.sol\":269:279  msg.sender */\n  caller\n    /* \"ProposalContract.sol\":261:266  owner */\n  0x00\n  dup1\n    /* \"ProposalContract.sol\":261:279  owner = msg.sender */\n  0x0100\n  exp\n  dup2\n  sload\n  dup2\n  0xffffffffffffffffffffffffffffffffffffffff\n  mul\n  not\n  and\n  swap1\n  dup4\n  0xffffffffffffffffffffffffffffffffffffffff\n  and\n  mul\n  or\n  swap1\n  sstore\n  pop\n    /* \"ProposalContract.sol\":289:304  voted_addresses */\n  0x02\n    /* \"ProposalContract.sol\":310:315  owner */\n  0x00\n  dup1\n  sload\n  swap1\n  0x0100\n  exp\n  swap1\n  div\n  0xffffffffffffffffffffffffffffffffffffffff\n  and\n    /* \"ProposalContract.sol\":289:316  voted_addresses.push(owner) */\n  swap1\n  dup1\n  0x01\n  dup2\n  sload\n  add\n  dup1\n  dup3\n  sstore\n  dup1\n  swap2\n  pop\n  pop\n  0x01\n  swap1\n  sub\n  swap1\n  0x00\n  mstore\n  keccak256(0x00, 0x20)\n  add\n  0x00\n  swap1\n  swap2\n  swap1\n  swap2\n  swap1\n  swap2\n  0x0100\n  exp\n  dup2\n  sload\n  dup2\n  0xffffffffffffffffffffffffffffffffffffffff\n  mul\n  not\n  and\n  swap1\n  dup4\n  0xffffffffffffffffffffffffffffffffffffffff\n  and\n  mul\n  or\n  swap1\n  sstore\n  pop\n    /* \"ProposalContract.sol\":58:3526  contract ProposalContract {... */\n  dataSize(sub_0)\n  dup1\n  dataOffset(sub_0)\n  0x00\n  codecopy\n  0x00\n  return\nstop\n\nsub_0: assembly {\n        /* \"ProposalContract.sol\":58:3526  contract ProposalContract {... */\n      mstore(0x40, 0x80)\n      callvalue\n      dup1\n      iszero\n      tag_1\n      jumpi\n      0x00\n      dup1\n      revert\n    tag_1:\n      pop\n      jumpi(tag_2, lt(calldatasize, 0x04))\n      shr(0xe0, calldataload(0x00))\n      dup1\n      0x8da5cb5b\n      gt\n      tag_11\n      jumpi\n      dup1\n      0x8da5cb5b\n      eq\n      tag_7\n      jumpi\n      dup1\n      0xb3f98adc\n      eq\n      tag_8\n      jumpi\n      dup1\n      0xc7f758a8\n      eq\n      tag_9\n      jumpi\n      dup1\n      0xcbff75cb\n      eq\n      tag_10\n      jumpi\n      jump(tag_2)\n    tag_11:\n      dup1\n      0x13af4035\n      eq\n      tag_3\n      jumpi\n      dup1\n      0x3ca6d100\n      eq\n      tag_4\n      jumpi\n      dup1\n      0x41ec6870\n      eq\n      tag_5\n      jumpi\n      dup1\n      0x89190393\n      eq\n      tag_6\n      jumpi\n    tag_2:\n      0x00\n      dup1\n      revert\n        /* \"ProposalContract.sol\":1222:1312  function setOwner(address new_owner) external onlyOwner {... */\n    tag_3:\n      tag_12\n      0x04\n      dup1\n      calldatasize\n      sub\n      dup2\n      add\n      swap1\n      tag_13\n      swap2\n      swap1\n      tag_14\n      jump\t// in\n    tag_13:\n      tag_15\n      jump\t// in\n    tag_12:\n      stop\n        /* \"ProposalContract.sol\":963:1216  function create(string calldata _title, string calldata _description, uint256 _total_vote_to_end) external onlyOwner {... */\n    tag_4:\n      tag_16\n      0x04\n      dup1\n      calldatasize\n      sub\n      dup2\n      add\n      swap1\n      tag_17\n      swap2\n      swap1\n      tag_18\n      jump\t// in\n    tag_17:\n      tag_19\n      jump\t// in\n    tag_16:\n      stop\n        /* \"ProposalContract.sol\":3276:3394  function getCurrentProposal() external view returns(Proposal memory) {... */\n    tag_5:\n      tag_20\n      tag_21\n      jump\t// in\n    tag_20:\n      mload(0x40)\n      tag_22\n      swap2\n      swap1\n      tag_23\n      jump\t// in\n    tag_22:\n      mload(0x40)\n      dup1\n      swap2\n      sub\n      swap1\n      return\n        /* \"ProposalContract.sol\":2884:3007  function teminateProposal() external onlyOwner active(counter) {... */\n    tag_6:\n      tag_24\n      tag_25\n      jump\t// in\n    tag_24:\n      stop\n        /* \"ProposalContract.sol\":90:110  address public owner */\n    tag_7:\n      tag_26\n      tag_27\n      jump\t// in\n    tag_26:\n      mload(0x40)\n      tag_28\n      swap2\n      swap1\n      tag_29\n      jump\t// in\n    tag_28:\n      mload(0x40)\n      dup1\n      swap2\n      sub\n      swap1\n      return\n        /* \"ProposalContract.sol\":2043:2878  function vote(uint8 choice) external {... */\n    tag_8:\n      tag_30\n      0x04\n      dup1\n      calldatasize\n      sub\n      dup2\n      add\n      swap1\n      tag_31\n      swap2\n      swap1\n      tag_32\n      jump\t// in\n    tag_31:\n      tag_33\n      jump\t// in\n    tag_30:\n      stop\n        /* \"ProposalContract.sol\":3400:3524  function getProposal(uint256 number) external view returns(Proposal memory) {... */\n    tag_9:\n      tag_34\n      0x04\n      dup1\n      calldatasize\n      sub\n      dup2\n      add\n      swap1\n      tag_35\n      swap2\n      swap1\n      tag_36\n      jump\t// in\n    tag_35:\n      tag_37\n      jump\t// in\n    tag_34:\n      mload(0x40)\n      tag_38\n      swap2\n      swap1\n      tag_23\n      jump\t// in\n    tag_38:\n      mload(0x40)\n      dup1\n      swap2\n      sub\n      swap1\n      return\n        /* \"ProposalContract.sol\":3013:3270  function isVoted(address _address) public view returns (bool) {... */\n    tag_10:\n      tag_39\n      0x04\n      dup1\n      calldatasize\n      sub\n      dup2\n      add\n      swap1\n      tag_40\n      swap2\n      swap1\n      tag_14\n      jump\t// in\n    tag_40:\n      tag_41\n      jump\t// in\n    tag_39:\n      mload(0x40)\n      tag_42\n      swap2\n      swap1\n      tag_43\n      jump\t// in\n    tag_42:\n      mload(0x40)\n      dup1\n      swap2\n      sub\n      swap1\n      return\n        /* \"ProposalContract.sol\":1222:1312  function setOwner(address new_owner) external onlyOwner {... */\n    tag_15:\n        /* \"ProposalContract.sol\":619:624  owner */\n      0x00\n      dup1\n      sload\n      swap1\n      0x0100\n      exp\n      swap1\n      div\n      0xffffffffffffffffffffffffffffffffffffffff\n      and\n        /* \"ProposalContract.sol\":605:624  msg.sender == owner */\n      0xffffffffffffffffffffffffffffffffffffffff\n      and\n        /* \"ProposalContract.sol\":605:615  msg.sender */\n      caller\n        /* \"ProposalContract.sol\":605:624  msg.sender == owner */\n      0xffffffffffffffffffffffffffffffffffffffff\n      and\n      eq\n        /* \"ProposalContract.sol\":597:670  require(msg.sender == owner, \"Only the owner can perform this operation\") */\n      tag_45\n      jumpi\n      mload(0x40)\n      0x08c379a000000000000000000000000000000000000000000000000000000000\n      dup2\n      mstore\n      0x04\n      add\n      tag_46\n      swap1\n      tag_47\n      jump\t// in\n    tag_46:\n      mload(0x40)\n      dup1\n      swap2\n      sub\n      swap1\n      revert\n    tag_45:\n        /* \"ProposalContract.sol\":1296:1305  new_owner */\n      dup1\n        /* \"ProposalContract.sol\":1288:1293  owner */\n      0x00\n      dup1\n        /* \"ProposalContract.sol\":1288:1305  owner = new_owner */\n      0x0100\n      exp\n      dup2\n      sload\n      dup2\n      0xffffffffffffffffffffffffffffffffffffffff\n      mul\n      not\n      and\n      swap1\n      dup4\n      0xffffffffffffffffffffffffffffffffffffffff\n      and\n      mul\n      or\n      swap1\n      sstore\n      pop\n        /* \"ProposalContract.sol\":1222:1312  function setOwner(address new_owner) external onlyOwner {... */\n      pop\n      jump\t// out\n        /* \"ProposalContract.sol\":963:1216  function create(string calldata _title, string calldata _description, uint256 _total_vote_to_end) external onlyOwner {... */\n    tag_19:\n        /* \"ProposalContract.sol\":619:624  owner */\n      0x00\n      dup1\n      sload\n      swap1\n      0x0100\n      exp\n      swap1\n      div\n      0xffffffffffffffffffffffffffffffffffffffff\n      and\n        /* \"ProposalContract.sol\":605:624  msg.sender == owner */\n      0xffffffffffffffffffffffffffffffffffffffff\n      and\n        /* \"ProposalContract.sol\":605:615  msg.sender */\n      caller\n        /* \"ProposalContract.sol\":605:624  msg.sender == owner */\n      0xffffffffffffffffffffffffffffffffffffffff\n      and\n      eq\n        /* \"ProposalContract.sol\":597:670  require(msg.sender == owner, \"Only the owner can perform this operation\") */\n      tag_50\n      jumpi\n      mload(0x40)\n      0x08c379a000000000000000000000000000000000000000000000000000000000\n      dup2\n      mstore\n      0x04\n      add\n      tag_51\n      swap1\n      tag_47\n      jump\t// in\n    tag_51:\n      mload(0x40)\n      dup1\n      swap2\n      sub\n      swap1\n      revert\n    tag_50:\n        /* \"ProposalContract.sol\":1090:1097  counter */\n      0x01\n      0x00\n        /* \"ProposalContract.sol\":1090:1099  counter++ */\n      dup2\n      sload\n      dup1\n      swap3\n      swap2\n      swap1\n      tag_53\n      swap1\n      tag_54\n      jump\t// in\n    tag_53:\n      swap2\n      swap1\n      pop\n      sstore\n      pop\n        /* \"ProposalContract.sol\":1137:1209  Proposal(_title, _description, 0, 0, 0, _total_vote_to_end, false, true) */\n      mload(0x40)\n      dup1\n      0x0100\n      add\n      0x40\n      mstore\n      dup1\n        /* \"ProposalContract.sol\":1146:1152  _title */\n      dup7\n      dup7\n        /* \"ProposalContract.sol\":1137:1209  Proposal(_title, _description, 0, 0, 0, _total_vote_to_end, false, true) */\n      dup1\n      dup1\n      0x1f\n      add\n      0x20\n      dup1\n      swap2\n      div\n      mul\n      0x20\n      add\n      mload(0x40)\n      swap1\n      dup2\n      add\n      0x40\n      mstore\n      dup1\n      swap4\n      swap3\n      swap2\n      swap1\n      dup2\n      dup2\n      mstore\n      0x20\n      add\n      dup4\n      dup4\n      dup1\n      dup3\n      dup5\n      calldatacopy\n      0x00\n      dup2\n      dup5\n      add\n      mstore\n      not(0x1f)\n      0x1f\n      dup3\n      add\n      and\n      swap1\n      pop\n      dup1\n      dup4\n      add\n      swap3\n      pop\n      pop\n      pop\n      pop\n      pop\n      pop\n      pop\n      dup2\n      mstore\n      0x20\n      add\n        /* \"ProposalContract.sol\":1154:1166  _description */\n      dup5\n      dup5\n        /* \"ProposalContract.sol\":1137:1209  Proposal(_title, _description, 0, 0, 0, _total_vote_to_end, false, true) */\n      dup1\n      dup1\n      0x1f\n      add\n      0x20\n      dup1\n      swap2\n      div\n      mul\n      0x20\n      add\n      mload(0x40)\n      swap1\n      dup2\n      add\n      0x40\n      mstore\n      dup1\n      swap4\n      swap3\n      swap2\n      swap1\n      dup2\n      dup2\n      mstore\n      0x20\n      add\n      dup4\n      dup4\n      dup1\n      dup3\n      dup5\n      calldatacopy\n      0x00\n      dup2\n      dup5\n      add\n      mstore\n      not(0x1f)\n      0x1f\n      dup3\n      add\n      and\n      swap1\n      pop\n      dup1\n      dup4\n      add\n      swap3\n      pop\n      pop\n      pop\n      pop\n      pop\n      pop\n      pop\n      dup2\n      mstore\n      0x20\n      add\n        /* \"ProposalContract.sol\":1168:1169  0 */\n      0x00\n        /* \"ProposalContract.sol\":1137:1209  Proposal(_title, _description, 0, 0, 0, _total_vote_to_end, false, true) */\n      dup2\n      mstore\n      0x20\n      add\n        /* \"ProposalContract.sol\":1171:1172  0 */\n      0x00\n        /* \"ProposalContract.sol\":1137:1209  Proposal(_title, _description, 0, 0, 0, _total_vote_to_end, false, true) */\n      dup2\n      mstore\n      0x20\n      add\n        /* \"ProposalContract.sol\":1174:1175  0 */\n      0x00\n        /* \"ProposalContract.sol\":1137:1209  Proposal(_title, _description, 0, 0, 0, _total_vote_to_end, false, true) */\n      dup2\n      mstore\n      0x20\n      add\n        /* \"ProposalContract.sol\":1177:1195  _total_vote_to_end */\n      dup3\n        /* \"ProposalContract.sol\":1137:1209  Proposal(_title, _description, 0, 0, 0, _total_vote_to_end, false, true) */\n      dup2\n      mstore\n      0x20\n      add\n        /* \"ProposalContract.sol\":1197:1202  false */\n      0x00\n        /* \"ProposalContract.sol\":1137:1209  Proposal(_title, _description, 0, 0, 0, _total_vote_to_end, false, true) */\n      iszero\n      iszero\n      dup2\n      mstore\n      0x20\n      add\n        /* \"ProposalContract.sol\":1204:1208  true */\n      0x01\n        /* \"ProposalContract.sol\":1137:1209  Proposal(_title, _description, 0, 0, 0, _total_vote_to_end, false, true) */\n      iszero\n      iszero\n      dup2\n      mstore\n      pop\n        /* \"ProposalContract.sol\":1109:1125  proposal_history */\n      0x03\n        /* \"ProposalContract.sol\":1109:1134  proposal_history[counter] */\n      0x00\n        /* \"ProposalContract.sol\":1126:1133  counter */\n      sload(0x01)\n        /* \"ProposalContract.sol\":1109:1134  proposal_history[counter] */\n      dup2\n      mstore\n      0x20\n      add\n      swap1\n      dup2\n      mstore\n      0x20\n      add\n      0x00\n      keccak256\n        /* \"ProposalContract.sol\":1109:1209  proposal_history[counter] = Proposal(_title, _description, 0, 0, 0, _total_vote_to_end, false, true) */\n      0x00\n      dup3\n      add\n      mload\n      dup2\n      0x00\n      add\n      swap1\n      dup2\n      tag_55\n      swap2\n      swap1\n      tag_56\n      jump\t// in\n    tag_55:\n      pop\n      0x20\n      dup3\n      add\n      mload\n      dup2\n      0x01\n      add\n      swap1\n      dup2\n      tag_57\n      swap2\n      swap1\n      tag_56\n      jump\t// in\n    tag_57:\n      pop\n      0x40\n      dup3\n      add\n      mload\n      dup2\n      0x02\n      add\n      sstore\n      0x60\n      dup3\n      add\n      mload\n      dup2\n      0x03\n      add\n      sstore\n      0x80\n      dup3\n      add\n      mload\n      dup2\n      0x04\n      add\n      sstore\n      0xa0\n      dup3\n      add\n      mload\n      dup2\n      0x05\n      add\n      sstore\n      0xc0\n      dup3\n      add\n      mload\n      dup2\n      0x06\n      add\n      exp(0x0100, 0x00)\n      dup2\n      sload\n      dup2\n      0xff\n      mul\n      not\n      and\n      swap1\n      dup4\n      iszero\n      iszero\n      mul\n      or\n      swap1\n      sstore\n      pop\n      0xe0\n      dup3\n      add\n      mload\n      dup2\n      0x06\n      add\n      exp(0x0100, 0x01)\n      dup2\n      sload\n      dup2\n      0xff\n      mul\n      not\n      and\n      swap1\n      dup4\n      iszero\n      iszero\n      mul\n      or\n      swap1\n      sstore\n      pop\n      swap1\n      pop\n      pop\n        /* \"ProposalContract.sol\":963:1216  function create(string calldata _title, string calldata _description, uint256 _total_vote_to_end) external onlyOwner {... */\n      pop\n      pop\n      pop\n      pop\n      pop\n      jump\t// out\n        /* \"ProposalContract.sol\":3276:3394  function getCurrentProposal() external view returns(Proposal memory) {... */\n    tag_21:\n        /* \"ProposalContract.sol\":3328:3343  Proposal memory */\n      tag_58\n      tag_59\n      jump\t// in\n    tag_58:\n        /* \"ProposalContract.sol\":3362:3378  proposal_history */\n      0x03\n        /* \"ProposalContract.sol\":3362:3387  proposal_history[counter] */\n      0x00\n        /* \"ProposalContract.sol\":3379:3386  counter */\n      sload(0x01)\n        /* \"ProposalContract.sol\":3362:3387  proposal_history[counter] */\n      dup2\n      mstore\n      0x20\n      add\n      swap1\n      dup2\n      mstore\n      0x20\n      add\n      0x00\n      keccak256\n        /* \"ProposalContract.sol\":3355:3387  return proposal_history[counter] */\n      mload(0x40)\n      dup1\n      0x0100\n      add\n      0x40\n      mstore\n      swap1\n      dup2\n      0x00\n      dup3\n      add\n      dup1\n      sload\n      tag_61\n      swap1\n      tag_62\n      jump\t// in\n    tag_61:\n      dup1\n      0x1f\n      add\n      0x20\n      dup1\n      swap2\n      div\n      mul\n      0x20\n      add\n      mload(0x40)\n      swap1\n      dup2\n      add\n      0x40\n      mstore\n      dup1\n      swap3\n      swap2\n      swap1\n      dup2\n      dup2\n      mstore\n      0x20\n      add\n      dup3\n      dup1\n      sload\n      tag_63\n      swap1\n      tag_62\n      jump\t// in\n    tag_63:\n      dup1\n      iszero\n      tag_64\n      jumpi\n      dup1\n      0x1f\n      lt\n      tag_65\n      jumpi\n      0x0100\n      dup1\n      dup4\n      sload\n      div\n      mul\n      dup4\n      mstore\n      swap2\n      0x20\n      add\n      swap2\n      jump(tag_64)\n    tag_65:\n      dup3\n      add\n      swap2\n      swap1\n      0x00\n      mstore\n      keccak256(0x00, 0x20)\n      swap1\n    tag_66:\n      dup2\n      sload\n      dup2\n      mstore\n      swap1\n      0x01\n      add\n      swap1\n      0x20\n      add\n      dup1\n      dup4\n      gt\n      tag_66\n      jumpi\n      dup3\n      swap1\n      sub\n      0x1f\n      and\n      dup3\n      add\n      swap2\n    tag_64:\n      pop\n      pop\n      pop\n      pop\n      pop\n      dup2\n      mstore\n      0x20\n      add\n      0x01\n      dup3\n      add\n      dup1\n      sload\n      tag_67\n      swap1\n      tag_62\n      jump\t// in\n    tag_67:\n      dup1\n      0x1f\n      add\n      0x20\n      dup1\n      swap2\n      div\n      mul\n      0x20\n      add\n      mload(0x40)\n      swap1\n      dup2\n      add\n      0x40\n      mstore\n      dup1\n      swap3\n      swap2\n      swap1\n      dup2\n      dup2\n      mstore\n      0x20\n      add\n      dup3\n      dup1\n      sload\n      tag_68\n      swap1\n      tag_62\n      jump\t// in\n    tag_68:\n      dup1\n      iszero\n      tag_69\n      jumpi\n      dup1\n      0x1f\n      lt\n      tag_70\n      jumpi\n      0x0100\n      dup1\n      dup4\n      sload\n      div\n      mul\n      dup4\n      mstore\n      swap2\n      0x20\n      add\n      swap2\n      jump(tag_69)\n    tag_70:\n      dup3\n      add\n      swap2\n      swap1\n      0x00\n      mstore\n      keccak256(0x00, 0x20)\n      swap1\n    tag_71:\n      dup2\n      sload\n      dup2\n      mstore\n      swap1\n      0x01\n      add\n      swap1\n      0x20\n      add\n      dup1\n      dup4\n      gt\n      tag_71\n      jumpi\n      dup3\n      swap1\n      sub\n      0x1f\n      and\n      dup3\n      add\n      swap2\n    tag_69:\n      pop\n      pop\n      pop\n      pop\n      pop\n      dup2\n      mstore\n      0x20\n      add\n      0x02\n      dup3\n      add\n      sload\n      dup2\n      mstore\n      0x20\n      add\n      0x03\n      dup3\n      add\n      sload\n      dup2\n      mstore\n      0x20\n      add\n      0x04\n      dup3\n      add\n      sload\n      dup2\n      mstore\n      0x20\n      add\n      0x05\n      dup3\n      add\n      sload\n      dup2\n      mstore\n      0x20\n      add\n      0x06\n      dup3\n      add\n      0x00\n      swap1\n      sload\n      swap1\n      0x0100\n      exp\n      swap1\n      div\n      0xff\n      and\n      iszero\n      iszero\n      iszero\n      iszero\n      dup2\n      mstore\n      0x20\n      add\n      0x06\n      dup3\n      add\n      0x01\n      swap1\n      sload\n      swap1\n      0x0100\n      exp\n      swap1\n      div\n      0xff\n      and\n      iszero\n      iszero\n      iszero\n      iszero\n      dup2\n      mstore\n      pop\n      pop\n      swap1\n      pop\n        /* \"ProposalContract.sol\":3276:3394  function getCurrentProposal() external view returns(Proposal memory) {... */\n      swap1\n      jump\t// out\n        /* \"ProposalContract.sol\":2884:3007  function teminateProposal() external onlyOwner active(counter) {... */\n    tag_25:\n        /* \"ProposalContract.sol\":619:624  owner */\n      0x00\n      dup1\n      sload\n      swap1\n      0x0100\n      exp\n      swap1\n      div\n      0xffffffffffffffffffffffffffffffffffffffff\n      and\n        /* \"ProposalContract.sol\":605:624  msg.sender == owner */\n      0xffffffffffffffffffffffffffffffffffffffff\n      and\n        /* \"ProposalContract.sol\":605:615  msg.sender */\n      caller\n        /* \"ProposalContract.sol\":605:624  msg.sender == owner */\n      0xffffffffffffffffffffffffffffffffffffffff\n      and\n      eq\n        /* \"ProposalContract.sol\":597:670  require(msg.sender == owner, \"Only the owner can perform this operation\") */\n      tag_73\n      jumpi\n      mload(0x40)\n      0x08c379a000000000000000000000000000000000000000000000000000000000\n      dup2\n      mstore\n      0x04\n      add\n      tag_74\n      swap1\n      tag_47\n      jump\t// in\n    tag_74:\n      mload(0x40)\n      dup1\n      swap2\n      sub\n      swap1\n      revert\n    tag_73:\n        /* \"ProposalContract.sol\":2938:2945  counter */\n      sload(0x01)\n        /* \"ProposalContract.sol\":746:762  proposal_history */\n      0x03\n        /* \"ProposalContract.sol\":746:772  proposal_history[_counter] */\n      0x00\n        /* \"ProposalContract.sol\":763:771  _counter */\n      dup3\n        /* \"ProposalContract.sol\":746:772  proposal_history[_counter] */\n      dup2\n      mstore\n      0x20\n      add\n      swap1\n      dup2\n      mstore\n      0x20\n      add\n      0x00\n      keccak256\n        /* \"ProposalContract.sol\":746:782  proposal_history[_counter].is_active */\n      0x06\n      add\n      0x01\n      swap1\n      sload\n      swap1\n      0x0100\n      exp\n      swap1\n      div\n      0xff\n      and\n        /* \"ProposalContract.sol\":738:813  require(proposal_history[_counter].is_active, \"The proposal is not active\") */\n      tag_76\n      jumpi\n      mload(0x40)\n      0x08c379a000000000000000000000000000000000000000000000000000000000\n      dup2\n      mstore\n      0x04\n      add\n      tag_77\n      swap1\n      tag_78\n      jump\t// in\n    tag_77:\n      mload(0x40)\n      dup1\n      swap2\n      sub\n      swap1\n      revert\n    tag_76:\n        /* \"ProposalContract.sol\":2995:3000  false */\n      0x00\n        /* \"ProposalContract.sol\":2957:2973  proposal_history */\n      0x03\n        /* \"ProposalContract.sol\":2957:2982  proposal_history[counter] */\n      0x00\n        /* \"ProposalContract.sol\":2974:2981  counter */\n      sload(0x01)\n        /* \"ProposalContract.sol\":2957:2982  proposal_history[counter] */\n      dup2\n      mstore\n      0x20\n      add\n      swap1\n      dup2\n      mstore\n      0x20\n      add\n      0x00\n      keccak256\n        /* \"ProposalContract.sol\":2957:2992  proposal_history[counter].is_active */\n      0x06\n      add\n      0x01\n        /* \"ProposalContract.sol\":2957:3000  proposal_history[counter].is_active = false */\n      0x0100\n      exp\n      dup2\n      sload\n      dup2\n      0xff\n      mul\n      not\n      and\n      swap1\n      dup4\n      iszero\n      iszero\n      mul\n      or\n      swap1\n      sstore\n      pop\n        /* \"ProposalContract.sol\":680:681  _ */\n      pop\n        /* \"ProposalContract.sol\":2884:3007  function teminateProposal() external onlyOwner active(counter) {... */\n      jump\t// out\n        /* \"ProposalContract.sol\":90:110  address public owner */\n    tag_27:\n      0x00\n      dup1\n      sload\n      swap1\n      0x0100\n      exp\n      swap1\n      div\n      0xffffffffffffffffffffffffffffffffffffffff\n      and\n      dup2\n      jump\t// out\n        /* \"ProposalContract.sol\":2043:2878  function vote(uint8 choice) external {... */\n    tag_33:\n        /* \"ProposalContract.sol\":2090:2115  Proposal storage proposal */\n      0x00\n        /* \"ProposalContract.sol\":2118:2134  proposal_history */\n      0x03\n        /* \"ProposalContract.sol\":2118:2143  proposal_history[counter] */\n      0x00\n        /* \"ProposalContract.sol\":2135:2142  counter */\n      sload(0x01)\n        /* \"ProposalContract.sol\":2118:2143  proposal_history[counter] */\n      dup2\n      mstore\n      0x20\n      add\n      swap1\n      dup2\n      mstore\n      0x20\n      add\n      0x00\n      keccak256\n        /* \"ProposalContract.sol\":2090:2143  Proposal storage proposal = proposal_history[counter] */\n      swap1\n      pop\n        /* \"ProposalContract.sol\":2153:2171  uint256 total_vote */\n      0x00\n        /* \"ProposalContract.sol\":2211:2219  proposal */\n      dup2\n        /* \"ProposalContract.sol\":2211:2224  proposal.pass */\n      0x04\n      add\n      sload\n        /* \"ProposalContract.sol\":2193:2201  proposal */\n      dup3\n        /* \"ProposalContract.sol\":2193:2208  proposal.reject */\n      0x03\n      add\n      sload\n        /* \"ProposalContract.sol\":2174:2182  proposal */\n      dup4\n        /* \"ProposalContract.sol\":2174:2190  proposal.approve */\n      0x02\n      add\n      sload\n        /* \"ProposalContract.sol\":2174:2208  proposal.approve + proposal.reject */\n      tag_81\n      swap2\n      swap1\n      tag_82\n      jump\t// in\n    tag_81:\n        /* \"ProposalContract.sol\":2174:2224  proposal.approve + proposal.reject + proposal.pass */\n      tag_83\n      swap2\n      swap1\n      tag_82\n      jump\t// in\n    tag_83:\n        /* \"ProposalContract.sol\":2153:2224  uint256 total_vote = proposal.approve + proposal.reject + proposal.pass */\n      swap1\n      pop\n        /* \"ProposalContract.sol\":2235:2250  voted_addresses */\n      0x02\n        /* \"ProposalContract.sol\":2256:2266  msg.sender */\n      caller\n        /* \"ProposalContract.sol\":2235:2267  voted_addresses.push(msg.sender) */\n      swap1\n      dup1\n      0x01\n      dup2\n      sload\n      add\n      dup1\n      dup3\n      sstore\n      dup1\n      swap2\n      pop\n      pop\n      0x01\n      swap1\n      sub\n      swap1\n      0x00\n      mstore\n      keccak256(0x00, 0x20)\n      add\n      0x00\n      swap1\n      swap2\n      swap1\n      swap2\n      swap1\n      swap2\n      0x0100\n      exp\n      dup2\n      sload\n      dup2\n      0xffffffffffffffffffffffffffffffffffffffff\n      mul\n      not\n      and\n      swap1\n      dup4\n      0xffffffffffffffffffffffffffffffffffffffff\n      and\n      mul\n      or\n      swap1\n      sstore\n      pop\n        /* \"ProposalContract.sol\":2292:2293  1 */\n      0x01\n        /* \"ProposalContract.sol\":2282:2288  choice */\n      dup4\n        /* \"ProposalContract.sol\":2282:2293  choice == 1 */\n      0xff\n      and\n      sub\n        /* \"ProposalContract.sol\":2278:2673  if (choice == 1) {... */\n      tag_85\n      jumpi\n        /* \"ProposalContract.sol\":2309:2317  proposal */\n      dup2\n        /* \"ProposalContract.sol\":2309:2325  proposal.approve */\n      0x02\n      add\n      0x00\n        /* \"ProposalContract.sol\":2309:2327  proposal.approve++ */\n      dup2\n      sload\n      dup1\n      swap3\n      swap2\n      swap1\n      tag_86\n      swap1\n      tag_54\n      jump\t// in\n    tag_86:\n      swap2\n      swap1\n      pop\n      sstore\n      pop\n        /* \"ProposalContract.sol\":2366:2396  calculateCurrentState(counter) */\n      tag_87\n        /* \"ProposalContract.sol\":2388:2395  counter */\n      sload(0x01)\n        /* \"ProposalContract.sol\":2366:2387  calculateCurrentState */\n      tag_88\n        /* \"ProposalContract.sol\":2366:2396  calculateCurrentState(counter) */\n      jump\t// in\n    tag_87:\n        /* \"ProposalContract.sol\":2341:2349  proposal */\n      dup3\n        /* \"ProposalContract.sol\":2341:2363  proposal.current_state */\n      0x06\n      add\n      0x00\n        /* \"ProposalContract.sol\":2341:2396  proposal.current_state = calculateCurrentState(counter) */\n      0x0100\n      exp\n      dup2\n      sload\n      dup2\n      0xff\n      mul\n      not\n      and\n      swap1\n      dup4\n      iszero\n      iszero\n      mul\n      or\n      swap1\n      sstore\n      pop\n        /* \"ProposalContract.sol\":2278:2673  if (choice == 1) {... */\n      jump(tag_89)\n    tag_85:\n        /* \"ProposalContract.sol\":2427:2428  2 */\n      0x02\n        /* \"ProposalContract.sol\":2417:2423  choice */\n      dup4\n        /* \"ProposalContract.sol\":2417:2428  choice == 2 */\n      0xff\n      and\n      sub\n        /* \"ProposalContract.sol\":2413:2673  if (choice == 2) {... */\n      tag_90\n      jumpi\n        /* \"ProposalContract.sol\":2444:2452  proposal */\n      dup2\n        /* \"ProposalContract.sol\":2444:2459  proposal.reject */\n      0x03\n      add\n      0x00\n        /* \"ProposalContract.sol\":2444:2461  proposal.reject++ */\n      dup2\n      sload\n      dup1\n      swap3\n      swap2\n      swap1\n      tag_91\n      swap1\n      tag_54\n      jump\t// in\n    tag_91:\n      swap2\n      swap1\n      pop\n      sstore\n      pop\n        /* \"ProposalContract.sol\":2500:2530  calculateCurrentState(counter) */\n      tag_92\n        /* \"ProposalContract.sol\":2522:2529  counter */\n      sload(0x01)\n        /* \"ProposalContract.sol\":2500:2521  calculateCurrentState */\n      tag_88\n        /* \"ProposalContract.sol\":2500:2530  calculateCurrentState(counter) */\n      jump\t// in\n    tag_92:\n        /* \"ProposalContract.sol\":2475:2483  proposal */\n      dup3\n        /* \"ProposalContract.sol\":2475:2497  proposal.current_state */\n      0x06\n      add\n      0x00\n        /* \"ProposalContract.sol\":2475:2530  proposal.current_state = calculateCurrentState(counter) */\n      0x0100\n      exp\n      dup2\n      sload\n      dup2\n      0xff\n      mul\n      not\n      and\n      swap1\n      dup4\n      iszero\n      iszero\n      mul\n      or\n      swap1\n      sstore\n      pop\n        /* \"ProposalContract.sol\":2413:2673  if (choice == 2) {... */\n      jump(tag_93)\n    tag_90:\n        /* \"ProposalContract.sol\":2561:2562  0 */\n      0x00\n        /* \"ProposalContract.sol\":2551:2557  choice */\n      dup4\n        /* \"ProposalContract.sol\":2551:2562  choice == 0 */\n      0xff\n      and\n      sub\n        /* \"ProposalContract.sol\":2547:2673  if (choice == 0) {... */\n      tag_94\n      jumpi\n        /* \"ProposalContract.sol\":2578:2586  proposal */\n      dup2\n        /* \"ProposalContract.sol\":2578:2591  proposal.pass */\n      0x04\n      add\n      0x00\n        /* \"ProposalContract.sol\":2578:2593  proposal.pass++ */\n      dup2\n      sload\n      dup1\n      swap3\n      swap2\n      swap1\n      tag_95\n      swap1\n      tag_54\n      jump\t// in\n    tag_95:\n      swap2\n      swap1\n      pop\n      sstore\n      pop\n        /* \"ProposalContract.sol\":2632:2662  calculateCurrentState(counter) */\n      tag_96\n        /* \"ProposalContract.sol\":2654:2661  counter */\n      sload(0x01)\n        /* \"ProposalContract.sol\":2632:2653  calculateCurrentState */\n      tag_88\n        /* \"ProposalContract.sol\":2632:2662  calculateCurrentState(counter) */\n      jump\t// in\n    tag_96:\n        /* \"ProposalContract.sol\":2607:2615  proposal */\n      dup3\n        /* \"ProposalContract.sol\":2607:2629  proposal.current_state */\n      0x06\n      add\n      0x00\n        /* \"ProposalContract.sol\":2607:2662  proposal.current_state = calculateCurrentState(counter) */\n      0x0100\n      exp\n      dup2\n      sload\n      dup2\n      0xff\n      mul\n      not\n      and\n      swap1\n      dup4\n      iszero\n      iszero\n      mul\n      or\n      swap1\n      sstore\n      pop\n        /* \"ProposalContract.sol\":2547:2673  if (choice == 0) {... */\n    tag_94:\n        /* \"ProposalContract.sol\":2413:2673  if (choice == 2) {... */\n    tag_93:\n        /* \"ProposalContract.sol\":2278:2673  if (choice == 1) {... */\n    tag_89:\n        /* \"ProposalContract.sol\":2731:2732  1 */\n      0x01\n        /* \"ProposalContract.sol\":2717:2727  total_vote */\n      dup2\n        /* \"ProposalContract.sol\":2688:2696  proposal */\n      dup4\n        /* \"ProposalContract.sol\":2688:2714  proposal.total_vote_to_end */\n      0x05\n      add\n      sload\n        /* \"ProposalContract.sol\":2688:2727  proposal.total_vote_to_end - total_vote */\n      tag_97\n      swap2\n      swap1\n      tag_98\n      jump\t// in\n    tag_97:\n        /* \"ProposalContract.sol\":2688:2732  proposal.total_vote_to_end - total_vote == 1 */\n      eq\n        /* \"ProposalContract.sol\":2687:2780  (proposal.total_vote_to_end - total_vote == 1) && (choice == 1 || choice == 2 || choice == 0) */\n      dup1\n      iszero\n      tag_99\n      jumpi\n      pop\n        /* \"ProposalContract.sol\":2748:2749  1 */\n      0x01\n        /* \"ProposalContract.sol\":2738:2744  choice */\n      dup4\n        /* \"ProposalContract.sol\":2738:2749  choice == 1 */\n      0xff\n      and\n      eq\n        /* \"ProposalContract.sol\":2738:2764  choice == 1 || choice == 2 */\n      dup1\n      tag_100\n      jumpi\n      pop\n        /* \"ProposalContract.sol\":2763:2764  2 */\n      0x02\n        /* \"ProposalContract.sol\":2753:2759  choice */\n      dup4\n        /* \"ProposalContract.sol\":2753:2764  choice == 2 */\n      0xff\n      and\n      eq\n        /* \"ProposalContract.sol\":2738:2764  choice == 1 || choice == 2 */\n    tag_100:\n        /* \"ProposalContract.sol\":2738:2779  choice == 1 || choice == 2 || choice == 0 */\n      dup1\n      tag_101\n      jumpi\n      pop\n        /* \"ProposalContract.sol\":2778:2779  0 */\n      0x00\n        /* \"ProposalContract.sol\":2768:2774  choice */\n      dup4\n        /* \"ProposalContract.sol\":2768:2779  choice == 0 */\n      0xff\n      and\n      eq\n        /* \"ProposalContract.sol\":2738:2779  choice == 1 || choice == 2 || choice == 0 */\n    tag_101:\n        /* \"ProposalContract.sol\":2687:2780  (proposal.total_vote_to_end - total_vote == 1) && (choice == 1 || choice == 2 || choice == 0) */\n    tag_99:\n        /* \"ProposalContract.sol\":2683:2872  if ((proposal.total_vote_to_end - total_vote == 1) && (choice == 1 || choice == 2 || choice == 0)) {... */\n      iszero\n      tag_102\n      jumpi\n        /* \"ProposalContract.sol\":2817:2822  false */\n      0x00\n        /* \"ProposalContract.sol\":2796:2804  proposal */\n      dup3\n        /* \"ProposalContract.sol\":2796:2814  proposal.is_active */\n      0x06\n      add\n      0x01\n        /* \"ProposalContract.sol\":2796:2822  proposal.is_active = false */\n      0x0100\n      exp\n      dup2\n      sload\n      dup2\n      0xff\n      mul\n      not\n      and\n      swap1\n      dup4\n      iszero\n      iszero\n      mul\n      or\n      swap1\n      sstore\n      pop\n        /* \"ProposalContract.sol\":2836:2861  voted_addresses = [owner] */\n      mload(0x40)\n      dup1\n      0x20\n      add\n      0x40\n      mstore\n      dup1\n        /* \"ProposalContract.sol\":2855:2860  owner */\n      0x00\n      dup1\n      sload\n      swap1\n      0x0100\n      exp\n      swap1\n      div\n      0xffffffffffffffffffffffffffffffffffffffff\n      and\n        /* \"ProposalContract.sol\":2836:2861  voted_addresses = [owner] */\n      0xffffffffffffffffffffffffffffffffffffffff\n      and\n      0xffffffffffffffffffffffffffffffffffffffff\n      and\n      dup2\n      mstore\n      pop\n        /* \"ProposalContract.sol\":2836:2851  voted_addresses */\n      0x02\n        /* \"ProposalContract.sol\":2836:2861  voted_addresses = [owner] */\n      swap1\n      0x01\n      tag_103\n      swap3\n      swap2\n      swap1\n      tag_104\n      jump\t// in\n    tag_103:\n      pop\n        /* \"ProposalContract.sol\":2683:2872  if ((proposal.total_vote_to_end - total_vote == 1) && (choice == 1 || choice == 2 || choice == 0)) {... */\n    tag_102:\n        /* \"ProposalContract.sol\":2080:2878  {... */\n      pop\n      pop\n        /* \"ProposalContract.sol\":2043:2878  function vote(uint8 choice) external {... */\n      pop\n      jump\t// out\n        /* \"ProposalContract.sol\":3400:3524  function getProposal(uint256 number) external view returns(Proposal memory) {... */\n    tag_37:\n        /* \"ProposalContract.sol\":3459:3474  Proposal memory */\n      tag_105\n      tag_59\n      jump\t// in\n    tag_105:\n        /* \"ProposalContract.sol\":3493:3509  proposal_history */\n      0x03\n        /* \"ProposalContract.sol\":3493:3517  proposal_history[number] */\n      0x00\n        /* \"ProposalContract.sol\":3510:3516  number */\n      dup4\n        /* \"ProposalContract.sol\":3493:3517  proposal_history[number] */\n      dup2\n      mstore\n      0x20\n      add\n      swap1\n      dup2\n      mstore\n      0x20\n      add\n      0x00\n      keccak256\n        /* \"ProposalContract.sol\":3486:3517  return proposal_history[number] */\n      mload(0x40)\n      dup1\n      0x0100\n      add\n      0x40\n      mstore\n      swap1\n      dup2\n      0x00\n      dup3\n      add\n      dup1\n      sload\n      tag_107\n      swap1\n      tag_62\n      jump\t// in\n    tag_107:\n      dup1\n      0x1f\n      add\n      0x20\n      dup1\n      swap2\n      div\n      mul\n      0x20\n      add\n      mload(0x40)\n      swap1\n      dup2\n      add\n      0x40\n      mstore\n      dup1\n      swap3\n      swap2\n      swap1\n      dup2\n      dup2\n      mstore\n      0x20\n      add\n      dup3\n      dup1\n      sload\n      tag_108\n      swap1\n      tag_62\n      jump\t// in\n    tag_108:\n      dup1\n      iszero\n      tag_109\n      jumpi\n      dup1\n      0x1f\n      lt\n      tag_110\n      jumpi\n      0x0100\n      dup1\n      dup4\n      sload\n      div\n      mul\n      dup4\n      mstore\n      swap2\n      0x20\n      add\n      swap2\n      jump(tag_109)\n    tag_110:\n      dup3\n      add\n      swap2\n      swap1\n      0x00\n      mstore\n      keccak256(0x00, 0x20)\n      swap1\n    tag_111:\n      dup2\n      sload\n      dup2\n      mstore\n      swap1\n      0x01\n      add\n      swap1\n      0x20\n      add\n      dup1\n      dup4\n      gt\n      tag_111\n      jumpi\n      dup3\n      swap1\n      sub\n      0x1f\n      and\n      dup3\n      add\n      swap2\n    tag_109:\n      pop\n      pop\n      pop\n      pop\n      pop\n      dup2\n      mstore\n      0x20\n      add\n      0x01\n      dup3\n      add\n      dup1\n      sload\n      tag_112\n      swap1\n      tag_62\n      jump\t// in\n    tag_112:\n      dup1\n      0x1f\n      add\n      0x20\n      dup1\n      swap2\n      div\n      mul\n      0x20\n      add\n      mload(0x40)\n      swap1\n      dup2\n      add\n      0x40\n      mstore\n      dup1\n      swap3\n      swap2\n      swap1\n      dup2\n      dup2\n      mstore\n      0x20\n      add\n      dup3\n      dup1\n      sload\n      tag_113\n      swap1\n      tag_62\n      jump\t// in\n    tag_113:\n      dup1\n      iszero\n      tag_114\n      jumpi\n      dup1\n      0x1f\n      lt\n      tag_115\n      jumpi\n      0x0100\n      dup1\n      dup4\n      sload\n      div\n      mul\n      dup4\n      mstore\n      swap2\n      0x20\n      add\n      swap2\n      jump(tag_114)\n    tag_115:\n      dup3\n      add\n      swap2\n      swap1\n      0x00\n      mstore\n      keccak256(0x00, 0x20)\n      swap1\n    tag_116:\n      dup2\n      sload\n      dup2\n      mstore\n      swap1\n      0x01\n      add\n      swap1\n      0x20\n      add\n      dup1\n      dup4\n      gt\n      tag_116\n      jumpi\n      dup3\n      swap1\n      sub\n      0x1f\n      and\n      dup3\n      add\n      swap2\n    tag_114:\n      pop\n      pop\n      pop\n      pop\n      pop\n      dup2\n      mstore\n      0x20\n      add\n      0x02\n      dup3\n      add\n      sload\n      dup2\n      mstore\n      0x20\n      add\n      0x03\n      dup3\n      add\n      sload\n      dup2\n      mstore\n      0x20\n      add\n      0x04\n      dup3\n      add\n      sload\n      dup2\n      mstore\n      0x20\n      add\n      0x05\n      dup3\n      add\n      sload\n      dup2\n      mstore\n      0x20\n      add\n      0x06\n      dup3\n      add\n      0x00\n      swap1\n      sload\n      swap1\n      0x0100\n      exp\n      swap1\n      div\n      0xff\n      and\n      iszero\n      iszero\n      iszero\n      iszero\n      dup2\n      mstore\n      0x20\n      add\n      0x06\n      dup3\n      add\n      0x01\n      swap1\n      sload\n      swap1\n      0x0100\n      exp\n      swap1\n      div\n      0xff\n      and\n      iszero\n      iszero\n      iszero\n      iszero\n      dup2\n      mstore\n      pop\n      pop\n      swap1\n      pop\n        /* \"ProposalContract.sol\":3400:3524  function getProposal(uint256 number) external view returns(Proposal memory) {... */\n      swap2\n      swap1\n      pop\n      jump\t// out\n        /* \"ProposalContract.sol\":3013:3270  function isVoted(address _address) public view returns (bool) {... */\n    tag_41:\n        /* \"ProposalContract.sol\":3069:3073  bool */\n      0x00\n        /* \"ProposalContract.sol\":3090:3099  uint256 i */\n      dup1\n        /* \"ProposalContract.sol\":3102:3103  0 */\n      0x00\n        /* \"ProposalContract.sol\":3090:3103  uint256 i = 0 */\n      swap1\n      pop\n        /* \"ProposalContract.sol\":3085:3242  for (uint256 i = 0; i < voted_addresses.length; i++) {... */\n    tag_118:\n        /* \"ProposalContract.sol\":3109:3124  voted_addresses */\n      0x02\n        /* \"ProposalContract.sol\":3109:3131  voted_addresses.length */\n      dup1\n      sload\n      swap1\n      pop\n        /* \"ProposalContract.sol\":3105:3106  i */\n      dup2\n        /* \"ProposalContract.sol\":3105:3131  i < voted_addresses.length */\n      lt\n        /* \"ProposalContract.sol\":3085:3242  for (uint256 i = 0; i < voted_addresses.length; i++) {... */\n      iszero\n      tag_119\n      jumpi\n        /* \"ProposalContract.sol\":3178:3186  _address */\n      dup3\n        /* \"ProposalContract.sol\":3156:3186  voted_addresses[i] == _address */\n      0xffffffffffffffffffffffffffffffffffffffff\n      and\n        /* \"ProposalContract.sol\":3156:3171  voted_addresses */\n      0x02\n        /* \"ProposalContract.sol\":3172:3173  i */\n      dup3\n        /* \"ProposalContract.sol\":3156:3174  voted_addresses[i] */\n      dup2\n      sload\n      dup2\n      lt\n      tag_121\n      jumpi\n      tag_122\n      tag_123\n      jump\t// in\n    tag_122:\n    tag_121:\n      swap1\n      0x00\n      mstore\n      keccak256(0x00, 0x20)\n      add\n      0x00\n      swap1\n      sload\n      swap1\n      0x0100\n      exp\n      swap1\n      div\n      0xffffffffffffffffffffffffffffffffffffffff\n      and\n        /* \"ProposalContract.sol\":3156:3186  voted_addresses[i] == _address */\n      0xffffffffffffffffffffffffffffffffffffffff\n      and\n      sub\n        /* \"ProposalContract.sol\":3152:3232  if (voted_addresses[i] == _address) {... */\n      tag_125\n      jumpi\n        /* \"ProposalContract.sol\":3213:3217  true */\n      0x01\n        /* \"ProposalContract.sol\":3206:3217  return true */\n      swap2\n      pop\n      pop\n      jump(tag_117)\n        /* \"ProposalContract.sol\":3152:3232  if (voted_addresses[i] == _address) {... */\n    tag_125:\n        /* \"ProposalContract.sol\":3133:3136  i++ */\n      dup1\n      dup1\n      0x01\n      add\n      swap2\n      pop\n      pop\n        /* \"ProposalContract.sol\":3085:3242  for (uint256 i = 0; i < voted_addresses.length; i++) {... */\n      jump(tag_118)\n    tag_119:\n      pop\n        /* \"ProposalContract.sol\":3258:3263  false */\n      0x00\n        /* \"ProposalContract.sol\":3251:3263  return false */\n      swap1\n      pop\n        /* \"ProposalContract.sol\":3013:3270  function isVoted(address _address) public view returns (bool) {... */\n    tag_117:\n      swap2\n      swap1\n      pop\n      jump\t// out\n        /* \"ProposalContract.sol\":1318:2037  function calculateCurrentState(uint256 _counter) private view returns(bool) {... */\n    tag_88:\n        /* \"ProposalContract.sol\":1388:1392  bool */\n      0x00\n        /* \"ProposalContract.sol\":1404:1429  Proposal storage proposal */\n      dup1\n        /* \"ProposalContract.sol\":1432:1448  proposal_history */\n      0x03\n        /* \"ProposalContract.sol\":1432:1458  proposal_history[_counter] */\n      0x00\n        /* \"ProposalContract.sol\":1449:1457  _counter */\n      dup5\n        /* \"ProposalContract.sol\":1432:1458  proposal_history[_counter] */\n      dup2\n      mstore\n      0x20\n      add\n      swap1\n      dup2\n      mstore\n      0x20\n      add\n      0x00\n      keccak256\n        /* \"ProposalContract.sol\":1404:1458  Proposal storage proposal = proposal_history[_counter] */\n      swap1\n      pop\n        /* \"ProposalContract.sol\":1469:1487  uint256 totalVotes */\n      0x00\n        /* \"ProposalContract.sol\":1527:1535  proposal */\n      dup2\n        /* \"ProposalContract.sol\":1527:1540  proposal.pass */\n      0x04\n      add\n      sload\n        /* \"ProposalContract.sol\":1509:1517  proposal */\n      dup3\n        /* \"ProposalContract.sol\":1509:1524  proposal.reject */\n      0x03\n      add\n      sload\n        /* \"ProposalContract.sol\":1490:1498  proposal */\n      dup4\n        /* \"ProposalContract.sol\":1490:1506  proposal.approve */\n      0x02\n      add\n      sload\n        /* \"ProposalContract.sol\":1490:1524  proposal.approve + proposal.reject */\n      tag_127\n      swap2\n      swap1\n      tag_82\n      jump\t// in\n    tag_127:\n        /* \"ProposalContract.sol\":1490:1540  proposal.approve + proposal.reject + proposal.pass */\n      tag_128\n      swap2\n      swap1\n      tag_82\n      jump\t// in\n    tag_128:\n        /* \"ProposalContract.sol\":1469:1540  uint256 totalVotes = proposal.approve + proposal.reject + proposal.pass */\n      swap1\n      pop\n        /* \"ProposalContract.sol\":1550:1571  uint256 passThreshold */\n      0x00\n        /* \"ProposalContract.sol\":1609:1610  1 */\n      0x01\n        /* \"ProposalContract.sol\":1604:1605  2 */\n      0x02\n        /* \"ProposalContract.sol\":1575:1583  proposal */\n      dup5\n        /* \"ProposalContract.sol\":1575:1601  proposal.total_vote_to_end */\n      0x05\n      add\n      sload\n        /* \"ProposalContract.sol\":1575:1605  proposal.total_vote_to_end / 2 */\n      tag_129\n      swap2\n      swap1\n      tag_130\n      jump\t// in\n    tag_129:\n        /* \"ProposalContract.sol\":1574:1610  (proposal.total_vote_to_end / 2) + 1 */\n      tag_131\n      swap2\n      swap1\n      tag_82\n      jump\t// in\n    tag_131:\n        /* \"ProposalContract.sol\":1550:1610  uint256 passThreshold = (proposal.total_vote_to_end / 2) + 1 */\n      swap1\n      pop\n        /* \"ProposalContract.sol\":1638:1646  proposal */\n      dup3\n        /* \"ProposalContract.sol\":1638:1664  proposal.total_vote_to_end */\n      0x05\n      add\n      sload\n        /* \"ProposalContract.sol\":1625:1635  totalVotes */\n      dup3\n        /* \"ProposalContract.sol\":1625:1664  totalVotes < proposal.total_vote_to_end */\n      lt\n        /* \"ProposalContract.sol\":1621:1763  if (totalVotes < proposal.total_vote_to_end) {... */\n      iszero\n      tag_132\n      jumpi\n        /* \"ProposalContract.sol\":1687:1692  false */\n      0x00\n        /* \"ProposalContract.sol\":1680:1692  return false */\n      swap4\n      pop\n      pop\n      pop\n      pop\n      jump(tag_126)\n        /* \"ProposalContract.sol\":1621:1763  if (totalVotes < proposal.total_vote_to_end) {... */\n    tag_132:\n        /* \"ProposalContract.sol\":1773:1801  uint256 totalApproveRequired */\n      0x00\n        /* \"ProposalContract.sol\":1837:1838  2 */\n      0x02\n        /* \"ProposalContract.sol\":1821:1829  proposal */\n      dup5\n        /* \"ProposalContract.sol\":1821:1834  proposal.pass */\n      0x04\n      add\n      sload\n        /* \"ProposalContract.sol\":1821:1838  proposal.pass % 2 */\n      tag_133\n      swap2\n      swap1\n      tag_134\n      jump\t// in\n    tag_133:\n        /* \"ProposalContract.sol\":1804:1817  passThreshold */\n      dup3\n        /* \"ProposalContract.sol\":1804:1839  passThreshold + (proposal.pass % 2) */\n      tag_135\n      swap2\n      swap1\n      tag_82\n      jump\t// in\n    tag_135:\n        /* \"ProposalContract.sol\":1773:1839  uint256 totalApproveRequired = passThreshold + (proposal.pass % 2) */\n      swap1\n      pop\n        /* \"ProposalContract.sol\":1849:1876  uint256 totalRejectRequired */\n      0x00\n        /* \"ProposalContract.sol\":1908:1928  totalApproveRequired */\n      dup2\n        /* \"ProposalContract.sol\":1879:1887  proposal */\n      dup6\n        /* \"ProposalContract.sol\":1879:1905  proposal.total_vote_to_end */\n      0x05\n      add\n      sload\n        /* \"ProposalContract.sol\":1879:1928  proposal.total_vote_to_end - totalApproveRequired */\n      tag_136\n      swap2\n      swap1\n      tag_98\n      jump\t// in\n    tag_136:\n        /* \"ProposalContract.sol\":1849:1928  uint256 totalRejectRequired = proposal.total_vote_to_end - totalApproveRequired */\n      swap1\n      pop\n        /* \"ProposalContract.sol\":1967:1987  totalApproveRequired */\n      dup2\n        /* \"ProposalContract.sol\":1947:1955  proposal */\n      dup6\n        /* \"ProposalContract.sol\":1947:1963  proposal.approve */\n      0x02\n      add\n      sload\n        /* \"ProposalContract.sol\":1947:1987  proposal.approve >= totalApproveRequired */\n      lt\n      iszero\n        /* \"ProposalContract.sol\":1947:2029  proposal.approve >= totalApproveRequired && proposal.reject <= totalRejectRequired */\n      dup1\n      iszero\n      tag_137\n      jumpi\n      pop\n        /* \"ProposalContract.sol\":2010:2029  totalRejectRequired */\n      dup1\n        /* \"ProposalContract.sol\":1991:1999  proposal */\n      dup6\n        /* \"ProposalContract.sol\":1991:2006  proposal.reject */\n      0x03\n      add\n      sload\n        /* \"ProposalContract.sol\":1991:2029  proposal.reject <= totalRejectRequired */\n      gt\n      iszero\n        /* \"ProposalContract.sol\":1947:2029  proposal.approve >= totalApproveRequired && proposal.reject <= totalRejectRequired */\n    tag_137:\n        /* \"ProposalContract.sol\":1939:2030  return (proposal.approve >= totalApproveRequired && proposal.reject <= totalRejectRequired) */\n      swap6\n      pop\n      pop\n      pop\n      pop\n      pop\n      pop\n        /* \"ProposalContract.sol\":1318:2037  function calculateCurrentState(uint256 _counter) private view returns(bool) {... */\n    tag_126:\n      swap2\n      swap1\n      pop\n      jump\t// out\n    tag_59:\n      mload(0x40)\n      dup1\n      0x0100\n      add\n      0x40\n      mstore\n      dup1\n      0x60\n      dup2\n      mstore\n      0x20\n      add\n      0x60\n      dup2\n      mstore\n      0x20\n      add\n      0x00\n      dup2\n      mstore\n      0x20\n      add\n      0x00\n      dup2\n      mstore\n      0x20\n      add\n      0x00\n      dup2\n      mstore\n      0x20\n      add\n      0x00\n      dup2\n      mstore\n      0x20\n      add\n      iszero(iszero(0x00))\n      dup2\n      mstore\n      0x20\n      add\n      iszero(iszero(0x00))\n      dup2\n      mstore\n      pop\n      swap1\n      jump\t// out\n    tag_104:\n      dup3\n      dup1\n      sload\n      dup3\n      dup3\n      sstore\n      swap1\n      0x00\n      mstore\n      keccak256(0x00, 0x20)\n      swap1\n      dup2\n      add\n      swap3\n      dup3\n      iszero\n      tag_138\n      jumpi\n      swap2\n      0x20\n      mul\n      dup3\n      add\n    tag_139:\n      dup3\n      dup2\n      gt\n      iszero\n      tag_140\n      jumpi\n      dup3\n      mload\n      dup3\n      exp(0x0100, 0x00)\n      dup2\n      sload\n      dup2\n      0xffffffffffffffffffffffffffffffffffffffff\n      mul\n      not\n      and\n      swap1\n      dup4\n      0xffffffffffffffffffffffffffffffffffffffff\n      and\n      mul\n      or\n      swap1\n      sstore\n      pop\n      swap2\n      0x20\n      add\n      swap2\n      swap1\n      0x01\n      add\n      swap1\n      jump(tag_139)\n    tag_140:\n    tag_138:\n      pop\n      swap1\n      pop\n      tag_141\n      swap2\n      swap1\n      tag_142\n      jump\t// in\n    tag_141:\n      pop\n      swap1\n      jump\t// out\n    tag_142:\n    tag_143:\n      dup1\n      dup3\n      gt\n      iszero\n      tag_144\n      jumpi\n      0x00\n      dup2\n      0x00\n      swap1\n      sstore\n      pop\n      0x01\n      add\n      jump(tag_143)\n    tag_144:\n      pop\n      swap1\n      jump\t// out\n        /* \"#utility.yul\":88:205   */\n    tag_146:\n        /* \"#utility.yul\":197:198   */\n      0x00\n        /* \"#utility.yul\":194:195   */\n      dup1\n        /* \"#utility.yul\":187:199   */\n      revert\n        /* \"#utility.yul\":211:328   */\n    tag_147:\n        /* \"#utility.yul\":320:321   */\n      0x00\n        /* \"#utility.yul\":317:318   */\n      dup1\n        /* \"#utility.yul\":310:322   */\n      revert\n        /* \"#utility.yul\":334:460   */\n    tag_148:\n        /* \"#utility.yul\":371:378   */\n      0x00\n        /* \"#utility.yul\":411:453   */\n      0xffffffffffffffffffffffffffffffffffffffff\n        /* \"#utility.yul\":404:409   */\n      dup3\n        /* \"#utility.yul\":400:454   */\n      and\n        /* \"#utility.yul\":389:454   */\n      swap1\n      pop\n        /* \"#utility.yul\":334:460   */\n      swap2\n      swap1\n      pop\n      jump\t// out\n        /* \"#utility.yul\":466:562   */\n    tag_149:\n        /* \"#utility.yul\":503:510   */\n      0x00\n        /* \"#utility.yul\":532:556   */\n      tag_203\n        /* \"#utility.yul\":550:555   */\n      dup3\n        /* \"#utility.yul\":532:556   */\n      tag_148\n      jump\t// in\n    tag_203:\n        /* \"#utility.yul\":521:556   */\n      swap1\n      pop\n        /* \"#utility.yul\":466:562   */\n      swap2\n      swap1\n      pop\n      jump\t// out\n        /* \"#utility.yul\":568:690   */\n    tag_150:\n        /* \"#utility.yul\":641:665   */\n      tag_205\n        /* \"#utility.yul\":659:664   */\n      dup2\n        /* \"#utility.yul\":641:665   */\n      tag_149\n      jump\t// in\n    tag_205:\n        /* \"#utility.yul\":634:639   */\n      dup2\n        /* \"#utility.yul\":631:666   */\n      eq\n        /* \"#utility.yul\":621:684   */\n      tag_206\n      jumpi\n        /* \"#utility.yul\":680:681   */\n      0x00\n        /* \"#utility.yul\":677:678   */\n      dup1\n        /* \"#utility.yul\":670:682   */\n      revert\n        /* \"#utility.yul\":621:684   */\n    tag_206:\n        /* \"#utility.yul\":568:690   */\n      pop\n      jump\t// out\n        /* \"#utility.yul\":696:835   */\n    tag_151:\n        /* \"#utility.yul\":742:747   */\n      0x00\n        /* \"#utility.yul\":780:786   */\n      dup2\n        /* \"#utility.yul\":767:787   */\n      calldataload\n        /* \"#utility.yul\":758:787   */\n      swap1\n      pop\n        /* \"#utility.yul\":796:829   */\n      tag_208\n        /* \"#utility.yul\":823:828   */\n      dup2\n        /* \"#utility.yul\":796:829   */\n      tag_150\n      jump\t// in\n    tag_208:\n        /* \"#utility.yul\":696:835   */\n      swap3\n      swap2\n      pop\n      pop\n      jump\t// out\n        /* \"#utility.yul\":841:1170   */\n    tag_14:\n        /* \"#utility.yul\":900:906   */\n      0x00\n        /* \"#utility.yul\":949:951   */\n      0x20\n        /* \"#utility.yul\":937:946   */\n      dup3\n        /* \"#utility.yul\":928:935   */\n      dup5\n        /* \"#utility.yul\":924:947   */\n      sub\n        /* \"#utility.yul\":920:952   */\n      slt\n        /* \"#utility.yul\":917:1036   */\n      iszero\n      tag_210\n      jumpi\n        /* \"#utility.yul\":955:1034   */\n      tag_211\n      tag_146\n      jump\t// in\n    tag_211:\n        /* \"#utility.yul\":917:1036   */\n    tag_210:\n        /* \"#utility.yul\":1075:1076   */\n      0x00\n        /* \"#utility.yul\":1100:1153   */\n      tag_212\n        /* \"#utility.yul\":1145:1152   */\n      dup5\n        /* \"#utility.yul\":1136:1142   */\n      dup3\n        /* \"#utility.yul\":1125:1134   */\n      dup6\n        /* \"#utility.yul\":1121:1143   */\n      add\n        /* \"#utility.yul\":1100:1153   */\n      tag_151\n      jump\t// in\n    tag_212:\n        /* \"#utility.yul\":1090:1153   */\n      swap2\n      pop\n        /* \"#utility.yul\":1046:1163   */\n      pop\n        /* \"#utility.yul\":841:1170   */\n      swap3\n      swap2\n      pop\n      pop\n      jump\t// out\n        /* \"#utility.yul\":1176:1293   */\n    tag_152:\n        /* \"#utility.yul\":1285:1286   */\n      0x00\n        /* \"#utility.yul\":1282:1283   */\n      dup1\n        /* \"#utility.yul\":1275:1287   */\n      revert\n        /* \"#utility.yul\":1299:1416   */\n    tag_153:\n        /* \"#utility.yul\":1408:1409   */\n      0x00\n        /* \"#utility.yul\":1405:1406   */\n      dup1\n        /* \"#utility.yul\":1398:1410   */\n      revert\n        /* \"#utility.yul\":1422:1539   */\n    tag_154:\n        /* \"#utility.yul\":1531:1532   */\n      0x00\n        /* \"#utility.yul\":1528:1529   */\n      dup1\n        /* \"#utility.yul\":1521:1533   */\n      revert\n        /* \"#utility.yul\":1559:2112   */\n    tag_155:\n        /* \"#utility.yul\":1617:1625   */\n      0x00\n        /* \"#utility.yul\":1627:1633   */\n      dup1\n        /* \"#utility.yul\":1677:1680   */\n      dup4\n        /* \"#utility.yul\":1670:1674   */\n      0x1f\n        /* \"#utility.yul\":1662:1668   */\n      dup5\n        /* \"#utility.yul\":1658:1675   */\n      add\n        /* \"#utility.yul\":1654:1681   */\n      slt\n        /* \"#utility.yul\":1644:1766   */\n      tag_217\n      jumpi\n        /* \"#utility.yul\":1685:1764   */\n      tag_218\n      tag_152\n      jump\t// in\n    tag_218:\n        /* \"#utility.yul\":1644:1766   */\n    tag_217:\n        /* \"#utility.yul\":1798:1804   */\n      dup3\n        /* \"#utility.yul\":1785:1805   */\n      calldataload\n        /* \"#utility.yul\":1775:1805   */\n      swap1\n      pop\n        /* \"#utility.yul\":1828:1846   */\n      0xffffffffffffffff\n        /* \"#utility.yul\":1820:1826   */\n      dup2\n        /* \"#utility.yul\":1817:1847   */\n      gt\n        /* \"#utility.yul\":1814:1931   */\n      iszero\n      tag_219\n      jumpi\n        /* \"#utility.yul\":1850:1929   */\n      tag_220\n      tag_153\n      jump\t// in\n    tag_220:\n        /* \"#utility.yul\":1814:1931   */\n    tag_219:\n        /* \"#utility.yul\":1964:1968   */\n      0x20\n        /* \"#utility.yul\":1956:1962   */\n      dup4\n        /* \"#utility.yul\":1952:1969   */\n      add\n        /* \"#utility.yul\":1940:1969   */\n      swap2\n      pop\n        /* \"#utility.yul\":2018:2021   */\n      dup4\n        /* \"#utility.yul\":2010:2014   */\n      0x01\n        /* \"#utility.yul\":2002:2008   */\n      dup3\n        /* \"#utility.yul\":1998:2015   */\n      mul\n        /* \"#utility.yul\":1988:1996   */\n      dup4\n        /* \"#utility.yul\":1984:2016   */\n      add\n        /* \"#utility.yul\":1981:2022   */\n      gt\n        /* \"#utility.yul\":1978:2106   */\n      iszero\n      tag_221\n      jumpi\n        /* \"#utility.yul\":2025:2104   */\n      tag_222\n      tag_154\n      jump\t// in\n    tag_222:\n        /* \"#utility.yul\":1978:2106   */\n    tag_221:\n        /* \"#utility.yul\":1559:2112   */\n      swap3\n      pop\n      swap3\n      swap1\n      pop\n      jump\t// out\n        /* \"#utility.yul\":2118:2195   */\n    tag_156:\n        /* \"#utility.yul\":2155:2162   */\n      0x00\n        /* \"#utility.yul\":2184:2189   */\n      dup2\n        /* \"#utility.yul\":2173:2189   */\n      swap1\n      pop\n        /* \"#utility.yul\":2118:2195   */\n      swap2\n      swap1\n      pop\n      jump\t// out\n        /* \"#utility.yul\":2201:2323   */\n    tag_157:\n        /* \"#utility.yul\":2274:2298   */\n      tag_225\n        /* \"#utility.yul\":2292:2297   */\n      dup2\n        /* \"#utility.yul\":2274:2298   */\n      tag_156\n      jump\t// in\n    tag_225:\n        /* \"#utility.yul\":2267:2272   */\n      dup2\n        /* \"#utility.yul\":2264:2299   */\n      eq\n        /* \"#utility.yul\":2254:2317   */\n      tag_226\n      jumpi\n        /* \"#utility.yul\":2313:2314   */\n      0x00\n        /* \"#utility.yul\":2310:2311   */\n      dup1\n        /* \"#utility.yul\":2303:2315   */\n      revert\n        /* \"#utility.yul\":2254:2317   */\n    tag_226:\n        /* \"#utility.yul\":2201:2323   */\n      pop\n      jump\t// out\n        /* \"#utility.yul\":2329:2468   */\n    tag_158:\n        /* \"#utility.yul\":2375:2380   */\n      0x00\n        /* \"#utility.yul\":2413:2419   */\n      dup2\n        /* \"#utility.yul\":2400:2420   */\n      calldataload\n        /* \"#utility.yul\":2391:2420   */\n      swap1\n      pop\n        /* \"#utility.yul\":2429:2462   */\n      tag_228\n        /* \"#utility.yul\":2456:2461   */\n      dup2\n        /* \"#utility.yul\":2429:2462   */\n      tag_157\n      jump\t// in\n    tag_228:\n        /* \"#utility.yul\":2329:2468   */\n      swap3\n      swap2\n      pop\n      pop\n      jump\t// out\n        /* \"#utility.yul\":2474:3493   */\n    tag_18:\n        /* \"#utility.yul\":2575:2581   */\n      0x00\n        /* \"#utility.yul\":2583:2589   */\n      dup1\n        /* \"#utility.yul\":2591:2597   */\n      0x00\n        /* \"#utility.yul\":2599:2605   */\n      dup1\n        /* \"#utility.yul\":2607:2613   */\n      0x00\n        /* \"#utility.yul\":2656:2658   */\n      0x60\n        /* \"#utility.yul\":2644:2653   */\n      dup7\n        /* \"#utility.yul\":2635:2642   */\n      dup9\n        /* \"#utility.yul\":2631:2654   */\n      sub\n        /* \"#utility.yul\":2627:2659   */\n      slt\n        /* \"#utility.yul\":2624:2743   */\n      iszero\n      tag_230\n      jumpi\n        /* \"#utility.yul\":2662:2741   */\n      tag_231\n      tag_146\n      jump\t// in\n    tag_231:\n        /* \"#utility.yul\":2624:2743   */\n    tag_230:\n        /* \"#utility.yul\":2810:2811   */\n      0x00\n        /* \"#utility.yul\":2799:2808   */\n      dup7\n        /* \"#utility.yul\":2795:2812   */\n      add\n        /* \"#utility.yul\":2782:2813   */\n      calldataload\n        /* \"#utility.yul\":2840:2858   */\n      0xffffffffffffffff\n        /* \"#utility.yul\":2832:2838   */\n      dup2\n        /* \"#utility.yul\":2829:2859   */\n      gt\n        /* \"#utility.yul\":2826:2943   */\n      iszero\n      tag_232\n      jumpi\n        /* \"#utility.yul\":2862:2941   */\n      tag_233\n      tag_147\n      jump\t// in\n    tag_233:\n        /* \"#utility.yul\":2826:2943   */\n    tag_232:\n        /* \"#utility.yul\":2975:3040   */\n      tag_234\n        /* \"#utility.yul\":3032:3039   */\n      dup9\n        /* \"#utility.yul\":3023:3029   */\n      dup3\n        /* \"#utility.yul\":3012:3021   */\n      dup10\n        /* \"#utility.yul\":3008:3030   */\n      add\n        /* \"#utility.yul\":2975:3040   */\n      tag_155\n      jump\t// in\n    tag_234:\n        /* \"#utility.yul\":2957:3040   */\n      swap6\n      pop\n      swap6\n      pop\n        /* \"#utility.yul\":2753:3050   */\n      pop\n        /* \"#utility.yul\":3117:3119   */\n      0x20\n        /* \"#utility.yul\":3106:3115   */\n      dup7\n        /* \"#utility.yul\":3102:3120   */\n      add\n        /* \"#utility.yul\":3089:3121   */\n      calldataload\n        /* \"#utility.yul\":3148:3166   */\n      0xffffffffffffffff\n        /* \"#utility.yul\":3140:3146   */\n      dup2\n        /* \"#utility.yul\":3137:3167   */\n      gt\n        /* \"#utility.yul\":3134:3251   */\n      iszero\n      tag_235\n      jumpi\n        /* \"#utility.yul\":3170:3249   */\n      tag_236\n      tag_147\n      jump\t// in\n    tag_236:\n        /* \"#utility.yul\":3134:3251   */\n    tag_235:\n        /* \"#utility.yul\":3283:3348   */\n      tag_237\n        /* \"#utility.yul\":3340:3347   */\n      dup9\n        /* \"#utility.yul\":3331:3337   */\n      dup3\n        /* \"#utility.yul\":3320:3329   */\n      dup10\n        /* \"#utility.yul\":3316:3338   */\n      add\n        /* \"#utility.yul\":3283:3348   */\n      tag_155\n      jump\t// in\n    tag_237:\n        /* \"#utility.yul\":3265:3348   */\n      swap4\n      pop\n      swap4\n      pop\n        /* \"#utility.yul\":3060:3358   */\n      pop\n        /* \"#utility.yul\":3397:3399   */\n      0x40\n        /* \"#utility.yul\":3423:3476   */\n      tag_238\n        /* \"#utility.yul\":3468:3475   */\n      dup9\n        /* \"#utility.yul\":3459:3465   */\n      dup3\n        /* \"#utility.yul\":3448:3457   */\n      dup10\n        /* \"#utility.yul\":3444:3466   */\n      add\n        /* \"#utility.yul\":3423:3476   */\n      tag_158\n      jump\t// in\n    tag_238:\n        /* \"#utility.yul\":3413:3476   */\n      swap2\n      pop\n        /* \"#utility.yul\":3368:3486   */\n      pop\n        /* \"#utility.yul\":2474:3493   */\n      swap3\n      swap6\n      pop\n      swap3\n      swap6\n      swap1\n      swap4\n      pop\n      jump\t// out\n        /* \"#utility.yul\":3499:3598   */\n    tag_159:\n        /* \"#utility.yul\":3551:3557   */\n      0x00\n        /* \"#utility.yul\":3585:3590   */\n      dup2\n        /* \"#utility.yul\":3579:3591   */\n      mload\n        /* \"#utility.yul\":3569:3591   */\n      swap1\n      pop\n        /* \"#utility.yul\":3499:3598   */\n      swap2\n      swap1\n      pop\n      jump\t// out\n        /* \"#utility.yul\":3604:3763   */\n    tag_160:\n        /* \"#utility.yul\":3678:3689   */\n      0x00\n        /* \"#utility.yul\":3712:3718   */\n      dup3\n        /* \"#utility.yul\":3707:3710   */\n      dup3\n        /* \"#utility.yul\":3700:3719   */\n      mstore\n        /* \"#utility.yul\":3752:3756   */\n      0x20\n        /* \"#utility.yul\":3747:3750   */\n      dup3\n        /* \"#utility.yul\":3743:3757   */\n      add\n        /* \"#utility.yul\":3728:3757   */\n      swap1\n      pop\n        /* \"#utility.yul\":3604:3763   */\n      swap3\n      swap2\n      pop\n      pop\n      jump\t// out\n        /* \"#utility.yul\":3769:4015   */\n    tag_161:\n        /* \"#utility.yul\":3850:3851   */\n      0x00\n        /* \"#utility.yul\":3860:3973   */\n    tag_242:\n        /* \"#utility.yul\":3874:3880   */\n      dup4\n        /* \"#utility.yul\":3871:3872   */\n      dup2\n        /* \"#utility.yul\":3868:3881   */\n      lt\n        /* \"#utility.yul\":3860:3973   */\n      iszero\n      tag_244\n      jumpi\n        /* \"#utility.yul\":3959:3960   */\n      dup1\n        /* \"#utility.yul\":3954:3957   */\n      dup3\n        /* \"#utility.yul\":3950:3961   */\n      add\n        /* \"#utility.yul\":3944:3962   */\n      mload\n        /* \"#utility.yul\":3940:3941   */\n      dup2\n        /* \"#utility.yul\":3935:3938   */\n      dup5\n        /* \"#utility.yul\":3931:3942   */\n      add\n        /* \"#utility.yul\":3924:3963   */\n      mstore\n        /* \"#utility.yul\":3896:3898   */\n      0x20\n        /* \"#utility.yul\":3893:3894   */\n      dup2\n        /* \"#utility.yul\":3889:3899   */\n      add\n        /* \"#utility.yul\":3884:3899   */\n      swap1\n      pop\n        /* \"#utility.yul\":3860:3973   */\n      jump(tag_242)\n    tag_244:\n        /* \"#utility.yul\":4007:4008   */\n      0x00\n        /* \"#utility.yul\":3998:4004   */\n      dup5\n        /* \"#utility.yul\":3993:3996   */\n      dup5\n        /* \"#utility.yul\":3989:4005   */\n      add\n        /* \"#utility.yul\":3982:4009   */\n      mstore\n        /* \"#utility.yul\":3831:4015   */\n      pop\n        /* \"#utility.yul\":3769:4015   */\n      pop\n      pop\n      pop\n      jump\t// out\n        /* \"#utility.yul\":4021:4123   */\n    tag_162:\n        /* \"#utility.yul\":4062:4068   */\n      0x00\n        /* \"#utility.yul\":4113:4115   */\n      0x1f\n        /* \"#utility.yul\":4109:4116   */\n      not\n        /* \"#utility.yul\":4104:4106   */\n      0x1f\n        /* \"#utility.yul\":4097:4102   */\n      dup4\n        /* \"#utility.yul\":4093:4107   */\n      add\n        /* \"#utility.yul\":4089:4117   */\n      and\n        /* \"#utility.yul\":4079:4117   */\n      swap1\n      pop\n        /* \"#utility.yul\":4021:4123   */\n      swap2\n      swap1\n      pop\n      jump\t// out\n        /* \"#utility.yul\":4129:4486   */\n    tag_163:\n        /* \"#utility.yul\":4207:4210   */\n      0x00\n        /* \"#utility.yul\":4235:4274   */\n      tag_247\n        /* \"#utility.yul\":4268:4273   */\n      dup3\n        /* \"#utility.yul\":4235:4274   */\n      tag_159\n      jump\t// in\n    tag_247:\n        /* \"#utility.yul\":4290:4351   */\n      tag_248\n        /* \"#utility.yul\":4344:4350   */\n      dup2\n        /* \"#utility.yul\":4339:4342   */\n      dup6\n        /* \"#utility.yul\":4290:4351   */\n      tag_160\n      jump\t// in\n    tag_248:\n        /* \"#utility.yul\":4283:4351   */\n      swap4\n      pop\n        /* \"#utility.yul\":4360:4425   */\n      tag_249\n        /* \"#utility.yul\":4418:4424   */\n      dup2\n        /* \"#utility.yul\":4413:4416   */\n      dup6\n        /* \"#utility.yul\":4406:4410   */\n      0x20\n        /* \"#utility.yul\":4399:4404   */\n      dup7\n        /* \"#utility.yul\":4395:4411   */\n      add\n        /* \"#utility.yul\":4360:4425   */\n      tag_161\n      jump\t// in\n    tag_249:\n        /* \"#utility.yul\":4450:4479   */\n      tag_250\n        /* \"#utility.yul\":4472:4478   */\n      dup2\n        /* \"#utility.yul\":4450:4479   */\n      tag_162\n      jump\t// in\n    tag_250:\n        /* \"#utility.yul\":4445:4448   */\n      dup5\n        /* \"#utility.yul\":4441:4480   */\n      add\n        /* \"#utility.yul\":4434:4480   */\n      swap2\n      pop\n        /* \"#utility.yul\":4211:4486   */\n      pop\n        /* \"#utility.yul\":4129:4486   */\n      swap3\n      swap2\n      pop\n      pop\n      jump\t// out\n        /* \"#utility.yul\":4492:4600   */\n    tag_164:\n        /* \"#utility.yul\":4569:4593   */\n      tag_252\n        /* \"#utility.yul\":4587:4592   */\n      dup2\n        /* \"#utility.yul\":4569:4593   */\n      tag_156\n      jump\t// in\n    tag_252:\n        /* \"#utility.yul\":4564:4567   */\n      dup3\n        /* \"#utility.yul\":4557:4594   */\n      mstore\n        /* \"#utility.yul\":4492:4600   */\n      pop\n      pop\n      jump\t// out\n        /* \"#utility.yul\":4606:4696   */\n    tag_165:\n        /* \"#utility.yul\":4640:4647   */\n      0x00\n        /* \"#utility.yul\":4683:4688   */\n      dup2\n        /* \"#utility.yul\":4676:4689   */\n      iszero\n        /* \"#utility.yul\":4669:4690   */\n      iszero\n        /* \"#utility.yul\":4658:4690   */\n      swap1\n      pop\n        /* \"#utility.yul\":4606:4696   */\n      swap2\n      swap1\n      pop\n      jump\t// out\n        /* \"#utility.yul\":4702:4801   */\n    tag_166:\n        /* \"#utility.yul\":4773:4794   */\n      tag_255\n        /* \"#utility.yul\":4788:4793   */\n      dup2\n        /* \"#utility.yul\":4773:4794   */\n      tag_165\n      jump\t// in\n    tag_255:\n        /* \"#utility.yul\":4768:4771   */\n      dup3\n        /* \"#utility.yul\":4761:4795   */\n      mstore\n        /* \"#utility.yul\":4702:4801   */\n      pop\n      pop\n      jump\t// out\n        /* \"#utility.yul\":4883:6632   */\n    tag_167:\n        /* \"#utility.yul\":5000:5003   */\n      0x00\n        /* \"#utility.yul\":5036:5042   */\n      0x0100\n        /* \"#utility.yul\":5031:5034   */\n      dup4\n        /* \"#utility.yul\":5027:5043   */\n      add\n        /* \"#utility.yul\":5126:5130   */\n      0x00\n        /* \"#utility.yul\":5119:5124   */\n      dup4\n        /* \"#utility.yul\":5115:5131   */\n      add\n        /* \"#utility.yul\":5109:5132   */\n      mload\n        /* \"#utility.yul\":5179:5182   */\n      dup5\n        /* \"#utility.yul\":5173:5177   */\n      dup3\n        /* \"#utility.yul\":5169:5183   */\n      sub\n        /* \"#utility.yul\":5162:5166   */\n      0x00\n        /* \"#utility.yul\":5157:5160   */\n      dup7\n        /* \"#utility.yul\":5153:5167   */\n      add\n        /* \"#utility.yul\":5146:5184   */\n      mstore\n        /* \"#utility.yul\":5205:5278   */\n      tag_257\n        /* \"#utility.yul\":5273:5277   */\n      dup3\n        /* \"#utility.yul\":5259:5271   */\n      dup3\n        /* \"#utility.yul\":5205:5278   */\n      tag_163\n      jump\t// in\n    tag_257:\n        /* \"#utility.yul\":5197:5278   */\n      swap2\n      pop\n        /* \"#utility.yul\":5053:5289   */\n      pop\n        /* \"#utility.yul\":5378:5382   */\n      0x20\n        /* \"#utility.yul\":5371:5376   */\n      dup4\n        /* \"#utility.yul\":5367:5383   */\n      add\n        /* \"#utility.yul\":5361:5384   */\n      mload\n        /* \"#utility.yul\":5431:5434   */\n      dup5\n        /* \"#utility.yul\":5425:5429   */\n      dup3\n        /* \"#utility.yul\":5421:5435   */\n      sub\n        /* \"#utility.yul\":5414:5418   */\n      0x20\n        /* \"#utility.yul\":5409:5412   */\n      dup7\n        /* \"#utility.yul\":5405:5419   */\n      add\n        /* \"#utility.yul\":5398:5436   */\n      mstore\n        /* \"#utility.yul\":5457:5530   */\n      tag_258\n        /* \"#utility.yul\":5525:5529   */\n      dup3\n        /* \"#utility.yul\":5511:5523   */\n      dup3\n        /* \"#utility.yul\":5457:5530   */\n      tag_163\n      jump\t// in\n    tag_258:\n        /* \"#utility.yul\":5449:5530   */\n      swap2\n      pop\n        /* \"#utility.yul\":5299:5541   */\n      pop\n        /* \"#utility.yul\":5626:5630   */\n      0x40\n        /* \"#utility.yul\":5619:5624   */\n      dup4\n        /* \"#utility.yul\":5615:5631   */\n      add\n        /* \"#utility.yul\":5609:5632   */\n      mload\n        /* \"#utility.yul\":5645:5708   */\n      tag_259\n        /* \"#utility.yul\":5702:5706   */\n      0x40\n        /* \"#utility.yul\":5697:5700   */\n      dup7\n        /* \"#utility.yul\":5693:5707   */\n      add\n        /* \"#utility.yul\":5679:5691   */\n      dup3\n        /* \"#utility.yul\":5645:5708   */\n      tag_164\n      jump\t// in\n    tag_259:\n        /* \"#utility.yul\":5551:5718   */\n      pop\n        /* \"#utility.yul\":5802:5806   */\n      0x60\n        /* \"#utility.yul\":5795:5800   */\n      dup4\n        /* \"#utility.yul\":5791:5807   */\n      add\n        /* \"#utility.yul\":5785:5808   */\n      mload\n        /* \"#utility.yul\":5821:5884   */\n      tag_260\n        /* \"#utility.yul\":5878:5882   */\n      0x60\n        /* \"#utility.yul\":5873:5876   */\n      dup7\n        /* \"#utility.yul\":5869:5883   */\n      add\n        /* \"#utility.yul\":5855:5867   */\n      dup3\n        /* \"#utility.yul\":5821:5884   */\n      tag_164\n      jump\t// in\n    tag_260:\n        /* \"#utility.yul\":5728:5894   */\n      pop\n        /* \"#utility.yul\":5976:5980   */\n      0x80\n        /* \"#utility.yul\":5969:5974   */\n      dup4\n        /* \"#utility.yul\":5965:5981   */\n      add\n        /* \"#utility.yul\":5959:5982   */\n      mload\n        /* \"#utility.yul\":5995:6058   */\n      tag_261\n        /* \"#utility.yul\":6052:6056   */\n      0x80\n        /* \"#utility.yul\":6047:6050   */\n      dup7\n        /* \"#utility.yul\":6043:6057   */\n      add\n        /* \"#utility.yul\":6029:6041   */\n      dup3\n        /* \"#utility.yul\":5995:6058   */\n      tag_164\n      jump\t// in\n    tag_261:\n        /* \"#utility.yul\":5904:6068   */\n      pop\n        /* \"#utility.yul\":6163:6167   */\n      0xa0\n        /* \"#utility.yul\":6156:6161   */\n      dup4\n        /* \"#utility.yul\":6152:6168   */\n      add\n        /* \"#utility.yul\":6146:6169   */\n      mload\n        /* \"#utility.yul\":6182:6245   */\n      tag_262\n        /* \"#utility.yul\":6239:6243   */\n      0xa0\n        /* \"#utility.yul\":6234:6237   */\n      dup7\n        /* \"#utility.yul\":6230:6244   */\n      add\n        /* \"#utility.yul\":6216:6228   */\n      dup3\n        /* \"#utility.yul\":6182:6245   */\n      tag_164\n      jump\t// in\n    tag_262:\n        /* \"#utility.yul\":6078:6255   */\n      pop\n        /* \"#utility.yul\":6346:6350   */\n      0xc0\n        /* \"#utility.yul\":6339:6344   */\n      dup4\n        /* \"#utility.yul\":6335:6351   */\n      add\n        /* \"#utility.yul\":6329:6352   */\n      mload\n        /* \"#utility.yul\":6365:6422   */\n      tag_263\n        /* \"#utility.yul\":6416:6420   */\n      0xc0\n        /* \"#utility.yul\":6411:6414   */\n      dup7\n        /* \"#utility.yul\":6407:6421   */\n      add\n        /* \"#utility.yul\":6393:6405   */\n      dup3\n        /* \"#utility.yul\":6365:6422   */\n      tag_166\n      jump\t// in\n    tag_263:\n        /* \"#utility.yul\":6265:6432   */\n      pop\n        /* \"#utility.yul\":6519:6523   */\n      0xe0\n        /* \"#utility.yul\":6512:6517   */\n      dup4\n        /* \"#utility.yul\":6508:6524   */\n      add\n        /* \"#utility.yul\":6502:6525   */\n      mload\n        /* \"#utility.yul\":6538:6595   */\n      tag_264\n        /* \"#utility.yul\":6589:6593   */\n      0xe0\n        /* \"#utility.yul\":6584:6587   */\n      dup7\n        /* \"#utility.yul\":6580:6594   */\n      add\n        /* \"#utility.yul\":6566:6578   */\n      dup3\n        /* \"#utility.yul\":6538:6595   */\n      tag_166\n      jump\t// in\n    tag_264:\n        /* \"#utility.yul\":6442:6605   */\n      pop\n        /* \"#utility.yul\":6622:6626   */\n      dup1\n        /* \"#utility.yul\":6615:6626   */\n      swap2\n      pop\n        /* \"#utility.yul\":5005:6632   */\n      pop\n        /* \"#utility.yul\":4883:6632   */\n      swap3\n      swap2\n      pop\n      pop\n      jump\t// out\n        /* \"#utility.yul\":6638:7007   */\n    tag_23:\n        /* \"#utility.yul\":6779:6783   */\n      0x00\n        /* \"#utility.yul\":6817:6819   */\n      0x20\n        /* \"#utility.yul\":6806:6815   */\n      dup3\n        /* \"#utility.yul\":6802:6820   */\n      add\n        /* \"#utility.yul\":6794:6820   */\n      swap1\n      pop\n        /* \"#utility.yul\":6866:6875   */\n      dup2\n        /* \"#utility.yul\":6860:6864   */\n      dup2\n        /* \"#utility.yul\":6856:6876   */\n      sub\n        /* \"#utility.yul\":6852:6853   */\n      0x00\n        /* \"#utility.yul\":6841:6850   */\n      dup4\n        /* \"#utility.yul\":6837:6854   */\n      add\n        /* \"#utility.yul\":6830:6877   */\n      mstore\n        /* \"#utility.yul\":6894:7000   */\n      tag_266\n        /* \"#utility.yul\":6995:6999   */\n      dup2\n        /* \"#utility.yul\":6986:6992   */\n      dup5\n        /* \"#utility.yul\":6894:7000   */\n      tag_167\n      jump\t// in\n    tag_266:\n        /* \"#utility.yul\":6886:7000   */\n      swap1\n      pop\n        /* \"#utility.yul\":6638:7007   */\n      swap3\n      swap2\n      pop\n      pop\n      jump\t// out\n        /* \"#utility.yul\":7013:7131   */\n    tag_168:\n        /* \"#utility.yul\":7100:7124   */\n      tag_268\n        /* \"#utility.yul\":7118:7123   */\n      dup2\n        /* \"#utility.yul\":7100:7124   */\n      tag_149\n      jump\t// in\n    tag_268:\n        /* \"#utility.yul\":7095:7098   */\n      dup3\n        /* \"#utility.yul\":7088:7125   */\n      mstore\n        /* \"#utility.yul\":7013:7131   */\n      pop\n      pop\n      jump\t// out\n        /* \"#utility.yul\":7137:7359   */\n    tag_29:\n        /* \"#utility.yul\":7230:7234   */\n      0x00\n        /* \"#utility.yul\":7268:7270   */\n      0x20\n        /* \"#utility.yul\":7257:7266   */\n      dup3\n        /* \"#utility.yul\":7253:7271   */\n      add\n        /* \"#utility.yul\":7245:7271   */\n      swap1\n      pop\n        /* \"#utility.yul\":7281:7352   */\n      tag_270\n        /* \"#utility.yul\":7349:7350   */\n      0x00\n        /* \"#utility.yul\":7338:7347   */\n      dup4\n        /* \"#utility.yul\":7334:7351   */\n      add\n        /* \"#utility.yul\":7325:7331   */\n      dup5\n        /* \"#utility.yul\":7281:7352   */\n      tag_168\n      jump\t// in\n    tag_270:\n        /* \"#utility.yul\":7137:7359   */\n      swap3\n      swap2\n      pop\n      pop\n      jump\t// out\n        /* \"#utility.yul\":7365:7451   */\n    tag_169:\n        /* \"#utility.yul\":7400:7407   */\n      0x00\n        /* \"#utility.yul\":7440:7444   */\n      0xff\n        /* \"#utility.yul\":7433:7438   */\n      dup3\n        /* \"#utility.yul\":7429:7445   */\n      and\n        /* \"#utility.yul\":7418:7445   */\n      swap1\n      pop\n        /* \"#utility.yul\":7365:7451   */\n      swap2\n      swap1\n      pop\n      jump\t// out\n        /* \"#utility.yul\":7457:7575   */\n    tag_170:\n        /* \"#utility.yul\":7528:7550   */\n      tag_273\n        /* \"#utility.yul\":7544:7549   */\n      dup2\n        /* \"#utility.yul\":7528:7550   */\n      tag_169\n      jump\t// in\n    tag_273:\n        /* \"#utility.yul\":7521:7526   */\n      dup2\n        /* \"#utility.yul\":7518:7551   */\n      eq\n        /* \"#utility.yul\":7508:7569   */\n      tag_274\n      jumpi\n        /* \"#utility.yul\":7565:7566   */\n      0x00\n        /* \"#utility.yul\":7562:7563   */\n      dup1\n        /* \"#utility.yul\":7555:7567   */\n      revert\n        /* \"#utility.yul\":7508:7569   */\n    tag_274:\n        /* \"#utility.yul\":7457:7575   */\n      pop\n      jump\t// out\n        /* \"#utility.yul\":7581:7716   */\n    tag_171:\n        /* \"#utility.yul\":7625:7630   */\n      0x00\n        /* \"#utility.yul\":7663:7669   */\n      dup2\n        /* \"#utility.yul\":7650:7670   */\n      calldataload\n        /* \"#utility.yul\":7641:7670   */\n      swap1\n      pop\n        /* \"#utility.yul\":7679:7710   */\n      tag_276\n        /* \"#utility.yul\":7704:7709   */\n      dup2\n        /* \"#utility.yul\":7679:7710   */\n      tag_170\n      jump\t// in\n    tag_276:\n        /* \"#utility.yul\":7581:7716   */\n      swap3\n      swap2\n      pop\n      pop\n      jump\t// out\n        /* \"#utility.yul\":7722:8047   */\n    tag_32:\n        /* \"#utility.yul\":7779:7785   */\n      0x00\n        /* \"#utility.yul\":7828:7830   */\n      0x20\n        /* \"#utility.yul\":7816:7825   */\n      dup3\n        /* \"#utility.yul\":7807:7814   */\n      dup5\n        /* \"#utility.yul\":7803:7826   */\n      sub\n        /* \"#utility.yul\":7799:7831   */\n      slt\n        /* \"#utility.yul\":7796:7915   */\n      iszero\n      tag_278\n      jumpi\n        /* \"#utility.yul\":7834:7913   */\n      tag_279\n      tag_146\n      jump\t// in\n    tag_279:\n        /* \"#utility.yul\":7796:7915   */\n    tag_278:\n        /* \"#utility.yul\":7954:7955   */\n      0x00\n        /* \"#utility.yul\":7979:8030   */\n      tag_280\n        /* \"#utility.yul\":8022:8029   */\n      dup5\n        /* \"#utility.yul\":8013:8019   */\n      dup3\n        /* \"#utility.yul\":8002:8011   */\n      dup6\n        /* \"#utility.yul\":7998:8020   */\n      add\n        /* \"#utility.yul\":7979:8030   */\n      tag_171\n      jump\t// in\n    tag_280:\n        /* \"#utility.yul\":7969:8030   */\n      swap2\n      pop\n        /* \"#utility.yul\":7925:8040   */\n      pop\n        /* \"#utility.yul\":7722:8047   */\n      swap3\n      swap2\n      pop\n      pop\n      jump\t// out\n        /* \"#utility.yul\":8053:8382   */\n    tag_36:\n        /* \"#utility.yul\":8112:8118   */\n      0x00\n        /* \"#utility.yul\":8161:8163   */\n      0x20\n        /* \"#utility.yul\":8149:8158   */\n      dup3\n        /* \"#utility.yul\":8140:8147   */\n      dup5\n        /* \"#utility.yul\":8136:8159   */\n      sub\n        /* \"#utility.yul\":8132:8164   */\n      slt\n        /* \"#utility.yul\":8129:8248   */\n      iszero\n      tag_282\n      jumpi\n        /* \"#utility.yul\":8167:8246   */\n      tag_283\n      tag_146\n      jump\t// in\n    tag_283:\n        /* \"#utility.yul\":8129:8248   */\n    tag_282:\n        /* \"#utility.yul\":8287:8288   */\n      0x00\n        /* \"#utility.yul\":8312:8365   */\n      tag_284\n        /* \"#utility.yul\":8357:8364   */\n      dup5\n        /* \"#utility.yul\":8348:8354   */\n      dup3\n        /* \"#utility.yul\":8337:8346   */\n      dup6\n        /* \"#utility.yul\":8333:8355   */\n      add\n        /* \"#utility.yul\":8312:8365   */\n      tag_158\n      jump\t// in\n    tag_284:\n        /* \"#utility.yul\":8302:8365   */\n      swap2\n      pop\n        /* \"#utility.yul\":8258:8375   */\n      pop\n        /* \"#utility.yul\":8053:8382   */\n      swap3\n      swap2\n      pop\n      pop\n      jump\t// out\n        /* \"#utility.yul\":8388:8497   */\n    tag_172:\n        /* \"#utility.yul\":8469:8490   */\n      tag_286\n        /* \"#utility.yul\":8484:8489   */\n      dup2\n        /* \"#utility.yul\":8469:8490   */\n      tag_165\n      jump\t// in\n    tag_286:\n        /* \"#utility.yul\":8464:8467   */\n      dup3\n        /* \"#utility.yul\":8457:8491   */\n      mstore\n        /* \"#utility.yul\":8388:8497   */\n      pop\n      pop\n      jump\t// out\n        /* \"#utility.yul\":8503:8713   */\n    tag_43:\n        /* \"#utility.yul\":8590:8594   */\n      0x00\n        /* \"#utility.yul\":8628:8630   */\n      0x20\n        /* \"#utility.yul\":8617:8626   */\n      dup3\n        /* \"#utility.yul\":8613:8631   */\n      add\n        /* \"#utility.yul\":8605:8631   */\n      swap1\n      pop\n        /* \"#utility.yul\":8641:8706   */\n      tag_288\n        /* \"#utility.yul\":8703:8704   */\n      0x00\n        /* \"#utility.yul\":8692:8701   */\n      dup4\n        /* \"#utility.yul\":8688:8705   */\n      add\n        /* \"#utility.yul\":8679:8685   */\n      dup5\n        /* \"#utility.yul\":8641:8706   */\n      tag_172\n      jump\t// in\n    tag_288:\n        /* \"#utility.yul\":8503:8713   */\n      swap3\n      swap2\n      pop\n      pop\n      jump\t// out\n        /* \"#utility.yul\":8719:8888   */\n    tag_173:\n        /* \"#utility.yul\":8803:8814   */\n      0x00\n        /* \"#utility.yul\":8837:8843   */\n      dup3\n        /* \"#utility.yul\":8832:8835   */\n      dup3\n        /* \"#utility.yul\":8825:8844   */\n      mstore\n        /* \"#utility.yul\":8877:8881   */\n      0x20\n        /* \"#utility.yul\":8872:8875   */\n      dup3\n        /* \"#utility.yul\":8868:8882   */\n      add\n        /* \"#utility.yul\":8853:8882   */\n      swap1\n      pop\n        /* \"#utility.yul\":8719:8888   */\n      swap3\n      swap2\n      pop\n      pop\n      jump\t// out\n        /* \"#utility.yul\":8894:9122   */\n    tag_174:\n        /* \"#utility.yul\":9034:9068   */\n      0x4f6e6c7920746865206f776e65722063616e20706572666f726d207468697320\n        /* \"#utility.yul\":9030:9031   */\n      0x00\n        /* \"#utility.yul\":9022:9028   */\n      dup3\n        /* \"#utility.yul\":9018:9032   */\n      add\n        /* \"#utility.yul\":9011:9069   */\n      mstore\n        /* \"#utility.yul\":9103:9114   */\n      0x6f7065726174696f6e0000000000000000000000000000000000000000000000\n        /* \"#utility.yul\":9098:9100   */\n      0x20\n        /* \"#utility.yul\":9090:9096   */\n      dup3\n        /* \"#utility.yul\":9086:9101   */\n      add\n        /* \"#utility.yul\":9079:9115   */\n      mstore\n        /* \"#utility.yul\":8894:9122   */\n      pop\n      jump\t// out\n        /* \"#utility.yul\":9128:9494   */\n    tag_175:\n        /* \"#utility.yul\":9270:9273   */\n      0x00\n        /* \"#utility.yul\":9291:9358   */\n      tag_292\n        /* \"#utility.yul\":9355:9357   */\n      0x29\n        /* \"#utility.yul\":9350:9353   */\n      dup4\n        /* \"#utility.yul\":9291:9358   */\n      tag_173\n      jump\t// in\n    tag_292:\n        /* \"#utility.yul\":9284:9358   */\n      swap2\n      pop\n        /* \"#utility.yul\":9367:9460   */\n      tag_293\n        /* \"#utility.yul\":9456:9459   */\n      dup3\n        /* \"#utility.yul\":9367:9460   */\n      tag_174\n      jump\t// in\n    tag_293:\n        /* \"#utility.yul\":9485:9487   */\n      0x40\n        /* \"#utility.yul\":9480:9483   */\n      dup3\n        /* \"#utility.yul\":9476:9488   */\n      add\n        /* \"#utility.yul\":9469:9488   */\n      swap1\n      pop\n        /* \"#utility.yul\":9128:9494   */\n      swap2\n      swap1\n      pop\n      jump\t// out\n        /* \"#utility.yul\":9500:9919   */\n    tag_47:\n        /* \"#utility.yul\":9666:9670   */\n      0x00\n        /* \"#utility.yul\":9704:9706   */\n      0x20\n        /* \"#utility.yul\":9693:9702   */\n      dup3\n        /* \"#utility.yul\":9689:9707   */\n      add\n        /* \"#utility.yul\":9681:9707   */\n      swap1\n      pop\n        /* \"#utility.yul\":9753:9762   */\n      dup2\n        /* \"#utility.yul\":9747:9751   */\n      dup2\n        /* \"#utility.yul\":9743:9763   */\n      sub\n        /* \"#utility.yul\":9739:9740   */\n      0x00\n        /* \"#utility.yul\":9728:9737   */\n      dup4\n        /* \"#utility.yul\":9724:9741   */\n      add\n        /* \"#utility.yul\":9717:9764   */\n      mstore\n        /* \"#utility.yul\":9781:9912   */\n      tag_295\n        /* \"#utility.yul\":9907:9911   */\n      dup2\n        /* \"#utility.yul\":9781:9912   */\n      tag_175\n      jump\t// in\n    tag_295:\n        /* \"#utility.yul\":9773:9912   */\n      swap1\n      pop\n        /* \"#utility.yul\":9500:9919   */\n      swap2\n      swap1\n      pop\n      jump\t// out\n        /* \"#utility.yul\":9925:10105   */\n    tag_176:\n        /* \"#utility.yul\":9973:10050   */\n      0x4e487b7100000000000000000000000000000000000000000000000000000000\n        /* \"#utility.yul\":9970:9971   */\n      0x00\n        /* \"#utility.yul\":9963:10051   */\n      mstore\n        /* \"#utility.yul\":10070:10074   */\n      0x11\n        /* \"#utility.yul\":10067:10068   */\n      0x04\n        /* \"#utility.yul\":10060:10075   */\n      mstore\n        /* \"#utility.yul\":10094:10098   */\n      0x24\n        /* \"#utility.yul\":10091:10092   */\n      0x00\n        /* \"#utility.yul\":10084:10099   */\n      revert\n        /* \"#utility.yul\":10111:10344   */\n    tag_54:\n        /* \"#utility.yul\":10150:10153   */\n      0x00\n        /* \"#utility.yul\":10173:10197   */\n      tag_298\n        /* \"#utility.yul\":10191:10196   */\n      dup3\n        /* \"#utility.yul\":10173:10197   */\n      tag_156\n      jump\t// in\n    tag_298:\n        /* \"#utility.yul\":10164:10197   */\n      swap2\n      pop\n        /* \"#utility.yul\":10219:10285   */\n      0xffffffffffffffffffffffffffffffffffffffffffffffffffffffffffffffff\n        /* \"#utility.yul\":10212:10217   */\n      dup3\n        /* \"#utility.yul\":10209:10286   */\n      sub\n        /* \"#utility.yul\":10206:10309   */\n      tag_299\n      jumpi\n        /* \"#utility.yul\":10289:10307   */\n      tag_300\n      tag_176\n      jump\t// in\n    tag_300:\n        /* \"#utility.yul\":10206:10309   */\n    tag_299:\n        /* \"#utility.yul\":10336:10337   */\n      0x01\n        /* \"#utility.yul\":10329:10334   */\n      dup3\n        /* \"#utility.yul\":10325:10338   */\n      add\n        /* \"#utility.yul\":10318:10338   */\n      swap1\n      pop\n        /* \"#utility.yul\":10111:10344   */\n      swap2\n      swap1\n      pop\n      jump\t// out\n        /* \"#utility.yul\":10350:10530   */\n    tag_177:\n        /* \"#utility.yul\":10398:10475   */\n      0x4e487b7100000000000000000000000000000000000000000000000000000000\n        /* \"#utility.yul\":10395:10396   */\n      0x00\n        /* \"#utility.yul\":10388:10476   */\n      mstore\n        /* \"#utility.yul\":10495:10499   */\n      0x41\n        /* \"#utility.yul\":10492:10493   */\n      0x04\n        /* \"#utility.yul\":10485:10500   */\n      mstore\n        /* \"#utility.yul\":10519:10523   */\n      0x24\n        /* \"#utility.yul\":10516:10517   */\n      0x00\n        /* \"#utility.yul\":10509:10524   */\n      revert\n        /* \"#utility.yul\":10536:10716   */\n    tag_178:\n        /* \"#utility.yul\":10584:10661   */\n      0x4e487b7100000000000000000000000000000000000000000000000000000000\n        /* \"#utility.yul\":10581:10582   */\n      0x00\n        /* \"#utility.yul\":10574:10662   */\n      mstore\n        /* \"#utility.yul\":10681:10685   */\n      0x22\n        /* \"#utility.yul\":10678:10679   */\n      0x04\n        /* \"#utility.yul\":10671:10686   */\n      mstore\n        /* \"#utility.yul\":10705:10709   */\n      0x24\n        /* \"#utility.yul\":10702:10703   */\n      0x00\n        /* \"#utility.yul\":10695:10710   */\n      revert\n        /* \"#utility.yul\":10722:11042   */\n    tag_62:\n        /* \"#utility.yul\":10766:10772   */\n      0x00\n        /* \"#utility.yul\":10803:10804   */\n      0x02\n        /* \"#utility.yul\":10797:10801   */\n      dup3\n        /* \"#utility.yul\":10793:10805   */\n      div\n        /* \"#utility.yul\":10783:10805   */\n      swap1\n      pop\n        /* \"#utility.yul\":10850:10851   */\n      0x01\n        /* \"#utility.yul\":10844:10848   */\n      dup3\n        /* \"#utility.yul\":10840:10852   */\n      and\n        /* \"#utility.yul\":10871:10889   */\n      dup1\n        /* \"#utility.yul\":10861:10942   */\n      tag_304\n      jumpi\n        /* \"#utility.yul\":10927:10931   */\n      0x7f\n        /* \"#utility.yul\":10919:10925   */\n      dup3\n        /* \"#utility.yul\":10915:10932   */\n      and\n        /* \"#utility.yul\":10905:10932   */\n      swap2\n      pop\n        /* \"#utility.yul\":10861:10942   */\n    tag_304:\n        /* \"#utility.yul\":10989:10991   */\n      0x20\n        /* \"#utility.yul\":10981:10987   */\n      dup3\n        /* \"#utility.yul\":10978:10992   */\n      lt\n        /* \"#utility.yul\":10958:10976   */\n      dup2\n        /* \"#utility.yul\":10955:10993   */\n      sub\n        /* \"#utility.yul\":10952:11036   */\n      tag_305\n      jumpi\n        /* \"#utility.yul\":11008:11026   */\n      tag_306\n      tag_178\n      jump\t// in\n    tag_306:\n        /* \"#utility.yul\":10952:11036   */\n    tag_305:\n        /* \"#utility.yul\":10773:11042   */\n      pop\n        /* \"#utility.yul\":10722:11042   */\n      swap2\n      swap1\n      pop\n      jump\t// out\n        /* \"#utility.yul\":11048:11189   */\n    tag_179:\n        /* \"#utility.yul\":11097:11101   */\n      0x00\n        /* \"#utility.yul\":11120:11123   */\n      dup2\n        /* \"#utility.yul\":11112:11123   */\n      swap1\n      pop\n        /* \"#utility.yul\":11143:11146   */\n      dup2\n        /* \"#utility.yul\":11140:11141   */\n      0x00\n        /* \"#utility.yul\":11133:11147   */\n      mstore\n        /* \"#utility.yul\":11177:11181   */\n      0x20\n        /* \"#utility.yul\":11174:11175   */\n      0x00\n        /* \"#utility.yul\":11164:11182   */\n      keccak256\n        /* \"#utility.yul\":11156:11182   */\n      swap1\n      pop\n        /* \"#utility.yul\":11048:11189   */\n      swap2\n      swap1\n      pop\n      jump\t// out\n        /* \"#utility.yul\":11195:11288   */\n    tag_180:\n        /* \"#utility.yul\":11232:11238   */\n      0x00\n        /* \"#utility.yul\":11279:11281   */\n      0x20\n        /* \"#utility.yul\":11274:11276   */\n      0x1f\n        /* \"#utility.yul\":11267:11272   */\n      dup4\n        /* \"#utility.yul\":11263:11277   */\n      add\n        /* \"#utility.yul\":11259:11282   */\n      div\n        /* \"#utility.yul\":11249:11282   */\n      swap1\n      pop\n        /* \"#utility.yul\":11195:11288   */\n      swap2\n      swap1\n      pop\n      jump\t// out\n        /* \"#utility.yul\":11294:11401   */\n    tag_181:\n        /* \"#utility.yul\":11338:11346   */\n      0x00\n        /* \"#utility.yul\":11388:11393   */\n      dup3\n        /* \"#utility.yul\":11382:11386   */\n      dup3\n        /* \"#utility.yul\":11378:11394   */\n      shl\n        /* \"#utility.yul\":11357:11394   */\n      swap1\n      pop\n        /* \"#utility.yul\":11294:11401   */\n      swap3\n      swap2\n      pop\n      pop\n      jump\t// out\n        /* \"#utility.yul\":11407:11800   */\n    tag_182:\n        /* \"#utility.yul\":11476:11482   */\n      0x00\n        /* \"#utility.yul\":11526:11527   */\n      0x08\n        /* \"#utility.yul\":11514:11524   */\n      dup4\n        /* \"#utility.yul\":11510:11528   */\n      mul\n        /* \"#utility.yul\":11549:11646   */\n      tag_311\n        /* \"#utility.yul\":11579:11645   */\n      0xffffffffffffffffffffffffffffffffffffffffffffffffffffffffffffffff\n        /* \"#utility.yul\":11568:11577   */\n      dup3\n        /* \"#utility.yul\":11549:11646   */\n      tag_181\n      jump\t// in\n    tag_311:\n        /* \"#utility.yul\":11667:11706   */\n      tag_312\n        /* \"#utility.yul\":11697:11705   */\n      dup7\n        /* \"#utility.yul\":11686:11695   */\n      dup4\n        /* \"#utility.yul\":11667:11706   */\n      tag_181\n      jump\t// in\n    tag_312:\n        /* \"#utility.yul\":11655:11706   */\n      swap6\n      pop\n        /* \"#utility.yul\":11739:11743   */\n      dup1\n        /* \"#utility.yul\":11735:11744   */\n      not\n        /* \"#utility.yul\":11728:11733   */\n      dup5\n        /* \"#utility.yul\":11724:11745   */\n      and\n        /* \"#utility.yul\":11715:11745   */\n      swap4\n      pop\n        /* \"#utility.yul\":11788:11792   */\n      dup1\n        /* \"#utility.yul\":11778:11786   */\n      dup7\n        /* \"#utility.yul\":11774:11793   */\n      and\n        /* \"#utility.yul\":11767:11772   */\n      dup5\n        /* \"#utility.yul\":11764:11794   */\n      or\n        /* \"#utility.yul\":11754:11794   */\n      swap3\n      pop\n        /* \"#utility.yul\":11483:11800   */\n      pop\n      pop\n        /* \"#utility.yul\":11407:11800   */\n      swap4\n      swap3\n      pop\n      pop\n      pop\n      jump\t// out\n        /* \"#utility.yul\":11806:11866   */\n    tag_183:\n        /* \"#utility.yul\":11834:11837   */\n      0x00\n        /* \"#utility.yul\":11855:11860   */\n      dup2\n        /* \"#utility.yul\":11848:11860   */\n      swap1\n      pop\n        /* \"#utility.yul\":11806:11866   */\n      swap2\n      swap1\n      pop\n      jump\t// out\n        /* \"#utility.yul\":11872:12014   */\n    tag_184:\n        /* \"#utility.yul\":11922:11931   */\n      0x00\n        /* \"#utility.yul\":11955:12008   */\n      tag_315\n        /* \"#utility.yul\":11973:12007   */\n      tag_316\n        /* \"#utility.yul\":11982:12006   */\n      tag_317\n        /* \"#utility.yul\":12000:12005   */\n      dup5\n        /* \"#utility.yul\":11982:12006   */\n      tag_156\n      jump\t// in\n    tag_317:\n        /* \"#utility.yul\":11973:12007   */\n      tag_183\n      jump\t// in\n    tag_316:\n        /* \"#utility.yul\":11955:12008   */\n      tag_156\n      jump\t// in\n    tag_315:\n        /* \"#utility.yul\":11942:12008   */\n      swap1\n      pop\n        /* \"#utility.yul\":11872:12014   */\n      swap2\n      swap1\n      pop\n      jump\t// out\n        /* \"#utility.yul\":12020:12095   */\n    tag_185:\n        /* \"#utility.yul\":12063:12066   */\n      0x00\n        /* \"#utility.yul\":12084:12089   */\n      dup2\n        /* \"#utility.yul\":12077:12089   */\n      swap1\n      pop\n        /* \"#utility.yul\":12020:12095   */\n      swap2\n      swap1\n      pop\n      jump\t// out\n        /* \"#utility.yul\":12101:12370   */\n    tag_186:\n        /* \"#utility.yul\":12211:12250   */\n      tag_320\n        /* \"#utility.yul\":12242:12249   */\n      dup4\n        /* \"#utility.yul\":12211:12250   */\n      tag_184\n      jump\t// in\n    tag_320:\n        /* \"#utility.yul\":12272:12363   */\n      tag_321\n        /* \"#utility.yul\":12321:12362   */\n      tag_322\n        /* \"#utility.yul\":12345:12361   */\n      dup3\n        /* \"#utility.yul\":12321:12362   */\n      tag_185\n      jump\t// in\n    tag_322:\n        /* \"#utility.yul\":12313:12319   */\n      dup5\n        /* \"#utility.yul\":12306:12310   */\n      dup5\n        /* \"#utility.yul\":12300:12311   */\n      sload\n        /* \"#utility.yul\":12272:12363   */\n      tag_182\n      jump\t// in\n    tag_321:\n        /* \"#utility.yul\":12266:12270   */\n      dup3\n        /* \"#utility.yul\":12259:12364   */\n      sstore\n        /* \"#utility.yul\":12177:12370   */\n      pop\n        /* \"#utility.yul\":12101:12370   */\n      pop\n      pop\n      pop\n      jump\t// out\n        /* \"#utility.yul\":12376:12449   */\n    tag_187:\n        /* \"#utility.yul\":12421:12424   */\n      0x00\n        /* \"#utility.yul\":12376:12449   */\n      swap1\n      jump\t// out\n        /* \"#utility.yul\":12455:12644   */\n    tag_188:\n        /* \"#utility.yul\":12532:12564   */\n      tag_325\n      tag_187\n      jump\t// in\n    tag_325:\n        /* \"#utility.yul\":12573:12638   */\n      tag_326\n        /* \"#utility.yul\":12631:12637   */\n      dup2\n        /* \"#utility.yul\":12623:12629   */\n      dup5\n        /* \"#utility.yul\":12617:12621   */\n      dup5\n        /* \"#utility.yul\":12573:12638   */\n      tag_186\n      jump\t// in\n    tag_326:\n        /* \"#utility.yul\":12508:12644   */\n      pop\n        /* \"#utility.yul\":12455:12644   */\n      pop\n      pop\n      jump\t// out\n        /* \"#utility.yul\":12650:12836   */\n    tag_189:\n        /* \"#utility.yul\":12710:12830   */\n    tag_328:\n        /* \"#utility.yul\":12727:12730   */\n      dup2\n        /* \"#utility.yul\":12720:12725   */\n      dup2\n        /* \"#utility.yul\":12717:12731   */\n      lt\n        /* \"#utility.yul\":12710:12830   */\n      iszero\n      tag_330\n      jumpi\n        /* \"#utility.yul\":12781:12820   */\n      tag_331\n        /* \"#utility.yul\":12818:12819   */\n      0x00\n        /* \"#utility.yul\":12811:12816   */\n      dup3\n        /* \"#utility.yul\":12781:12820   */\n      tag_188\n      jump\t// in\n    tag_331:\n        /* \"#utility.yul\":12754:12755   */\n      0x01\n        /* \"#utility.yul\":12747:12752   */\n      dup2\n        /* \"#utility.yul\":12743:12756   */\n      add\n        /* \"#utility.yul\":12734:12756   */\n      swap1\n      pop\n        /* \"#utility.yul\":12710:12830   */\n      jump(tag_328)\n    tag_330:\n        /* \"#utility.yul\":12650:12836   */\n      pop\n      pop\n      jump\t// out\n        /* \"#utility.yul\":12842:13385   */\n    tag_190:\n        /* \"#utility.yul\":12943:12945   */\n      0x1f\n        /* \"#utility.yul\":12938:12941   */\n      dup3\n        /* \"#utility.yul\":12935:12946   */\n      gt\n        /* \"#utility.yul\":12932:13378   */\n      iszero\n      tag_333\n      jumpi\n        /* \"#utility.yul\":12977:13015   */\n      tag_334\n        /* \"#utility.yul\":13009:13014   */\n      dup2\n        /* \"#utility.yul\":12977:13015   */\n      tag_179\n      jump\t// in\n    tag_334:\n        /* \"#utility.yul\":13061:13090   */\n      tag_335\n        /* \"#utility.yul\":13079:13089   */\n      dup5\n        /* \"#utility.yul\":13061:13090   */\n      tag_180\n      jump\t// in\n    tag_335:\n        /* \"#utility.yul\":13051:13059   */\n      dup2\n        /* \"#utility.yul\":13047:13091   */\n      add\n        /* \"#utility.yul\":13244:13246   */\n      0x20\n        /* \"#utility.yul\":13232:13242   */\n      dup6\n        /* \"#utility.yul\":13229:13247   */\n      lt\n        /* \"#utility.yul\":13226:13275   */\n      iszero\n      tag_336\n      jumpi\n        /* \"#utility.yul\":13265:13273   */\n      dup2\n        /* \"#utility.yul\":13250:13273   */\n      swap1\n      pop\n        /* \"#utility.yul\":13226:13275   */\n    tag_336:\n        /* \"#utility.yul\":13288:13368   */\n      tag_337\n        /* \"#utility.yul\":13344:13366   */\n      tag_338\n        /* \"#utility.yul\":13362:13365   */\n      dup6\n        /* \"#utility.yul\":13344:13366   */\n      tag_180\n      jump\t// in\n    tag_338:\n        /* \"#utility.yul\":13334:13342   */\n      dup4\n        /* \"#utility.yul\":13330:13367   */\n      add\n        /* \"#utility.yul\":13317:13328   */\n      dup3\n        /* \"#utility.yul\":13288:13368   */\n      tag_189\n      jump\t// in\n    tag_337:\n        /* \"#utility.yul\":12947:13378   */\n      pop\n      pop\n        /* \"#utility.yul\":12932:13378   */\n    tag_333:\n        /* \"#utility.yul\":12842:13385   */\n      pop\n      pop\n      pop\n      jump\t// out\n        /* \"#utility.yul\":13391:13508   */\n    tag_191:\n        /* \"#utility.yul\":13445:13453   */\n      0x00\n        /* \"#utility.yul\":13495:13500   */\n      dup3\n        /* \"#utility.yul\":13489:13493   */\n      dup3\n        /* \"#utility.yul\":13485:13501   */\n      shr\n        /* \"#utility.yul\":13464:13501   */\n      swap1\n      pop\n        /* \"#utility.yul\":13391:13508   */\n      swap3\n      swap2\n      pop\n      pop\n      jump\t// out\n        /* \"#utility.yul\":13514:13683   */\n    tag_192:\n        /* \"#utility.yul\":13558:13564   */\n      0x00\n        /* \"#utility.yul\":13591:13642   */\n      tag_341\n        /* \"#utility.yul\":13639:13640   */\n      0x00\n        /* \"#utility.yul\":13635:13641   */\n      not\n        /* \"#utility.yul\":13627:13632   */\n      dup5\n        /* \"#utility.yul\":13624:13625   */\n      0x08\n        /* \"#utility.yul\":13620:13633   */\n      mul\n        /* \"#utility.yul\":13591:13642   */\n      tag_191\n      jump\t// in\n    tag_341:\n        /* \"#utility.yul\":13587:13643   */\n      not\n        /* \"#utility.yul\":13672:13676   */\n      dup1\n        /* \"#utility.yul\":13666:13670   */\n      dup4\n        /* \"#utility.yul\":13662:13677   */\n      and\n        /* \"#utility.yul\":13652:13677   */\n      swap2\n      pop\n        /* \"#utility.yul\":13565:13683   */\n      pop\n        /* \"#utility.yul\":13514:13683   */\n      swap3\n      swap2\n      pop\n      pop\n      jump\t// out\n        /* \"#utility.yul\":13688:13983   */\n    tag_193:\n        /* \"#utility.yul\":13764:13768   */\n      0x00\n        /* \"#utility.yul\":13910:13939   */\n      tag_343\n        /* \"#utility.yul\":13935:13938   */\n      dup4\n        /* \"#utility.yul\":13929:13933   */\n      dup4\n        /* \"#utility.yul\":13910:13939   */\n      tag_192\n      jump\t// in\n    tag_343:\n        /* \"#utility.yul\":13902:13939   */\n      swap2\n      pop\n        /* \"#utility.yul\":13972:13975   */\n      dup3\n        /* \"#utility.yul\":13969:13970   */\n      0x02\n        /* \"#utility.yul\":13965:13976   */\n      mul\n        /* \"#utility.yul\":13959:13963   */\n      dup3\n        /* \"#utility.yul\":13956:13977   */\n      or\n        /* \"#utility.yul\":13948:13977   */\n      swap1\n      pop\n        /* \"#utility.yul\":13688:13983   */\n      swap3\n      swap2\n      pop\n      pop\n      jump\t// out\n        /* \"#utility.yul\":13988:15383   */\n    tag_56:\n        /* \"#utility.yul\":14105:14142   */\n      tag_345\n        /* \"#utility.yul\":14138:14141   */\n      dup3\n        /* \"#utility.yul\":14105:14142   */\n      tag_159\n      jump\t// in\n    tag_345:\n        /* \"#utility.yul\":14207:14225   */\n      0xffffffffffffffff\n        /* \"#utility.yul\":14199:14205   */\n      dup2\n        /* \"#utility.yul\":14196:14226   */\n      gt\n        /* \"#utility.yul\":14193:14249   */\n      iszero\n      tag_346\n      jumpi\n        /* \"#utility.yul\":14229:14247   */\n      tag_347\n      tag_177\n      jump\t// in\n    tag_347:\n        /* \"#utility.yul\":14193:14249   */\n    tag_346:\n        /* \"#utility.yul\":14273:14311   */\n      tag_348\n        /* \"#utility.yul\":14305:14309   */\n      dup3\n        /* \"#utility.yul\":14299:14310   */\n      sload\n        /* \"#utility.yul\":14273:14311   */\n      tag_62\n      jump\t// in\n    tag_348:\n        /* \"#utility.yul\":14358:14425   */\n      tag_349\n        /* \"#utility.yul\":14418:14424   */\n      dup3\n        /* \"#utility.yul\":14410:14416   */\n      dup3\n        /* \"#utility.yul\":14404:14408   */\n      dup6\n        /* \"#utility.yul\":14358:14425   */\n      tag_190\n      jump\t// in\n    tag_349:\n        /* \"#utility.yul\":14452:14453   */\n      0x00\n        /* \"#utility.yul\":14476:14480   */\n      0x20\n        /* \"#utility.yul\":14463:14480   */\n      swap1\n      pop\n        /* \"#utility.yul\":14508:14510   */\n      0x1f\n        /* \"#utility.yul\":14500:14506   */\n      dup4\n        /* \"#utility.yul\":14497:14511   */\n      gt\n        /* \"#utility.yul\":14525:14526   */\n      0x01\n        /* \"#utility.yul\":14520:15138   */\n      dup2\n      eq\n      tag_351\n      jumpi\n        /* \"#utility.yul\":15182:15183   */\n      0x00\n        /* \"#utility.yul\":15199:15205   */\n      dup5\n        /* \"#utility.yul\":15196:15273   */\n      iszero\n      tag_352\n      jumpi\n        /* \"#utility.yul\":15248:15257   */\n      dup3\n        /* \"#utility.yul\":15243:15246   */\n      dup8\n        /* \"#utility.yul\":15239:15258   */\n      add\n        /* \"#utility.yul\":15233:15259   */\n      mload\n        /* \"#utility.yul\":15224:15259   */\n      swap1\n      pop\n        /* \"#utility.yul\":15196:15273   */\n    tag_352:\n        /* \"#utility.yul\":15299:15366   */\n      tag_353\n        /* \"#utility.yul\":15359:15365   */\n      dup6\n        /* \"#utility.yul\":15352:15357   */\n      dup3\n        /* \"#utility.yul\":15299:15366   */\n      tag_193\n      jump\t// in\n    tag_353:\n        /* \"#utility.yul\":15293:15297   */\n      dup7\n        /* \"#utility.yul\":15286:15367   */\n      sstore\n        /* \"#utility.yul\":15155:15377   */\n      pop\n        /* \"#utility.yul\":14490:15377   */\n      jump(tag_350)\n        /* \"#utility.yul\":14520:15138   */\n    tag_351:\n        /* \"#utility.yul\":14572:14576   */\n      0x1f\n        /* \"#utility.yul\":14568:14577   */\n      not\n        /* \"#utility.yul\":14560:14566   */\n      dup5\n        /* \"#utility.yul\":14556:14578   */\n      and\n        /* \"#utility.yul\":14606:14643   */\n      tag_354\n        /* \"#utility.yul\":14638:14642   */\n      dup7\n        /* \"#utility.yul\":14606:14643   */\n      tag_179\n      jump\t// in\n    tag_354:\n        /* \"#utility.yul\":14665:14666   */\n      0x00\n        /* \"#utility.yul\":14679:14887   */\n    tag_355:\n        /* \"#utility.yul\":14693:14700   */\n      dup3\n        /* \"#utility.yul\":14690:14691   */\n      dup2\n        /* \"#utility.yul\":14687:14701   */\n      lt\n        /* \"#utility.yul\":14679:14887   */\n      iszero\n      tag_357\n      jumpi\n        /* \"#utility.yul\":14772:14781   */\n      dup5\n        /* \"#utility.yul\":14767:14770   */\n      dup10\n        /* \"#utility.yul\":14763:14782   */\n      add\n        /* \"#utility.yul\":14757:14783   */\n      mload\n        /* \"#utility.yul\":14749:14755   */\n      dup3\n        /* \"#utility.yul\":14742:14784   */\n      sstore\n        /* \"#utility.yul\":14823:14824   */\n      0x01\n        /* \"#utility.yul\":14815:14821   */\n      dup3\n        /* \"#utility.yul\":14811:14825   */\n      add\n        /* \"#utility.yul\":14801:14825   */\n      swap2\n      pop\n        /* \"#utility.yul\":14870:14872   */\n      0x20\n        /* \"#utility.yul\":14859:14868   */\n      dup6\n        /* \"#utility.yul\":14855:14873   */\n      add\n        /* \"#utility.yul\":14842:14873   */\n      swap5\n      pop\n        /* \"#utility.yul\":14716:14720   */\n      0x20\n        /* \"#utility.yul\":14713:14714   */\n      dup2\n        /* \"#utility.yul\":14709:14721   */\n      add\n        /* \"#utility.yul\":14704:14721   */\n      swap1\n      pop\n        /* \"#utility.yul\":14679:14887   */\n      jump(tag_355)\n    tag_357:\n        /* \"#utility.yul\":14915:14921   */\n      dup7\n        /* \"#utility.yul\":14906:14913   */\n      dup4\n        /* \"#utility.yul\":14903:14922   */\n      lt\n        /* \"#utility.yul\":14900:15079   */\n      iszero\n      tag_358\n      jumpi\n        /* \"#utility.yul\":14973:14982   */\n      dup5\n        /* \"#utility.yul\":14968:14971   */\n      dup10\n        /* \"#utility.yul\":14964:14983   */\n      add\n        /* \"#utility.yul\":14958:14984   */\n      mload\n        /* \"#utility.yul\":15016:15064   */\n      tag_359\n        /* \"#utility.yul\":15058:15062   */\n      0x1f\n        /* \"#utility.yul\":15050:15056   */\n      dup10\n        /* \"#utility.yul\":15046:15063   */\n      and\n        /* \"#utility.yul\":15035:15044   */\n      dup3\n        /* \"#utility.yul\":15016:15064   */\n      tag_192\n      jump\t// in\n    tag_359:\n        /* \"#utility.yul\":15008:15014   */\n      dup4\n        /* \"#utility.yul\":15001:15065   */\n      sstore\n        /* \"#utility.yul\":14923:15079   */\n      pop\n        /* \"#utility.yul\":14900:15079   */\n    tag_358:\n        /* \"#utility.yul\":15125:15126   */\n      0x01\n        /* \"#utility.yul\":15121:15122   */\n      0x02\n        /* \"#utility.yul\":15113:15119   */\n      dup9\n        /* \"#utility.yul\":15109:15123   */\n      mul\n        /* \"#utility.yul\":15105:15127   */\n      add\n        /* \"#utility.yul\":15099:15103   */\n      dup9\n        /* \"#utility.yul\":15092:15128   */\n      sstore\n        /* \"#utility.yul\":14527:15138   */\n      pop\n      pop\n      pop\n        /* \"#utility.yul\":14490:15377   */\n    tag_350:\n      pop\n        /* \"#utility.yul\":14080:15383   */\n      pop\n      pop\n      pop\n        /* \"#utility.yul\":13988:15383   */\n      pop\n      pop\n      jump\t// out\n        /* \"#utility.yul\":15389:15565   */\n    tag_194:\n        /* \"#utility.yul\":15529:15557   */\n      0x5468652070726f706f73616c206973206e6f7420616374697665000000000000\n        /* \"#utility.yul\":15525:15526   */\n      0x00\n        /* \"#utility.yul\":15517:15523   */\n      dup3\n        /* \"#utility.yul\":15513:15527   */\n      add\n        /* \"#utility.yul\":15506:15558   */\n      mstore\n        /* \"#utility.yul\":15389:15565   */\n      pop\n      jump\t// out\n        /* \"#utility.yul\":15571:15937   */\n    tag_195:\n        /* \"#utility.yul\":15713:15716   */\n      0x00\n        /* \"#utility.yul\":15734:15801   */\n      tag_362\n        /* \"#utility.yul\":15798:15800   */\n      0x1a\n        /* \"#utility.yul\":15793:15796   */\n      dup4\n        /* \"#utility.yul\":15734:15801   */\n      tag_173\n      jump\t// in\n    tag_362:\n        /* \"#utility.yul\":15727:15801   */\n      swap2\n      pop\n        /* \"#utility.yul\":15810:15903   */\n      tag_363\n        /* \"#utility.yul\":15899:15902   */\n      dup3\n        /* \"#utility.yul\":15810:15903   */\n      tag_194\n      jump\t// in\n    tag_363:\n        /* \"#utility.yul\":15928:15930   */\n      0x20\n        /* \"#utility.yul\":15923:15926   */\n      dup3\n        /* \"#utility.yul\":15919:15931   */\n      add\n        /* \"#utility.yul\":15912:15931   */\n      swap1\n      pop\n        /* \"#utility.yul\":15571:15937   */\n      swap2\n      swap1\n      pop\n      jump\t// out\n        /* \"#utility.yul\":15943:16362   */\n    tag_78:\n        /* \"#utility.yul\":16109:16113   */\n      0x00\n        /* \"#utility.yul\":16147:16149   */\n      0x20\n        /* \"#utility.yul\":16136:16145   */\n      dup3\n        /* \"#utility.yul\":16132:16150   */\n      add\n        /* \"#utility.yul\":16124:16150   */\n      swap1\n      pop\n        /* \"#utility.yul\":16196:16205   */\n      dup2\n        /* \"#utility.yul\":16190:16194   */\n      dup2\n        /* \"#utility.yul\":16186:16206   */\n      sub\n        /* \"#utility.yul\":16182:16183   */\n      0x00\n        /* \"#utility.yul\":16171:16180   */\n      dup4\n        /* \"#utility.yul\":16167:16184   */\n      add\n        /* \"#utility.yul\":16160:16207   */\n      mstore\n        /* \"#utility.yul\":16224:16355   */\n      tag_365\n        /* \"#utility.yul\":16350:16354   */\n      dup2\n        /* \"#utility.yul\":16224:16355   */\n      tag_195\n      jump\t// in\n    tag_365:\n        /* \"#utility.yul\":16216:16355   */\n      swap1\n      pop\n        /* \"#utility.yul\":15943:16362   */\n      swap2\n      swap1\n      pop\n      jump\t// out\n        /* \"#utility.yul\":16368:16559   */\n    tag_82:\n        /* \"#utility.yul\":16408:16411   */\n      0x00\n        /* \"#utility.yul\":16427:16447   */\n      tag_367\n        /* \"#utility.yul\":16445:16446   */\n      dup3\n        /* \"#utility.yul\":16427:16447   */\n      tag_156\n      jump\t// in\n    tag_367:\n        /* \"#utility.yul\":16422:16447   */\n      swap2\n      pop\n        /* \"#utility.yul\":16461:16481   */\n      tag_368\n        /* \"#utility.yul\":16479:16480   */\n      dup4\n        /* \"#utility.yul\":16461:16481   */\n      tag_156\n      jump\t// in\n    tag_368:\n        /* \"#utility.yul\":16456:16481   */\n      swap3\n      pop\n        /* \"#utility.yul\":16504:16505   */\n      dup3\n        /* \"#utility.yul\":16501:16502   */\n      dup3\n        /* \"#utility.yul\":16497:16506   */\n      add\n        /* \"#utility.yul\":16490:16506   */\n      swap1\n      pop\n        /* \"#utility.yul\":16525:16528   */\n      dup1\n        /* \"#utility.yul\":16522:16523   */\n      dup3\n        /* \"#utility.yul\":16519:16529   */\n      gt\n        /* \"#utility.yul\":16516:16552   */\n      iszero\n      tag_369\n      jumpi\n        /* \"#utility.yul\":16532:16550   */\n      tag_370\n      tag_176\n      jump\t// in\n    tag_370:\n        /* \"#utility.yul\":16516:16552   */\n    tag_369:\n        /* \"#utility.yul\":16368:16559   */\n      swap3\n      swap2\n      pop\n      pop\n      jump\t// out\n        /* \"#utility.yul\":16565:16759   */\n    tag_98:\n        /* \"#utility.yul\":16605:16609   */\n      0x00\n        /* \"#utility.yul\":16625:16645   */\n      tag_372\n        /* \"#utility.yul\":16643:16644   */\n      dup3\n        /* \"#utility.yul\":16625:16645   */\n      tag_156\n      jump\t// in\n    tag_372:\n        /* \"#utility.yul\":16620:16645   */\n      swap2\n      pop\n        /* \"#utility.yul\":16659:16679   */\n      tag_373\n        /* \"#utility.yul\":16677:16678   */\n      dup4\n        /* \"#utility.yul\":16659:16679   */\n      tag_156\n      jump\t// in\n    tag_373:\n        /* \"#utility.yul\":16654:16679   */\n      swap3\n      pop\n        /* \"#utility.yul\":16703:16704   */\n      dup3\n        /* \"#utility.yul\":16700:16701   */\n      dup3\n        /* \"#utility.yul\":16696:16705   */\n      sub\n        /* \"#utility.yul\":16688:16705   */\n      swap1\n      pop\n        /* \"#utility.yul\":16727:16728   */\n      dup2\n        /* \"#utility.yul\":16721:16725   */\n      dup2\n        /* \"#utility.yul\":16718:16729   */\n      gt\n        /* \"#utility.yul\":16715:16752   */\n      iszero\n      tag_374\n      jumpi\n        /* \"#utility.yul\":16732:16750   */\n      tag_375\n      tag_176\n      jump\t// in\n    tag_375:\n        /* \"#utility.yul\":16715:16752   */\n    tag_374:\n        /* \"#utility.yul\":16565:16759   */\n      swap3\n      swap2\n      pop\n      pop\n      jump\t// out\n        /* \"#utility.yul\":16765:16945   */\n    tag_123:\n        /* \"#utility.yul\":16813:16890   */\n      0x4e487b7100000000000000000000000000000000000000000000000000000000\n        /* \"#utility.yul\":16810:16811   */\n      0x00\n        /* \"#utility.yul\":16803:16891   */\n      mstore\n        /* \"#utility.yul\":16910:16914   */\n      0x32\n        /* \"#utility.yul\":16907:16908   */\n      0x04\n        /* \"#utility.yul\":16900:16915   */\n      mstore\n        /* \"#utility.yul\":16934:16938   */\n      0x24\n        /* \"#utility.yul\":16931:16932   */\n      0x00\n        /* \"#utility.yul\":16924:16939   */\n      revert\n        /* \"#utility.yul\":16951:17131   */\n    tag_196:\n        /* \"#utility.yul\":16999:17076   */\n      0x4e487b7100000000000000000000000000000000000000000000000000000000\n        /* \"#utility.yul\":16996:16997   */\n      0x00\n        /* \"#utility.yul\":16989:17077   */\n      mstore\n        /* \"#utility.yul\":17096:17100   */\n      0x12\n        /* \"#utility.yul\":17093:17094   */\n      0x04\n        /* \"#utility.yul\":17086:17101   */\n      mstore\n        /* \"#utility.yul\":17120:17124   */\n      0x24\n        /* \"#utility.yul\":17117:17118   */\n      0x00\n        /* \"#utility.yul\":17110:17125   */\n      revert\n        /* \"#utility.yul\":17137:17322   */\n    tag_130:\n        /* \"#utility.yul\":17177:17178   */\n      0x00\n        /* \"#utility.yul\":17194:17214   */\n      tag_379\n        /* \"#utility.yul\":17212:17213   */\n      dup3\n        /* \"#utility.yul\":17194:17214   */\n      tag_156\n      jump\t// in\n    tag_379:\n        /* \"#utility.yul\":17189:17214   */\n      swap2\n      pop\n        /* \"#utility.yul\":17228:17248   */\n      tag_380\n        /* \"#utility.yul\":17246:17247   */\n      dup4\n        /* \"#utility.yul\":17228:17248   */\n      tag_156\n      jump\t// in\n    tag_380:\n        /* \"#utility.yul\":17223:17248   */\n      swap3\n      pop\n        /* \"#utility.yul\":17267:17268   */\n      dup3\n        /* \"#utility.yul\":17257:17292   */\n      tag_381\n      jumpi\n        /* \"#utility.yul\":17272:17290   */\n      tag_382\n      tag_196\n      jump\t// in\n    tag_382:\n        /* \"#utility.yul\":17257:17292   */\n    tag_381:\n        /* \"#utility.yul\":17314:17315   */\n      dup3\n        /* \"#utility.yul\":17311:17312   */\n      dup3\n        /* \"#utility.yul\":17307:17316   */\n      div\n        /* \"#utility.yul\":17302:17316   */\n      swap1\n      pop\n        /* \"#utility.yul\":17137:17322   */\n      swap3\n      swap2\n      pop\n      pop\n      jump\t// out\n        /* \"#utility.yul\":17328:17504   */\n    tag_134:\n        /* \"#utility.yul\":17360:17361   */\n      0x00\n        /* \"#utility.yul\":17377:17397   */\n      tag_384\n        /* \"#utility.yul\":17395:17396   */\n      dup3\n        /* \"#utility.yul\":17377:17397   */\n      tag_156\n      jump\t// in\n    tag_384:\n        /* \"#utility.yul\":17372:17397   */\n      swap2\n      pop\n        /* \"#utility.yul\":17411:17431   */\n      tag_385\n        /* \"#utility.yul\":17429:17430   */\n      dup4\n        /* \"#utility.yul\":17411:17431   */\n      tag_156\n      jump\t// in\n    tag_385:\n        /* \"#utility.yul\":17406:17431   */\n      swap3\n      pop\n        /* \"#utility.yul\":17450:17451   */\n      dup3\n        /* \"#utility.yul\":17440:17475   */\n      tag_386\n      jumpi\n        /* \"#utility.yul\":17455:17473   */\n      tag_387\n      tag_196\n      jump\t// in\n    tag_387:\n        /* \"#utility.yul\":17440:17475   */\n    tag_386:\n        /* \"#utility.yul\":17496:17497   */\n      dup3\n        /* \"#utility.yul\":17493:17494   */\n      dup3\n        /* \"#utility.yul\":17489:17498   */\n      mod\n        /* \"#utility.yul\":17484:17498   */\n      swap1\n      pop\n        /* \"#utility.yul\":17328:17504   */\n      swap3\n      swap2\n      pop\n      pop\n      jump\t// out\n\n    auxdata: 0xa264697066735822122069d7daf93845c04d050353f06a775da6d49a7fee81f5e801128a58c70915c28a64736f6c63430008160033\n}\n",
				"bytecode": {
					"linkReferences": {},
					"object": "608060405234801561000f575f80fd5b50335f806101000a81548173ffffffffffffffffffffffffffffffffffffffff021916908373ffffffffffffffffffffffffffffffffffffffff16021790555060025f8054906101000a900473ffffffffffffffffffffffffffffffffffffffff16908060018154018082558091505060019003905f5260205f20015f9091909190916101000a81548173ffffffffffffffffffffffffffffffffffffffff021916908373ffffffffffffffffffffffffffffffffffffffff16021790555061177c806100db5f395ff3fe608060405234801561000f575f80fd5b5060043610610086575f3560e01c80638da5cb5b116100595780638da5cb5b146100ea578063b3f98adc14610108578063c7f758a814610124578063cbff75cb1461015457610086565b806313af40351461008a5780633ca6d100146100a657806341ec6870146100c257806389190393146100e0575b5f80fd5b6100a4600480360381019061009f9190610e03565b610184565b005b6100c060048036038101906100bb9190610ec2565b610253565b005b6100ca61046a565b6040516100d791906110ba565b60405180910390f35b6100e8610612565b005b6100f2610734565b6040516100ff91906110e9565b60405180910390f35b610122600480360381019061011d9190611138565b610757565b005b61013e60048036038101906101399190611163565b6109a9565b60405161014b91906110ba565b60405180910390f35b61016e60048036038101906101699190610e03565b610b51565b60405161017b919061119d565b60405180910390f35b5f8054906101000a900473ffffffffffffffffffffffffffffffffffffffff1673ffffffffffffffffffffffffffffffffffffffff163373ffffffffffffffffffffffffffffffffffffffff1614610211576040517f08c379a000000000000000000000000000000000000000000000000000000000815260040161020890611236565b60405180910390fd5b805f806101000a81548173ffffffffffffffffffffffffffffffffffffffff021916908373ffffffffffffffffffffffffffffffffffffffff16021790555050565b5f8054906101000a900473ffffffffffffffffffffffffffffffffffffffff1673ffffffffffffffffffffffffffffffffffffffff163373ffffffffffffffffffffffffffffffffffffffff16146102e0576040517f08c379a00000000000000000000000000000000000000000000000000000000081526004016102d790611236565b60405180910390fd5b60015f8154809291906102f290611281565b919050555060405180610100016040528086868080601f0160208091040260200160405190810160405280939291908181526020018383808284375f81840152601f19601f82011690508083019250505050505050815260200184848080601f0160208091040260200160405190810160405280939291908181526020018383808284375f81840152601f19601f8201169050808301925050505050505081526020015f81526020015f81526020015f81526020018281526020015f151581526020016001151581525060035f60015481526020019081526020015f205f820151815f0190816103e291906114ef565b5060208201518160010190816103f891906114ef565b5060408201518160020155606082015181600301556080820151816004015560a0820151816005015560c0820151816006015f6101000a81548160ff02191690831515021790555060e08201518160060160016101000a81548160ff0219169083151502179055509050505050505050565b610472610cbc565b60035f60015481526020019081526020015f20604051806101000160405290815f820180546104a090611322565b80601f01602080910402602001604051908101604052809291908181526020018280546104cc90611322565b80156105175780601f106104ee57610100808354040283529160200191610517565b820191905f5260205f20905b8154815290600101906020018083116104fa57829003601f168201915b5050505050815260200160018201805461053090611322565b80601f016020809104026020016040519081016040528092919081815260200182805461055c90611322565b80156105a75780601f1061057e576101008083540402835291602001916105a7565b820191905f5260205f20905b81548152906001019060200180831161058a57829003601f168201915b5050505050815260200160028201548152602001600382015481526020016004820154815260200160058201548152602001600682015f9054906101000a900460ff161515151581526020016006820160019054906101000a900460ff161515151581525050905090565b5f8054906101000a900473ffffffffffffffffffffffffffffffffffffffff1673ffffffffffffffffffffffffffffffffffffffff163373ffffffffffffffffffffffffffffffffffffffff161461069f576040517f08c379a000000000000000000000000000000000000000000000000000000000815260040161069690611236565b60405180910390fd5b60015460035f8281526020019081526020015f2060060160019054906101000a900460ff16610703576040517f08c379a00000000000000000000000000000000000000000000000000000000081526004016106fa90611608565b60405180910390fd5b5f60035f60015481526020019081526020015f2060060160016101000a81548160ff02191690831515021790555050565b5f8054906101000a900473ffffffffffffffffffffffffffffffffffffffff1681565b5f60035f60015481526020019081526020015f2090505f8160040154826003015483600201546107879190611626565b6107919190611626565b9050600233908060018154018082558091505060019003905f5260205f20015f9091909190916101000a81548173ffffffffffffffffffffffffffffffffffffffff021916908373ffffffffffffffffffffffffffffffffffffffff16021790555060018360ff160361084157816002015f81548092919061081290611281565b9190505550610822600154610bf3565b826006015f6101000a81548160ff0219169083151502179055506108da565b60028360ff160361088f57816003015f81548092919061086090611281565b9190505550610870600154610bf3565b826006015f6101000a81548160ff0219169083151502179055506108d9565b5f8360ff16036108d857816004015f8154809291906108ad90611281565b91905055506108bd600154610bf3565b826006015f6101000a81548160ff0219169083151502179055505b5b5b60018183600501546108ec9190611659565b148015610917575060018360ff161480610909575060028360ff16145b8061091657505f8360ff16145b5b156109a4575f8260060160016101000a81548160ff02191690831515021790555060405180602001604052805f8054906101000a900473ffffffffffffffffffffffffffffffffffffffff1673ffffffffffffffffffffffffffffffffffffffff1673ffffffffffffffffffffffffffffffffffffffff1681525060029060016109a2929190610cff565b505b505050565b6109b1610cbc565b60035f8381526020019081526020015f20604051806101000160405290815f820180546109dd90611322565b80601f0160208091040260200160405190810160405280929190818152602001828054610a0990611322565b8015610a545780601f10610a2b57610100808354040283529160200191610a54565b820191905f5260205f20905b815481529060010190602001808311610a3757829003601f168201915b50505050508152602001600182018054610a6d90611322565b80601f0160208091040260200160405190810160405280929190818152602001828054610a9990611322565b8015610ae45780601f10610abb57610100808354040283529160200191610ae4565b820191905f5260205f20905b815481529060010190602001808311610ac757829003601f168201915b5050505050815260200160028201548152602001600382015481526020016004820154815260200160058201548152602001600682015f9054906101000a900460ff161515151581526020016006820160019054906101000a900460ff1615151515815250509050919050565b5f805f90505b600280549050811015610be9578273ffffffffffffffffffffffffffffffffffffffff1660028281548110610b8f57610b8e61168c565b5b905f5260205f20015f9054906101000a900473ffffffffffffffffffffffffffffffffffffffff1673ffffffffffffffffffffffffffffffffffffffff1603610bdc576001915050610bee565b8080600101915050610b57565b505f90505b919050565b5f8060035f8481526020019081526020015f2090505f816004015482600301548360020154610c229190611626565b610c2c9190611626565b90505f600160028460050154610c4291906116e6565b610c4c9190611626565b90508260050154821015610c65575f9350505050610cb7565b5f60028460040154610c779190611716565b82610c829190611626565b90505f818560050154610c959190611659565b905081856002015410158015610caf575080856003015411155b955050505050505b919050565b60405180610100016040528060608152602001606081526020015f81526020015f81526020015f81526020015f81526020015f151581526020015f151581525090565b828054828255905f5260205f20908101928215610d75579160200282015b82811115610d74578251825f6101000a81548173ffffffffffffffffffffffffffffffffffffffff021916908373ffffffffffffffffffffffffffffffffffffffff16021790555091602001919060010190610d1d565b5b509050610d829190610d86565b5090565b5b80821115610d9d575f815f905550600101610d87565b5090565b5f80fd5b5f80fd5b5f73ffffffffffffffffffffffffffffffffffffffff82169050919050565b5f610dd282610da9565b9050919050565b610de281610dc8565b8114610dec575f80fd5b50565b5f81359050610dfd81610dd9565b92915050565b5f60208284031215610e1857610e17610da1565b5b5f610e2584828501610def565b91505092915050565b5f80fd5b5f80fd5b5f80fd5b5f8083601f840112610e4f57610e4e610e2e565b5b8235905067ffffffffffffffff811115610e6c57610e6b610e32565b5b602083019150836001820283011115610e8857610e87610e36565b5b9250929050565b5f819050919050565b610ea181610e8f565b8114610eab575f80fd5b50565b5f81359050610ebc81610e98565b92915050565b5f805f805f60608688031215610edb57610eda610da1565b5b5f86013567ffffffffffffffff811115610ef857610ef7610da5565b5b610f0488828901610e3a565b9550955050602086013567ffffffffffffffff811115610f2757610f26610da5565b5b610f3388828901610e3a565b93509350506040610f4688828901610eae565b9150509295509295909350565b5f81519050919050565b5f82825260208201905092915050565b5f5b83811015610f8a578082015181840152602081019050610f6f565b5f8484015250505050565b5f601f19601f8301169050919050565b5f610faf82610f53565b610fb98185610f5d565b9350610fc9818560208601610f6d565b610fd281610f95565b840191505092915050565b610fe681610e8f565b82525050565b5f8115159050919050565b61100081610fec565b82525050565b5f61010083015f8301518482035f8601526110218282610fa5565b9150506020830151848203602086015261103b8282610fa5565b91505060408301516110506040860182610fdd565b5060608301516110636060860182610fdd565b5060808301516110766080860182610fdd565b5060a083015161108960a0860182610fdd565b5060c083015161109c60c0860182610ff7565b5060e08301516110af60e0860182610ff7565b508091505092915050565b5f6020820190508181035f8301526110d28184611006565b905092915050565b6110e381610dc8565b82525050565b5f6020820190506110fc5f8301846110da565b92915050565b5f60ff82169050919050565b61111781611102565b8114611121575f80fd5b50565b5f813590506111328161110e565b92915050565b5f6020828403121561114d5761114c610da1565b5b5f61115a84828501611124565b91505092915050565b5f6020828403121561117857611177610da1565b5b5f61118584828501610eae565b91505092915050565b61119781610fec565b82525050565b5f6020820190506111b05f83018461118e565b92915050565b5f82825260208201905092915050565b7f4f6e6c7920746865206f776e65722063616e20706572666f726d2074686973205f8201527f6f7065726174696f6e0000000000000000000000000000000000000000000000602082015250565b5f6112206029836111b6565b915061122b826111c6565b604082019050919050565b5f6020820190508181035f83015261124d81611214565b9050919050565b7f4e487b71000000000000000000000000000000000000000000000000000000005f52601160045260245ffd5b5f61128b82610e8f565b91507fffffffffffffffffffffffffffffffffffffffffffffffffffffffffffffffff82036112bd576112bc611254565b5b600182019050919050565b7f4e487b71000000000000000000000000000000000000000000000000000000005f52604160045260245ffd5b7f4e487b71000000000000000000000000000000000000000000000000000000005f52602260045260245ffd5b5f600282049050600182168061133957607f821691505b60208210810361134c5761134b6112f5565b5b50919050565b5f819050815f5260205f209050919050565b5f6020601f8301049050919050565b5f82821b905092915050565b5f600883026113ae7fffffffffffffffffffffffffffffffffffffffffffffffffffffffffffffffff82611373565b6113b88683611373565b95508019841693508086168417925050509392505050565b5f819050919050565b5f6113f36113ee6113e984610e8f565b6113d0565b610e8f565b9050919050565b5f819050919050565b61140c836113d9565b611420611418826113fa565b84845461137f565b825550505050565b5f90565b611434611428565b61143f818484611403565b505050565b5b81811015611462576114575f8261142c565b600181019050611445565b5050565b601f8211156114a75761147881611352565b61148184611364565b81016020851015611490578190505b6114a461149c85611364565b830182611444565b50505b505050565b5f82821c905092915050565b5f6114c75f19846008026114ac565b1980831691505092915050565b5f6114df83836114b8565b9150826002028217905092915050565b6114f882610f53565b67ffffffffffffffff811115611511576115106112c8565b5b61151b8254611322565b611526828285611466565b5f60209050601f831160018114611557575f8415611545578287015190505b61154f85826114d4565b8655506115b6565b601f19841661156586611352565b5f5b8281101561158c57848901518255600182019150602085019450602081019050611567565b868310156115a957848901516115a5601f8916826114b8565b8355505b6001600288020188555050505b505050505050565b7f5468652070726f706f73616c206973206e6f74206163746976650000000000005f82015250565b5f6115f2601a836111b6565b91506115fd826115be565b602082019050919050565b5f6020820190508181035f83015261161f816115e6565b9050919050565b5f61163082610e8f565b915061163b83610e8f565b925082820190508082111561165357611652611254565b5b92915050565b5f61166382610e8f565b915061166e83610e8f565b925082820390508181111561168657611685611254565b5b92915050565b7f4e487b71000000000000000000000000000000000000000000000000000000005f52603260045260245ffd5b7f4e487b71000000000000000000000000000000000000000000000000000000005f52601260045260245ffd5b5f6116f082610e8f565b91506116fb83610e8f565b92508261170b5761170a6116b9565b5b828204905092915050565b5f61172082610e8f565b915061172b83610e8f565b92508261173b5761173a6116b9565b5b82820690509291505056fea264697066735822122069d7daf93845c04d050353f06a775da6d49a7fee81f5e801128a58c70915c28a64736f6c63430008160033",
					"opcodes": "PUSH1 0x80 PUSH1 0x40 MSTORE CALLVALUE DUP1 ISZERO PUSH2 0xF JUMPI PUSH0 DUP1 REVERT JUMPDEST POP CALLER PUSH0 DUP1 PUSH2 0x100 EXP DUP2 SLOAD DUP2 PUSH20 0xFFFFFFFFFFFFFFFFFFFFFFFFFFFFFFFFFFFFFFFF MUL NOT AND SWAP1 DUP4 PUSH20 0xFFFFFFFFFFFFFFFFFFFFFFFFFFFFFFFFFFFFFFFF AND MUL OR SWAP1 SSTORE POP PUSH1 0x2 PUSH0 DUP1 SLOAD SWAP1 PUSH2 0x100 EXP SWAP1 DIV PUSH20 0xFFFFFFFFFFFFFFFFFFFFFFFFFFFFFFFFFFFFFFFF AND SWAP1 DUP1 PUSH1 0x1 DUP2 SLOAD ADD DUP1 DUP3 SSTORE DUP1 SWAP2 POP POP PUSH1 0x1 SWAP1 SUB SWAP1 PUSH0 MSTORE PUSH1 0x20 PUSH0 KECCAK256 ADD PUSH0 SWAP1 SWAP2 SWAP1 SWAP2 SWAP1 SWAP2 PUSH2 0x100 EXP DUP2 SLOAD DUP2 PUSH20 0xFFFFFFFFFFFFFFFFFFFFFFFFFFFFFFFFFFFFFFFF MUL NOT AND SWAP1 DUP4 PUSH20 0xFFFFFFFFFFFFFFFFFFFFFFFFFFFFFFFFFFFFFFFF AND MUL OR SWAP1 SSTORE POP PUSH2 0x177C DUP1 PUSH2 0xDB PUSH0 CODECOPY PUSH0 RETURN INVALID PUSH1 0x80 PUSH1 0x40 MSTORE CALLVALUE DUP1 ISZERO PUSH2 0xF JUMPI PUSH0 DUP1 REVERT JUMPDEST POP PUSH1 0x4 CALLDATASIZE LT PUSH2 0x86 JUMPI PUSH0 CALLDATALOAD PUSH1 0xE0 SHR DUP1 PUSH4 0x8DA5CB5B GT PUSH2 0x59 JUMPI DUP1 PUSH4 0x8DA5CB5B EQ PUSH2 0xEA JUMPI DUP1 PUSH4 0xB3F98ADC EQ PUSH2 0x108 JUMPI DUP1 PUSH4 0xC7F758A8 EQ PUSH2 0x124 JUMPI DUP1 PUSH4 0xCBFF75CB EQ PUSH2 0x154 JUMPI PUSH2 0x86 JUMP JUMPDEST DUP1 PUSH4 0x13AF4035 EQ PUSH2 0x8A JUMPI DUP1 PUSH4 0x3CA6D100 EQ PUSH2 0xA6 JUMPI DUP1 PUSH4 0x41EC6870 EQ PUSH2 0xC2 JUMPI DUP1 PUSH4 0x89190393 EQ PUSH2 0xE0 JUMPI JUMPDEST PUSH0 DUP1 REVERT JUMPDEST PUSH2 0xA4 PUSH1 0x4 DUP1 CALLDATASIZE SUB DUP2 ADD SWAP1 PUSH2 0x9F SWAP2 SWAP1 PUSH2 0xE03 JUMP JUMPDEST PUSH2 0x184 JUMP JUMPDEST STOP JUMPDEST PUSH2 0xC0 PUSH1 0x4 DUP1 CALLDATASIZE SUB DUP2 ADD SWAP1 PUSH2 0xBB SWAP2 SWAP1 PUSH2 0xEC2 JUMP JUMPDEST PUSH2 0x253 JUMP JUMPDEST STOP JUMPDEST PUSH2 0xCA PUSH2 0x46A JUMP JUMPDEST PUSH1 0x40 MLOAD PUSH2 0xD7 SWAP2 SWAP1 PUSH2 0x10BA JUMP JUMPDEST PUSH1 0x40 MLOAD DUP1 SWAP2 SUB SWAP1 RETURN JUMPDEST PUSH2 0xE8 PUSH2 0x612 JUMP JUMPDEST STOP JUMPDEST PUSH2 0xF2 PUSH2 0x734 JUMP JUMPDEST PUSH1 0x40 MLOAD PUSH2 0xFF SWAP2 SWAP1 PUSH2 0x10E9 JUMP JUMPDEST PUSH1 0x40 MLOAD DUP1 SWAP2 SUB SWAP1 RETURN JUMPDEST PUSH2 0x122 PUSH1 0x4 DUP1 CALLDATASIZE SUB DUP2 ADD SWAP1 PUSH2 0x11D SWAP2 SWAP1 PUSH2 0x1138 JUMP JUMPDEST PUSH2 0x757 JUMP JUMPDEST STOP JUMPDEST PUSH2 0x13E PUSH1 0x4 DUP1 CALLDATASIZE SUB DUP2 ADD SWAP1 PUSH2 0x139 SWAP2 SWAP1 PUSH2 0x1163 JUMP JUMPDEST PUSH2 0x9A9 JUMP JUMPDEST PUSH1 0x40 MLOAD PUSH2 0x14B SWAP2 SWAP1 PUSH2 0x10BA JUMP JUMPDEST PUSH1 0x40 MLOAD DUP1 SWAP2 SUB SWAP1 RETURN JUMPDEST PUSH2 0x16E PUSH1 0x4 DUP1 CALLDATASIZE SUB DUP2 ADD SWAP1 PUSH2 0x169 SWAP2 SWAP1 PUSH2 0xE03 JUMP JUMPDEST PUSH2 0xB51 JUMP JUMPDEST PUSH1 0x40 MLOAD PUSH2 0x17B SWAP2 SWAP1 PUSH2 0x119D JUMP JUMPDEST PUSH1 0x40 MLOAD DUP1 SWAP2 SUB SWAP1 RETURN JUMPDEST PUSH0 DUP1 SLOAD SWAP1 PUSH2 0x100 EXP SWAP1 DIV PUSH20 0xFFFFFFFFFFFFFFFFFFFFFFFFFFFFFFFFFFFFFFFF AND PUSH20 0xFFFFFFFFFFFFFFFFFFFFFFFFFFFFFFFFFFFFFFFF AND CALLER PUSH20 0xFFFFFFFFFFFFFFFFFFFFFFFFFFFFFFFFFFFFFFFF AND EQ PUSH2 0x211 JUMPI PUSH1 0x40 MLOAD PUSH32 0x8C379A000000000000000000000000000000000000000000000000000000000 DUP2 MSTORE PUSH1 0x4 ADD PUSH2 0x208 SWAP1 PUSH2 0x1236 JUMP JUMPDEST PUSH1 0x40 MLOAD DUP1 SWAP2 SUB SWAP1 REVERT JUMPDEST DUP1 PUSH0 DUP1 PUSH2 0x100 EXP DUP2 SLOAD DUP2 PUSH20 0xFFFFFFFFFFFFFFFFFFFFFFFFFFFFFFFFFFFFFFFF MUL NOT AND SWAP1 DUP4 PUSH20 0xFFFFFFFFFFFFFFFFFFFFFFFFFFFFFFFFFFFFFFFF AND MUL OR SWAP1 SSTORE POP POP JUMP JUMPDEST PUSH0 DUP1 SLOAD SWAP1 PUSH2 0x100 EXP SWAP1 DIV PUSH20 0xFFFFFFFFFFFFFFFFFFFFFFFFFFFFFFFFFFFFFFFF AND PUSH20 0xFFFFFFFFFFFFFFFFFFFFFFFFFFFFFFFFFFFFFFFF AND CALLER PUSH20 0xFFFFFFFFFFFFFFFFFFFFFFFFFFFFFFFFFFFFFFFF AND EQ PUSH2 0x2E0 JUMPI PUSH1 0x40 MLOAD PUSH32 0x8C379A000000000000000000000000000000000000000000000000000000000 DUP2 MSTORE PUSH1 0x4 ADD PUSH2 0x2D7 SWAP1 PUSH2 0x1236 JUMP JUMPDEST PUSH1 0x40 MLOAD DUP1 SWAP2 SUB SWAP1 REVERT JUMPDEST PUSH1 0x1 PUSH0 DUP2 SLOAD DUP1 SWAP3 SWAP2 SWAP1 PUSH2 0x2F2 SWAP1 PUSH2 0x1281 JUMP JUMPDEST SWAP2 SWAP1 POP SSTORE POP PUSH1 0x40 MLOAD DUP1 PUSH2 0x100 ADD PUSH1 0x40 MSTORE DUP1 DUP7 DUP7 DUP1 DUP1 PUSH1 0x1F ADD PUSH1 0x20 DUP1 SWAP2 DIV MUL PUSH1 0x20 ADD PUSH1 0x40 MLOAD SWAP1 DUP2 ADD PUSH1 0x40 MSTORE DUP1 SWAP4 SWAP3 SWAP2 SWAP1 DUP2 DUP2 MSTORE PUSH1 0x20 ADD DUP4 DUP4 DUP1 DUP3 DUP5 CALLDATACOPY PUSH0 DUP2 DUP5 ADD MSTORE PUSH1 0x1F NOT PUSH1 0x1F DUP3 ADD AND SWAP1 POP DUP1 DUP4 ADD SWAP3 POP POP POP POP POP POP POP DUP2 MSTORE PUSH1 0x20 ADD DUP5 DUP5 DUP1 DUP1 PUSH1 0x1F ADD PUSH1 0x20 DUP1 SWAP2 DIV MUL PUSH1 0x20 ADD PUSH1 0x40 MLOAD SWAP1 DUP2 ADD PUSH1 0x40 MSTORE DUP1 SWAP4 SWAP3 SWAP2 SWAP1 DUP2 DUP2 MSTORE PUSH1 0x20 ADD DUP4 DUP4 DUP1 DUP3 DUP5 CALLDATACOPY PUSH0 DUP2 DUP5 ADD MSTORE PUSH1 0x1F NOT PUSH1 0x1F DUP3 ADD AND SWAP1 POP DUP1 DUP4 ADD SWAP3 POP POP POP POP POP POP POP DUP2 MSTORE PUSH1 0x20 ADD PUSH0 DUP2 MSTORE PUSH1 0x20 ADD PUSH0 DUP2 MSTORE PUSH1 0x20 ADD PUSH0 DUP2 MSTORE PUSH1 0x20 ADD DUP3 DUP2 MSTORE PUSH1 0x20 ADD PUSH0 ISZERO ISZERO DUP2 MSTORE PUSH1 0x20 ADD PUSH1 0x1 ISZERO ISZERO DUP2 MSTORE POP PUSH1 0x3 PUSH0 PUSH1 0x1 SLOAD DUP2 MSTORE PUSH1 0x20 ADD SWAP1 DUP2 MSTORE PUSH1 0x20 ADD PUSH0 KECCAK256 PUSH0 DUP3 ADD MLOAD DUP2 PUSH0 ADD SWAP1 DUP2 PUSH2 0x3E2 SWAP2 SWAP1 PUSH2 0x14EF JUMP JUMPDEST POP PUSH1 0x20 DUP3 ADD MLOAD DUP2 PUSH1 0x1 ADD SWAP1 DUP2 PUSH2 0x3F8 SWAP2 SWAP1 PUSH2 0x14EF JUMP JUMPDEST POP PUSH1 0x40 DUP3 ADD MLOAD DUP2 PUSH1 0x2 ADD SSTORE PUSH1 0x60 DUP3 ADD MLOAD DUP2 PUSH1 0x3 ADD SSTORE PUSH1 0x80 DUP3 ADD MLOAD DUP2 PUSH1 0x4 ADD SSTORE PUSH1 0xA0 DUP3 ADD MLOAD DUP2 PUSH1 0x5 ADD SSTORE PUSH1 0xC0 DUP3 ADD MLOAD DUP2 PUSH1 0x6 ADD PUSH0 PUSH2 0x100 EXP DUP2 SLOAD DUP2 PUSH1 0xFF MUL NOT AND SWAP1 DUP4 ISZERO ISZERO MUL OR SWAP1 SSTORE POP PUSH1 0xE0 DUP3 ADD MLOAD DUP2 PUSH1 0x6 ADD PUSH1 0x1 PUSH2 0x100 EXP DUP2 SLOAD DUP2 PUSH1 0xFF MUL NOT AND SWAP1 DUP4 ISZERO ISZERO MUL OR SWAP1 SSTORE POP SWAP1 POP POP POP POP POP POP POP JUMP JUMPDEST PUSH2 0x472 PUSH2 0xCBC JUMP JUMPDEST PUSH1 0x3 PUSH0 PUSH1 0x1 SLOAD DUP2 MSTORE PUSH1 0x20 ADD SWAP1 DUP2 MSTORE PUSH1 0x20 ADD PUSH0 KECCAK256 PUSH1 0x40 MLOAD DUP1 PUSH2 0x100 ADD PUSH1 0x40 MSTORE SWAP1 DUP2 PUSH0 DUP3 ADD DUP1 SLOAD PUSH2 0x4A0 SWAP1 PUSH2 0x1322 JUMP JUMPDEST DUP1 PUSH1 0x1F ADD PUSH1 0x20 DUP1 SWAP2 DIV MUL PUSH1 0x20 ADD PUSH1 0x40 MLOAD SWAP1 DUP2 ADD PUSH1 0x40 MSTORE DUP1 SWAP3 SWAP2 SWAP1 DUP2 DUP2 MSTORE PUSH1 0x20 ADD DUP3 DUP1 SLOAD PUSH2 0x4CC SWAP1 PUSH2 0x1322 JUMP JUMPDEST DUP1 ISZERO PUSH2 0x517 JUMPI DUP1 PUSH1 0x1F LT PUSH2 0x4EE JUMPI PUSH2 0x100 DUP1 DUP4 SLOAD DIV MUL DUP4 MSTORE SWAP2 PUSH1 0x20 ADD SWAP2 PUSH2 0x517 JUMP JUMPDEST DUP3 ADD SWAP2 SWAP1 PUSH0 MSTORE PUSH1 0x20 PUSH0 KECCAK256 SWAP1 JUMPDEST DUP2 SLOAD DUP2 MSTORE SWAP1 PUSH1 0x1 ADD SWAP1 PUSH1 0x20 ADD DUP1 DUP4 GT PUSH2 0x4FA JUMPI DUP3 SWAP1 SUB PUSH1 0x1F AND DUP3 ADD SWAP2 JUMPDEST POP POP POP POP POP DUP2 MSTORE PUSH1 0x20 ADD PUSH1 0x1 DUP3 ADD DUP1 SLOAD PUSH2 0x530 SWAP1 PUSH2 0x1322 JUMP JUMPDEST DUP1 PUSH1 0x1F ADD PUSH1 0x20 DUP1 SWAP2 DIV MUL PUSH1 0x20 ADD PUSH1 0x40 MLOAD SWAP1 DUP2 ADD PUSH1 0x40 MSTORE DUP1 SWAP3 SWAP2 SWAP1 DUP2 DUP2 MSTORE PUSH1 0x20 ADD DUP3 DUP1 SLOAD PUSH2 0x55C SWAP1 PUSH2 0x1322 JUMP JUMPDEST DUP1 ISZERO PUSH2 0x5A7 JUMPI DUP1 PUSH1 0x1F LT PUSH2 0x57E JUMPI PUSH2 0x100 DUP1 DUP4 SLOAD DIV MUL DUP4 MSTORE SWAP2 PUSH1 0x20 ADD SWAP2 PUSH2 0x5A7 JUMP JUMPDEST DUP3 ADD SWAP2 SWAP1 PUSH0 MSTORE PUSH1 0x20 PUSH0 KECCAK256 SWAP1 JUMPDEST DUP2 SLOAD DUP2 MSTORE SWAP1 PUSH1 0x1 ADD SWAP1 PUSH1 0x20 ADD DUP1 DUP4 GT PUSH2 0x58A JUMPI DUP3 SWAP1 SUB PUSH1 0x1F AND DUP3 ADD SWAP2 JUMPDEST POP POP POP POP POP DUP2 MSTORE PUSH1 0x20 ADD PUSH1 0x2 DUP3 ADD SLOAD DUP2 MSTORE PUSH1 0x20 ADD PUSH1 0x3 DUP3 ADD SLOAD DUP2 MSTORE PUSH1 0x20 ADD PUSH1 0x4 DUP3 ADD SLOAD DUP2 MSTORE PUSH1 0x20 ADD PUSH1 0x5 DUP3 ADD SLOAD DUP2 MSTORE PUSH1 0x20 ADD PUSH1 0x6 DUP3 ADD PUSH0 SWAP1 SLOAD SWAP1 PUSH2 0x100 EXP SWAP1 DIV PUSH1 0xFF AND ISZERO ISZERO ISZERO ISZERO DUP2 MSTORE PUSH1 0x20 ADD PUSH1 0x6 DUP3 ADD PUSH1 0x1 SWAP1 SLOAD SWAP1 PUSH2 0x100 EXP SWAP1 DIV PUSH1 0xFF AND ISZERO ISZERO ISZERO ISZERO DUP2 MSTORE POP POP SWAP1 POP SWAP1 JUMP JUMPDEST PUSH0 DUP1 SLOAD SWAP1 PUSH2 0x100 EXP SWAP1 DIV PUSH20 0xFFFFFFFFFFFFFFFFFFFFFFFFFFFFFFFFFFFFFFFF AND PUSH20 0xFFFFFFFFFFFFFFFFFFFFFFFFFFFFFFFFFFFFFFFF AND CALLER PUSH20 0xFFFFFFFFFFFFFFFFFFFFFFFFFFFFFFFFFFFFFFFF AND EQ PUSH2 0x69F JUMPI PUSH1 0x40 MLOAD PUSH32 0x8C379A000000000000000000000000000000000000000000000000000000000 DUP2 MSTORE PUSH1 0x4 ADD PUSH2 0x696 SWAP1 PUSH2 0x1236 JUMP JUMPDEST PUSH1 0x40 MLOAD DUP1 SWAP2 SUB SWAP1 REVERT JUMPDEST PUSH1 0x1 SLOAD PUSH1 0x3 PUSH0 DUP3 DUP2 MSTORE PUSH1 0x20 ADD SWAP1 DUP2 MSTORE PUSH1 0x20 ADD PUSH0 KECCAK256 PUSH1 0x6 ADD PUSH1 0x1 SWAP1 SLOAD SWAP1 PUSH2 0x100 EXP SWAP1 DIV PUSH1 0xFF AND PUSH2 0x703 JUMPI PUSH1 0x40 MLOAD PUSH32 0x8C379A000000000000000000000000000000000000000000000000000000000 DUP2 MSTORE PUSH1 0x4 ADD PUSH2 0x6FA SWAP1 PUSH2 0x1608 JUMP JUMPDEST PUSH1 0x40 MLOAD DUP1 SWAP2 SUB SWAP1 REVERT JUMPDEST PUSH0 PUSH1 0x3 PUSH0 PUSH1 0x1 SLOAD DUP2 MSTORE PUSH1 0x20 ADD SWAP1 DUP2 MSTORE PUSH1 0x20 ADD PUSH0 KECCAK256 PUSH1 0x6 ADD PUSH1 0x1 PUSH2 0x100 EXP DUP2 SLOAD DUP2 PUSH1 0xFF MUL NOT AND SWAP1 DUP4 ISZERO ISZERO MUL OR SWAP1 SSTORE POP POP JUMP JUMPDEST PUSH0 DUP1 SLOAD SWAP1 PUSH2 0x100 EXP SWAP1 DIV PUSH20 0xFFFFFFFFFFFFFFFFFFFFFFFFFFFFFFFFFFFFFFFF AND DUP2 JUMP JUMPDEST PUSH0 PUSH1 0x3 PUSH0 PUSH1 0x1 SLOAD DUP2 MSTORE PUSH1 0x20 ADD SWAP1 DUP2 MSTORE PUSH1 0x20 ADD PUSH0 KECCAK256 SWAP1 POP PUSH0 DUP2 PUSH1 0x4 ADD SLOAD DUP3 PUSH1 0x3 ADD SLOAD DUP4 PUSH1 0x2 ADD SLOAD PUSH2 0x787 SWAP2 SWAP1 PUSH2 0x1626 JUMP JUMPDEST PUSH2 0x791 SWAP2 SWAP1 PUSH2 0x1626 JUMP JUMPDEST SWAP1 POP PUSH1 0x2 CALLER SWAP1 DUP1 PUSH1 0x1 DUP2 SLOAD ADD DUP1 DUP3 SSTORE DUP1 SWAP2 POP POP PUSH1 0x1 SWAP1 SUB SWAP1 PUSH0 MSTORE PUSH1 0x20 PUSH0 KECCAK256 ADD PUSH0 SWAP1 SWAP2 SWAP1 SWAP2 SWAP1 SWAP2 PUSH2 0x100 EXP DUP2 SLOAD DUP2 PUSH20 0xFFFFFFFFFFFFFFFFFFFFFFFFFFFFFFFFFFFFFFFF MUL NOT AND SWAP1 DUP4 PUSH20 0xFFFFFFFFFFFFFFFFFFFFFFFFFFFFFFFFFFFFFFFF AND MUL OR SWAP1 SSTORE POP PUSH1 0x1 DUP4 PUSH1 0xFF AND SUB PUSH2 0x841 JUMPI DUP2 PUSH1 0x2 ADD PUSH0 DUP2 SLOAD DUP1 SWAP3 SWAP2 SWAP1 PUSH2 0x812 SWAP1 PUSH2 0x1281 JUMP JUMPDEST SWAP2 SWAP1 POP SSTORE POP PUSH2 0x822 PUSH1 0x1 SLOAD PUSH2 0xBF3 JUMP JUMPDEST DUP3 PUSH1 0x6 ADD PUSH0 PUSH2 0x100 EXP DUP2 SLOAD DUP2 PUSH1 0xFF MUL NOT AND SWAP1 DUP4 ISZERO ISZERO MUL OR SWAP1 SSTORE POP PUSH2 0x8DA JUMP JUMPDEST PUSH1 0x2 DUP4 PUSH1 0xFF AND SUB PUSH2 0x88F JUMPI DUP2 PUSH1 0x3 ADD PUSH0 DUP2 SLOAD DUP1 SWAP3 SWAP2 SWAP1 PUSH2 0x860 SWAP1 PUSH2 0x1281 JUMP JUMPDEST SWAP2 SWAP1 POP SSTORE POP PUSH2 0x870 PUSH1 0x1 SLOAD PUSH2 0xBF3 JUMP JUMPDEST DUP3 PUSH1 0x6 ADD PUSH0 PUSH2 0x100 EXP DUP2 SLOAD DUP2 PUSH1 0xFF MUL NOT AND SWAP1 DUP4 ISZERO ISZERO MUL OR SWAP1 SSTORE POP PUSH2 0x8D9 JUMP JUMPDEST PUSH0 DUP4 PUSH1 0xFF AND SUB PUSH2 0x8D8 JUMPI DUP2 PUSH1 0x4 ADD PUSH0 DUP2 SLOAD DUP1 SWAP3 SWAP2 SWAP1 PUSH2 0x8AD SWAP1 PUSH2 0x1281 JUMP JUMPDEST SWAP2 SWAP1 POP SSTORE POP PUSH2 0x8BD PUSH1 0x1 SLOAD PUSH2 0xBF3 JUMP JUMPDEST DUP3 PUSH1 0x6 ADD PUSH0 PUSH2 0x100 EXP DUP2 SLOAD DUP2 PUSH1 0xFF MUL NOT AND SWAP1 DUP4 ISZERO ISZERO MUL OR SWAP1 SSTORE POP JUMPDEST JUMPDEST JUMPDEST PUSH1 0x1 DUP2 DUP4 PUSH1 0x5 ADD SLOAD PUSH2 0x8EC SWAP2 SWAP1 PUSH2 0x1659 JUMP JUMPDEST EQ DUP1 ISZERO PUSH2 0x917 JUMPI POP PUSH1 0x1 DUP4 PUSH1 0xFF AND EQ DUP1 PUSH2 0x909 JUMPI POP PUSH1 0x2 DUP4 PUSH1 0xFF AND EQ JUMPDEST DUP1 PUSH2 0x916 JUMPI POP PUSH0 DUP4 PUSH1 0xFF AND EQ JUMPDEST JUMPDEST ISZERO PUSH2 0x9A4 JUMPI PUSH0 DUP3 PUSH1 0x6 ADD PUSH1 0x1 PUSH2 0x100 EXP DUP2 SLOAD DUP2 PUSH1 0xFF MUL NOT AND SWAP1 DUP4 ISZERO ISZERO MUL OR SWAP1 SSTORE POP PUSH1 0x40 MLOAD DUP1 PUSH1 0x20 ADD PUSH1 0x40 MSTORE DUP1 PUSH0 DUP1 SLOAD SWAP1 PUSH2 0x100 EXP SWAP1 DIV PUSH20 0xFFFFFFFFFFFFFFFFFFFFFFFFFFFFFFFFFFFFFFFF AND PUSH20 0xFFFFFFFFFFFFFFFFFFFFFFFFFFFFFFFFFFFFFFFF AND PUSH20 0xFFFFFFFFFFFFFFFFFFFFFFFFFFFFFFFFFFFFFFFF AND DUP2 MSTORE POP PUSH1 0x2 SWAP1 PUSH1 0x1 PUSH2 0x9A2 SWAP3 SWAP2 SWAP1 PUSH2 0xCFF JUMP JUMPDEST POP JUMPDEST POP POP POP JUMP JUMPDEST PUSH2 0x9B1 PUSH2 0xCBC JUMP JUMPDEST PUSH1 0x3 PUSH0 DUP4 DUP2 MSTORE PUSH1 0x20 ADD SWAP1 DUP2 MSTORE PUSH1 0x20 ADD PUSH0 KECCAK256 PUSH1 0x40 MLOAD DUP1 PUSH2 0x100 ADD PUSH1 0x40 MSTORE SWAP1 DUP2 PUSH0 DUP3 ADD DUP1 SLOAD PUSH2 0x9DD SWAP1 PUSH2 0x1322 JUMP JUMPDEST DUP1 PUSH1 0x1F ADD PUSH1 0x20 DUP1 SWAP2 DIV MUL PUSH1 0x20 ADD PUSH1 0x40 MLOAD SWAP1 DUP2 ADD PUSH1 0x40 MSTORE DUP1 SWAP3 SWAP2 SWAP1 DUP2 DUP2 MSTORE PUSH1 0x20 ADD DUP3 DUP1 SLOAD PUSH2 0xA09 SWAP1 PUSH2 0x1322 JUMP JUMPDEST DUP1 ISZERO PUSH2 0xA54 JUMPI DUP1 PUSH1 0x1F LT PUSH2 0xA2B JUMPI PUSH2 0x100 DUP1 DUP4 SLOAD DIV MUL DUP4 MSTORE SWAP2 PUSH1 0x20 ADD SWAP2 PUSH2 0xA54 JUMP JUMPDEST DUP3 ADD SWAP2 SWAP1 PUSH0 MSTORE PUSH1 0x20 PUSH0 KECCAK256 SWAP1 JUMPDEST DUP2 SLOAD DUP2 MSTORE SWAP1 PUSH1 0x1 ADD SWAP1 PUSH1 0x20 ADD DUP1 DUP4 GT PUSH2 0xA37 JUMPI DUP3 SWAP1 SUB PUSH1 0x1F AND DUP3 ADD SWAP2 JUMPDEST POP POP POP POP POP DUP2 MSTORE PUSH1 0x20 ADD PUSH1 0x1 DUP3 ADD DUP1 SLOAD PUSH2 0xA6D SWAP1 PUSH2 0x1322 JUMP JUMPDEST DUP1 PUSH1 0x1F ADD PUSH1 0x20 DUP1 SWAP2 DIV MUL PUSH1 0x20 ADD PUSH1 0x40 MLOAD SWAP1 DUP2 ADD PUSH1 0x40 MSTORE DUP1 SWAP3 SWAP2 SWAP1 DUP2 DUP2 MSTORE PUSH1 0x20 ADD DUP3 DUP1 SLOAD PUSH2 0xA99 SWAP1 PUSH2 0x1322 JUMP JUMPDEST DUP1 ISZERO PUSH2 0xAE4 JUMPI DUP1 PUSH1 0x1F LT PUSH2 0xABB JUMPI PUSH2 0x100 DUP1 DUP4 SLOAD DIV MUL DUP4 MSTORE SWAP2 PUSH1 0x20 ADD SWAP2 PUSH2 0xAE4 JUMP JUMPDEST DUP3 ADD SWAP2 SWAP1 PUSH0 MSTORE PUSH1 0x20 PUSH0 KECCAK256 SWAP1 JUMPDEST DUP2 SLOAD DUP2 MSTORE SWAP1 PUSH1 0x1 ADD SWAP1 PUSH1 0x20 ADD DUP1 DUP4 GT PUSH2 0xAC7 JUMPI DUP3 SWAP1 SUB PUSH1 0x1F AND DUP3 ADD SWAP2 JUMPDEST POP POP POP POP POP DUP2 MSTORE PUSH1 0x20 ADD PUSH1 0x2 DUP3 ADD SLOAD DUP2 MSTORE PUSH1 0x20 ADD PUSH1 0x3 DUP3 ADD SLOAD DUP2 MSTORE PUSH1 0x20 ADD PUSH1 0x4 DUP3 ADD SLOAD DUP2 MSTORE PUSH1 0x20 ADD PUSH1 0x5 DUP3 ADD SLOAD DUP2 MSTORE PUSH1 0x20 ADD PUSH1 0x6 DUP3 ADD PUSH0 SWAP1 SLOAD SWAP1 PUSH2 0x100 EXP SWAP1 DIV PUSH1 0xFF AND ISZERO ISZERO ISZERO ISZERO DUP2 MSTORE PUSH1 0x20 ADD PUSH1 0x6 DUP3 ADD PUSH1 0x1 SWAP1 SLOAD SWAP1 PUSH2 0x100 EXP SWAP1 DIV PUSH1 0xFF AND ISZERO ISZERO ISZERO ISZERO DUP2 MSTORE POP POP SWAP1 POP SWAP2 SWAP1 POP JUMP JUMPDEST PUSH0 DUP1 PUSH0 SWAP1 POP JUMPDEST PUSH1 0x2 DUP1 SLOAD SWAP1 POP DUP2 LT ISZERO PUSH2 0xBE9 JUMPI DUP3 PUSH20 0xFFFFFFFFFFFFFFFFFFFFFFFFFFFFFFFFFFFFFFFF AND PUSH1 0x2 DUP3 DUP2 SLOAD DUP2 LT PUSH2 0xB8F JUMPI PUSH2 0xB8E PUSH2 0x168C JUMP JUMPDEST JUMPDEST SWAP1 PUSH0 MSTORE PUSH1 0x20 PUSH0 KECCAK256 ADD PUSH0 SWAP1 SLOAD SWAP1 PUSH2 0x100 EXP SWAP1 DIV PUSH20 0xFFFFFFFFFFFFFFFFFFFFFFFFFFFFFFFFFFFFFFFF AND PUSH20 0xFFFFFFFFFFFFFFFFFFFFFFFFFFFFFFFFFFFFFFFF AND SUB PUSH2 0xBDC JUMPI PUSH1 0x1 SWAP2 POP POP PUSH2 0xBEE JUMP JUMPDEST DUP1 DUP1 PUSH1 0x1 ADD SWAP2 POP POP PUSH2 0xB57 JUMP JUMPDEST POP PUSH0 SWAP1 POP JUMPDEST SWAP2 SWAP1 POP JUMP JUMPDEST PUSH0 DUP1 PUSH1 0x3 PUSH0 DUP5 DUP2 MSTORE PUSH1 0x20 ADD SWAP1 DUP2 MSTORE PUSH1 0x20 ADD PUSH0 KECCAK256 SWAP1 POP PUSH0 DUP2 PUSH1 0x4 ADD SLOAD DUP3 PUSH1 0x3 ADD SLOAD DUP4 PUSH1 0x2 ADD SLOAD PUSH2 0xC22 SWAP2 SWAP1 PUSH2 0x1626 JUMP JUMPDEST PUSH2 0xC2C SWAP2 SWAP1 PUSH2 0x1626 JUMP JUMPDEST SWAP1 POP PUSH0 PUSH1 0x1 PUSH1 0x2 DUP5 PUSH1 0x5 ADD SLOAD PUSH2 0xC42 SWAP2 SWAP1 PUSH2 0x16E6 JUMP JUMPDEST PUSH2 0xC4C SWAP2 SWAP1 PUSH2 0x1626 JUMP JUMPDEST SWAP1 POP DUP3 PUSH1 0x5 ADD SLOAD DUP3 LT ISZERO PUSH2 0xC65 JUMPI PUSH0 SWAP4 POP POP POP POP PUSH2 0xCB7 JUMP JUMPDEST PUSH0 PUSH1 0x2 DUP5 PUSH1 0x4 ADD SLOAD PUSH2 0xC77 SWAP2 SWAP1 PUSH2 0x1716 JUMP JUMPDEST DUP3 PUSH2 0xC82 SWAP2 SWAP1 PUSH2 0x1626 JUMP JUMPDEST SWAP1 POP PUSH0 DUP2 DUP6 PUSH1 0x5 ADD SLOAD PUSH2 0xC95 SWAP2 SWAP1 PUSH2 0x1659 JUMP JUMPDEST SWAP1 POP DUP2 DUP6 PUSH1 0x2 ADD SLOAD LT ISZERO DUP1 ISZERO PUSH2 0xCAF JUMPI POP DUP1 DUP6 PUSH1 0x3 ADD SLOAD GT ISZERO JUMPDEST SWAP6 POP POP POP POP POP POP JUMPDEST SWAP2 SWAP1 POP JUMP JUMPDEST PUSH1 0x40 MLOAD DUP1 PUSH2 0x100 ADD PUSH1 0x40 MSTORE DUP1 PUSH1 0x60 DUP2 MSTORE PUSH1 0x20 ADD PUSH1 0x60 DUP2 MSTORE PUSH1 0x20 ADD PUSH0 DUP2 MSTORE PUSH1 0x20 ADD PUSH0 DUP2 MSTORE PUSH1 0x20 ADD PUSH0 DUP2 MSTORE PUSH1 0x20 ADD PUSH0 DUP2 MSTORE PUSH1 0x20 ADD PUSH0 ISZERO ISZERO DUP2 MSTORE PUSH1 0x20 ADD PUSH0 ISZERO ISZERO DUP2 MSTORE POP SWAP1 JUMP JUMPDEST DUP3 DUP1 SLOAD DUP3 DUP3 SSTORE SWAP1 PUSH0 MSTORE PUSH1 0x20 PUSH0 KECCAK256 SWAP1 DUP2 ADD SWAP3 DUP3 ISZERO PUSH2 0xD75 JUMPI SWAP2 PUSH1 0x20 MUL DUP3 ADD JUMPDEST DUP3 DUP2 GT ISZERO PUSH2 0xD74 JUMPI DUP3 MLOAD DUP3 PUSH0 PUSH2 0x100 EXP DUP2 SLOAD DUP2 PUSH20 0xFFFFFFFFFFFFFFFFFFFFFFFFFFFFFFFFFFFFFFFF MUL NOT AND SWAP1 DUP4 PUSH20 0xFFFFFFFFFFFFFFFFFFFFFFFFFFFFFFFFFFFFFFFF AND MUL OR SWAP1 SSTORE POP SWAP2 PUSH1 0x20 ADD SWAP2 SWAP1 PUSH1 0x1 ADD SWAP1 PUSH2 0xD1D JUMP JUMPDEST JUMPDEST POP SWAP1 POP PUSH2 0xD82 SWAP2 SWAP1 PUSH2 0xD86 JUMP JUMPDEST POP SWAP1 JUMP JUMPDEST JUMPDEST DUP1 DUP3 GT ISZERO PUSH2 0xD9D JUMPI PUSH0 DUP2 PUSH0 SWAP1 SSTORE POP PUSH1 0x1 ADD PUSH2 0xD87 JUMP JUMPDEST POP SWAP1 JUMP JUMPDEST PUSH0 DUP1 REVERT JUMPDEST PUSH0 DUP1 REVERT JUMPDEST PUSH0 PUSH20 0xFFFFFFFFFFFFFFFFFFFFFFFFFFFFFFFFFFFFFFFF DUP3 AND SWAP1 POP SWAP2 SWAP1 POP JUMP JUMPDEST PUSH0 PUSH2 0xDD2 DUP3 PUSH2 0xDA9 JUMP JUMPDEST SWAP1 POP SWAP2 SWAP1 POP JUMP JUMPDEST PUSH2 0xDE2 DUP2 PUSH2 0xDC8 JUMP JUMPDEST DUP2 EQ PUSH2 0xDEC JUMPI PUSH0 DUP1 REVERT JUMPDEST POP JUMP JUMPDEST PUSH0 DUP2 CALLDATALOAD SWAP1 POP PUSH2 0xDFD DUP2 PUSH2 0xDD9 JUMP JUMPDEST SWAP3 SWAP2 POP POP JUMP JUMPDEST PUSH0 PUSH1 0x20 DUP3 DUP5 SUB SLT ISZERO PUSH2 0xE18 JUMPI PUSH2 0xE17 PUSH2 0xDA1 JUMP JUMPDEST JUMPDEST PUSH0 PUSH2 0xE25 DUP5 DUP3 DUP6 ADD PUSH2 0xDEF JUMP JUMPDEST SWAP2 POP POP SWAP3 SWAP2 POP POP JUMP JUMPDEST PUSH0 DUP1 REVERT JUMPDEST PUSH0 DUP1 REVERT JUMPDEST PUSH0 DUP1 REVERT JUMPDEST PUSH0 DUP1 DUP4 PUSH1 0x1F DUP5 ADD SLT PUSH2 0xE4F JUMPI PUSH2 0xE4E PUSH2 0xE2E JUMP JUMPDEST JUMPDEST DUP3 CALLDATALOAD SWAP1 POP PUSH8 0xFFFFFFFFFFFFFFFF DUP2 GT ISZERO PUSH2 0xE6C JUMPI PUSH2 0xE6B PUSH2 0xE32 JUMP JUMPDEST JUMPDEST PUSH1 0x20 DUP4 ADD SWAP2 POP DUP4 PUSH1 0x1 DUP3 MUL DUP4 ADD GT ISZERO PUSH2 0xE88 JUMPI PUSH2 0xE87 PUSH2 0xE36 JUMP JUMPDEST JUMPDEST SWAP3 POP SWAP3 SWAP1 POP JUMP JUMPDEST PUSH0 DUP2 SWAP1 POP SWAP2 SWAP1 POP JUMP JUMPDEST PUSH2 0xEA1 DUP2 PUSH2 0xE8F JUMP JUMPDEST DUP2 EQ PUSH2 0xEAB JUMPI PUSH0 DUP1 REVERT JUMPDEST POP JUMP JUMPDEST PUSH0 DUP2 CALLDATALOAD SWAP1 POP PUSH2 0xEBC DUP2 PUSH2 0xE98 JUMP JUMPDEST SWAP3 SWAP2 POP POP JUMP JUMPDEST PUSH0 DUP1 PUSH0 DUP1 PUSH0 PUSH1 0x60 DUP7 DUP9 SUB SLT ISZERO PUSH2 0xEDB JUMPI PUSH2 0xEDA PUSH2 0xDA1 JUMP JUMPDEST JUMPDEST PUSH0 DUP7 ADD CALLDATALOAD PUSH8 0xFFFFFFFFFFFFFFFF DUP2 GT ISZERO PUSH2 0xEF8 JUMPI PUSH2 0xEF7 PUSH2 0xDA5 JUMP JUMPDEST JUMPDEST PUSH2 0xF04 DUP9 DUP3 DUP10 ADD PUSH2 0xE3A JUMP JUMPDEST SWAP6 POP SWAP6 POP POP PUSH1 0x20 DUP7 ADD CALLDATALOAD PUSH8 0xFFFFFFFFFFFFFFFF DUP2 GT ISZERO PUSH2 0xF27 JUMPI PUSH2 0xF26 PUSH2 0xDA5 JUMP JUMPDEST JUMPDEST PUSH2 0xF33 DUP9 DUP3 DUP10 ADD PUSH2 0xE3A JUMP JUMPDEST SWAP4 POP SWAP4 POP POP PUSH1 0x40 PUSH2 0xF46 DUP9 DUP3 DUP10 ADD PUSH2 0xEAE JUMP JUMPDEST SWAP2 POP POP SWAP3 SWAP6 POP SWAP3 SWAP6 SWAP1 SWAP4 POP JUMP JUMPDEST PUSH0 DUP2 MLOAD SWAP1 POP SWAP2 SWAP1 POP JUMP JUMPDEST PUSH0 DUP3 DUP3 MSTORE PUSH1 0x20 DUP3 ADD SWAP1 POP SWAP3 SWAP2 POP POP JUMP JUMPDEST PUSH0 JUMPDEST DUP4 DUP2 LT ISZERO PUSH2 0xF8A JUMPI DUP1 DUP3 ADD MLOAD DUP2 DUP5 ADD MSTORE PUSH1 0x20 DUP2 ADD SWAP1 POP PUSH2 0xF6F JUMP JUMPDEST PUSH0 DUP5 DUP5 ADD MSTORE POP POP POP POP JUMP JUMPDEST PUSH0 PUSH1 0x1F NOT PUSH1 0x1F DUP4 ADD AND SWAP1 POP SWAP2 SWAP1 POP JUMP JUMPDEST PUSH0 PUSH2 0xFAF DUP3 PUSH2 0xF53 JUMP JUMPDEST PUSH2 0xFB9 DUP2 DUP6 PUSH2 0xF5D JUMP JUMPDEST SWAP4 POP PUSH2 0xFC9 DUP2 DUP6 PUSH1 0x20 DUP7 ADD PUSH2 0xF6D JUMP JUMPDEST PUSH2 0xFD2 DUP2 PUSH2 0xF95 JUMP JUMPDEST DUP5 ADD SWAP2 POP POP SWAP3 SWAP2 POP POP JUMP JUMPDEST PUSH2 0xFE6 DUP2 PUSH2 0xE8F JUMP JUMPDEST DUP3 MSTORE POP POP JUMP JUMPDEST PUSH0 DUP2 ISZERO ISZERO SWAP1 POP SWAP2 SWAP1 POP JUMP JUMPDEST PUSH2 0x1000 DUP2 PUSH2 0xFEC JUMP JUMPDEST DUP3 MSTORE POP POP JUMP JUMPDEST PUSH0 PUSH2 0x100 DUP4 ADD PUSH0 DUP4 ADD MLOAD DUP5 DUP3 SUB PUSH0 DUP7 ADD MSTORE PUSH2 0x1021 DUP3 DUP3 PUSH2 0xFA5 JUMP JUMPDEST SWAP2 POP POP PUSH1 0x20 DUP4 ADD MLOAD DUP5 DUP3 SUB PUSH1 0x20 DUP7 ADD MSTORE PUSH2 0x103B DUP3 DUP3 PUSH2 0xFA5 JUMP JUMPDEST SWAP2 POP POP PUSH1 0x40 DUP4 ADD MLOAD PUSH2 0x1050 PUSH1 0x40 DUP7 ADD DUP3 PUSH2 0xFDD JUMP JUMPDEST POP PUSH1 0x60 DUP4 ADD MLOAD PUSH2 0x1063 PUSH1 0x60 DUP7 ADD DUP3 PUSH2 0xFDD JUMP JUMPDEST POP PUSH1 0x80 DUP4 ADD MLOAD PUSH2 0x1076 PUSH1 0x80 DUP7 ADD DUP3 PUSH2 0xFDD JUMP JUMPDEST POP PUSH1 0xA0 DUP4 ADD MLOAD PUSH2 0x1089 PUSH1 0xA0 DUP7 ADD DUP3 PUSH2 0xFDD JUMP JUMPDEST POP PUSH1 0xC0 DUP4 ADD MLOAD PUSH2 0x109C PUSH1 0xC0 DUP7 ADD DUP3 PUSH2 0xFF7 JUMP JUMPDEST POP PUSH1 0xE0 DUP4 ADD MLOAD PUSH2 0x10AF PUSH1 0xE0 DUP7 ADD DUP3 PUSH2 0xFF7 JUMP JUMPDEST POP DUP1 SWAP2 POP POP SWAP3 SWAP2 POP POP JUMP JUMPDEST PUSH0 PUSH1 0x20 DUP3 ADD SWAP1 POP DUP2 DUP2 SUB PUSH0 DUP4 ADD MSTORE PUSH2 0x10D2 DUP2 DUP5 PUSH2 0x1006 JUMP JUMPDEST SWAP1 POP SWAP3 SWAP2 POP POP JUMP JUMPDEST PUSH2 0x10E3 DUP2 PUSH2 0xDC8 JUMP JUMPDEST DUP3 MSTORE POP POP JUMP JUMPDEST PUSH0 PUSH1 0x20 DUP3 ADD SWAP1 POP PUSH2 0x10FC PUSH0 DUP4 ADD DUP5 PUSH2 0x10DA JUMP JUMPDEST SWAP3 SWAP2 POP POP JUMP JUMPDEST PUSH0 PUSH1 0xFF DUP3 AND SWAP1 POP SWAP2 SWAP1 POP JUMP JUMPDEST PUSH2 0x1117 DUP2 PUSH2 0x1102 JUMP JUMPDEST DUP2 EQ PUSH2 0x1121 JUMPI PUSH0 DUP1 REVERT JUMPDEST POP JUMP JUMPDEST PUSH0 DUP2 CALLDATALOAD SWAP1 POP PUSH2 0x1132 DUP2 PUSH2 0x110E JUMP JUMPDEST SWAP3 SWAP2 POP POP JUMP JUMPDEST PUSH0 PUSH1 0x20 DUP3 DUP5 SUB SLT ISZERO PUSH2 0x114D JUMPI PUSH2 0x114C PUSH2 0xDA1 JUMP JUMPDEST JUMPDEST PUSH0 PUSH2 0x115A DUP5 DUP3 DUP6 ADD PUSH2 0x1124 JUMP JUMPDEST SWAP2 POP POP SWAP3 SWAP2 POP POP JUMP JUMPDEST PUSH0 PUSH1 0x20 DUP3 DUP5 SUB SLT ISZERO PUSH2 0x1178 JUMPI PUSH2 0x1177 PUSH2 0xDA1 JUMP JUMPDEST JUMPDEST PUSH0 PUSH2 0x1185 DUP5 DUP3 DUP6 ADD PUSH2 0xEAE JUMP JUMPDEST SWAP2 POP POP SWAP3 SWAP2 POP POP JUMP JUMPDEST PUSH2 0x1197 DUP2 PUSH2 0xFEC JUMP JUMPDEST DUP3 MSTORE POP POP JUMP JUMPDEST PUSH0 PUSH1 0x20 DUP3 ADD SWAP1 POP PUSH2 0x11B0 PUSH0 DUP4 ADD DUP5 PUSH2 0x118E JUMP JUMPDEST SWAP3 SWAP2 POP POP JUMP JUMPDEST PUSH0 DUP3 DUP3 MSTORE PUSH1 0x20 DUP3 ADD SWAP1 POP SWAP3 SWAP2 POP POP JUMP JUMPDEST PUSH32 0x4F6E6C7920746865206F776E65722063616E20706572666F726D207468697320 PUSH0 DUP3 ADD MSTORE PUSH32 0x6F7065726174696F6E0000000000000000000000000000000000000000000000 PUSH1 0x20 DUP3 ADD MSTORE POP JUMP JUMPDEST PUSH0 PUSH2 0x1220 PUSH1 0x29 DUP4 PUSH2 0x11B6 JUMP JUMPDEST SWAP2 POP PUSH2 0x122B DUP3 PUSH2 0x11C6 JUMP JUMPDEST PUSH1 0x40 DUP3 ADD SWAP1 POP SWAP2 SWAP1 POP JUMP JUMPDEST PUSH0 PUSH1 0x20 DUP3 ADD SWAP1 POP DUP2 DUP2 SUB PUSH0 DUP4 ADD MSTORE PUSH2 0x124D DUP2 PUSH2 0x1214 JUMP JUMPDEST SWAP1 POP SWAP2 SWAP1 POP JUMP JUMPDEST PUSH32 0x4E487B7100000000000000000000000000000000000000000000000000000000 PUSH0 MSTORE PUSH1 0x11 PUSH1 0x4 MSTORE PUSH1 0x24 PUSH0 REVERT JUMPDEST PUSH0 PUSH2 0x128B DUP3 PUSH2 0xE8F JUMP JUMPDEST SWAP2 POP PUSH32 0xFFFFFFFFFFFFFFFFFFFFFFFFFFFFFFFFFFFFFFFFFFFFFFFFFFFFFFFFFFFFFFFF DUP3 SUB PUSH2 0x12BD JUMPI PUSH2 0x12BC PUSH2 0x1254 JUMP JUMPDEST JUMPDEST PUSH1 0x1 DUP3 ADD SWAP1 POP SWAP2 SWAP1 POP JUMP JUMPDEST PUSH32 0x4E487B7100000000000000000000000000000000000000000000000000000000 PUSH0 MSTORE PUSH1 0x41 PUSH1 0x4 MSTORE PUSH1 0x24 PUSH0 REVERT JUMPDEST PUSH32 0x4E487B7100000000000000000000000000000000000000000000000000000000 PUSH0 MSTORE PUSH1 0x22 PUSH1 0x4 MSTORE PUSH1 0x24 PUSH0 REVERT JUMPDEST PUSH0 PUSH1 0x2 DUP3 DIV SWAP1 POP PUSH1 0x1 DUP3 AND DUP1 PUSH2 0x1339 JUMPI PUSH1 0x7F DUP3 AND SWAP2 POP JUMPDEST PUSH1 0x20 DUP3 LT DUP2 SUB PUSH2 0x134C JUMPI PUSH2 0x134B PUSH2 0x12F5 JUMP JUMPDEST JUMPDEST POP SWAP2 SWAP1 POP JUMP JUMPDEST PUSH0 DUP2 SWAP1 POP DUP2 PUSH0 MSTORE PUSH1 0x20 PUSH0 KECCAK256 SWAP1 POP SWAP2 SWAP1 POP JUMP JUMPDEST PUSH0 PUSH1 0x20 PUSH1 0x1F DUP4 ADD DIV SWAP1 POP SWAP2 SWAP1 POP JUMP JUMPDEST PUSH0 DUP3 DUP3 SHL SWAP1 POP SWAP3 SWAP2 POP POP JUMP JUMPDEST PUSH0 PUSH1 0x8 DUP4 MUL PUSH2 0x13AE PUSH32 0xFFFFFFFFFFFFFFFFFFFFFFFFFFFFFFFFFFFFFFFFFFFFFFFFFFFFFFFFFFFFFFFF DUP3 PUSH2 0x1373 JUMP JUMPDEST PUSH2 0x13B8 DUP7 DUP4 PUSH2 0x1373 JUMP JUMPDEST SWAP6 POP DUP1 NOT DUP5 AND SWAP4 POP DUP1 DUP7 AND DUP5 OR SWAP3 POP POP POP SWAP4 SWAP3 POP POP POP JUMP JUMPDEST PUSH0 DUP2 SWAP1 POP SWAP2 SWAP1 POP JUMP JUMPDEST PUSH0 PUSH2 0x13F3 PUSH2 0x13EE PUSH2 0x13E9 DUP5 PUSH2 0xE8F JUMP JUMPDEST PUSH2 0x13D0 JUMP JUMPDEST PUSH2 0xE8F JUMP JUMPDEST SWAP1 POP SWAP2 SWAP1 POP JUMP JUMPDEST PUSH0 DUP2 SWAP1 POP SWAP2 SWAP1 POP JUMP JUMPDEST PUSH2 0x140C DUP4 PUSH2 0x13D9 JUMP JUMPDEST PUSH2 0x1420 PUSH2 0x1418 DUP3 PUSH2 0x13FA JUMP JUMPDEST DUP5 DUP5 SLOAD PUSH2 0x137F JUMP JUMPDEST DUP3 SSTORE POP POP POP POP JUMP JUMPDEST PUSH0 SWAP1 JUMP JUMPDEST PUSH2 0x1434 PUSH2 0x1428 JUMP JUMPDEST PUSH2 0x143F DUP2 DUP5 DUP5 PUSH2 0x1403 JUMP JUMPDEST POP POP POP JUMP JUMPDEST JUMPDEST DUP2 DUP2 LT ISZERO PUSH2 0x1462 JUMPI PUSH2 0x1457 PUSH0 DUP3 PUSH2 0x142C JUMP JUMPDEST PUSH1 0x1 DUP2 ADD SWAP1 POP PUSH2 0x1445 JUMP JUMPDEST POP POP JUMP JUMPDEST PUSH1 0x1F DUP3 GT ISZERO PUSH2 0x14A7 JUMPI PUSH2 0x1478 DUP2 PUSH2 0x1352 JUMP JUMPDEST PUSH2 0x1481 DUP5 PUSH2 0x1364 JUMP JUMPDEST DUP2 ADD PUSH1 0x20 DUP6 LT ISZERO PUSH2 0x1490 JUMPI DUP2 SWAP1 POP JUMPDEST PUSH2 0x14A4 PUSH2 0x149C DUP6 PUSH2 0x1364 JUMP JUMPDEST DUP4 ADD DUP3 PUSH2 0x1444 JUMP JUMPDEST POP POP JUMPDEST POP POP POP JUMP JUMPDEST PUSH0 DUP3 DUP3 SHR SWAP1 POP SWAP3 SWAP2 POP POP JUMP JUMPDEST PUSH0 PUSH2 0x14C7 PUSH0 NOT DUP5 PUSH1 0x8 MUL PUSH2 0x14AC JUMP JUMPDEST NOT DUP1 DUP4 AND SWAP2 POP POP SWAP3 SWAP2 POP POP JUMP JUMPDEST PUSH0 PUSH2 0x14DF DUP4 DUP4 PUSH2 0x14B8 JUMP JUMPDEST SWAP2 POP DUP3 PUSH1 0x2 MUL DUP3 OR SWAP1 POP SWAP3 SWAP2 POP POP JUMP JUMPDEST PUSH2 0x14F8 DUP3 PUSH2 0xF53 JUMP JUMPDEST PUSH8 0xFFFFFFFFFFFFFFFF DUP2 GT ISZERO PUSH2 0x1511 JUMPI PUSH2 0x1510 PUSH2 0x12C8 JUMP JUMPDEST JUMPDEST PUSH2 0x151B DUP3 SLOAD PUSH2 0x1322 JUMP JUMPDEST PUSH2 0x1526 DUP3 DUP3 DUP6 PUSH2 0x1466 JUMP JUMPDEST PUSH0 PUSH1 0x20 SWAP1 POP PUSH1 0x1F DUP4 GT PUSH1 0x1 DUP2 EQ PUSH2 0x1557 JUMPI PUSH0 DUP5 ISZERO PUSH2 0x1545 JUMPI DUP3 DUP8 ADD MLOAD SWAP1 POP JUMPDEST PUSH2 0x154F DUP6 DUP3 PUSH2 0x14D4 JUMP JUMPDEST DUP7 SSTORE POP PUSH2 0x15B6 JUMP JUMPDEST PUSH1 0x1F NOT DUP5 AND PUSH2 0x1565 DUP7 PUSH2 0x1352 JUMP JUMPDEST PUSH0 JUMPDEST DUP3 DUP2 LT ISZERO PUSH2 0x158C JUMPI DUP5 DUP10 ADD MLOAD DUP3 SSTORE PUSH1 0x1 DUP3 ADD SWAP2 POP PUSH1 0x20 DUP6 ADD SWAP5 POP PUSH1 0x20 DUP2 ADD SWAP1 POP PUSH2 0x1567 JUMP JUMPDEST DUP7 DUP4 LT ISZERO PUSH2 0x15A9 JUMPI DUP5 DUP10 ADD MLOAD PUSH2 0x15A5 PUSH1 0x1F DUP10 AND DUP3 PUSH2 0x14B8 JUMP JUMPDEST DUP4 SSTORE POP JUMPDEST PUSH1 0x1 PUSH1 0x2 DUP9 MUL ADD DUP9 SSTORE POP POP POP JUMPDEST POP POP POP POP POP POP JUMP JUMPDEST PUSH32 0x5468652070726F706F73616C206973206E6F7420616374697665000000000000 PUSH0 DUP3 ADD MSTORE POP JUMP JUMPDEST PUSH0 PUSH2 0x15F2 PUSH1 0x1A DUP4 PUSH2 0x11B6 JUMP JUMPDEST SWAP2 POP PUSH2 0x15FD DUP3 PUSH2 0x15BE JUMP JUMPDEST PUSH1 0x20 DUP3 ADD SWAP1 POP SWAP2 SWAP1 POP JUMP JUMPDEST PUSH0 PUSH1 0x20 DUP3 ADD SWAP1 POP DUP2 DUP2 SUB PUSH0 DUP4 ADD MSTORE PUSH2 0x161F DUP2 PUSH2 0x15E6 JUMP JUMPDEST SWAP1 POP SWAP2 SWAP1 POP JUMP JUMPDEST PUSH0 PUSH2 0x1630 DUP3 PUSH2 0xE8F JUMP JUMPDEST SWAP2 POP PUSH2 0x163B DUP4 PUSH2 0xE8F JUMP JUMPDEST SWAP3 POP DUP3 DUP3 ADD SWAP1 POP DUP1 DUP3 GT ISZERO PUSH2 0x1653 JUMPI PUSH2 0x1652 PUSH2 0x1254 JUMP JUMPDEST JUMPDEST SWAP3 SWAP2 POP POP JUMP JUMPDEST PUSH0 PUSH2 0x1663 DUP3 PUSH2 0xE8F JUMP JUMPDEST SWAP2 POP PUSH2 0x166E DUP4 PUSH2 0xE8F JUMP JUMPDEST SWAP3 POP DUP3 DUP3 SUB SWAP1 POP DUP2 DUP2 GT ISZERO PUSH2 0x1686 JUMPI PUSH2 0x1685 PUSH2 0x1254 JUMP JUMPDEST JUMPDEST SWAP3 SWAP2 POP POP JUMP JUMPDEST PUSH32 0x4E487B7100000000000000000000000000000000000000000000000000000000 PUSH0 MSTORE PUSH1 0x32 PUSH1 0x4 MSTORE PUSH1 0x24 PUSH0 REVERT JUMPDEST PUSH32 0x4E487B7100000000000000000000000000000000000000000000000000000000 PUSH0 MSTORE PUSH1 0x12 PUSH1 0x4 MSTORE PUSH1 0x24 PUSH0 REVERT JUMPDEST PUSH0 PUSH2 0x16F0 DUP3 PUSH2 0xE8F JUMP JUMPDEST SWAP2 POP PUSH2 0x16FB DUP4 PUSH2 0xE8F JUMP JUMPDEST SWAP3 POP DUP3 PUSH2 0x170B JUMPI PUSH2 0x170A PUSH2 0x16B9 JUMP JUMPDEST JUMPDEST DUP3 DUP3 DIV SWAP1 POP SWAP3 SWAP2 POP POP JUMP JUMPDEST PUSH0 PUSH2 0x1720 DUP3 PUSH2 0xE8F JUMP JUMPDEST SWAP2 POP PUSH2 0x172B DUP4 PUSH2 0xE8F JUMP JUMPDEST SWAP3 POP DUP3 PUSH2 0x173B JUMPI PUSH2 0x173A PUSH2 0x16B9 JUMP JUMPDEST JUMPDEST DUP3 DUP3 MOD SWAP1 POP SWAP3 SWAP2 POP POP JUMP INVALID LOG2 PUSH5 0x6970667358 0x22 SLT KECCAK256 PUSH10 0xD7DAF93845C04D050353 CREATE PUSH11 0x775DA6D49A7FEE81F5E801 SLT DUP11 PC 0xC7 MULMOD ISZERO 0xC2 DUP11 PUSH5 0x736F6C6343 STOP ADDMOD AND STOP CALLER "
				},
				"gasEstimates": {
					"creation": {
						"codeDepositCost": "1202400",
						"executionCost": "76219",
						"totalCost": "1278619"
					},
					"external": {
						"create(string,string,uint256)": "infinite",
						"getCurrentProposal()": "infinite",
						"getProposal(uint256)": "infinite",
						"isVoted(address)": "infinite",
						"owner()": "2505",
						"setOwner(address)": "26882",
						"teminateProposal()": "33264",
						"vote(uint8)": "infinite"
					},
					"internal": {
						"calculateCurrentState(uint256)": "infinite"
					}
				},
				"methodIdentifiers": {
					"create(string,string,uint256)": "3ca6d100",
					"getCurrentProposal()": "41ec6870",
					"getProposal(uint256)": "c7f758a8",
					"isVoted(address)": "cbff75cb",
					"owner()": "8da5cb5b",
					"setOwner(address)": "13af4035",
					"teminateProposal()": "89190393",
					"vote(uint8)": "b3f98adc"
				}
			},
			"storageLayout": {
				"storage": [
					{
						"astId": 3,
						"contract": "ProposalContract.sol:ProposalContract",
						"label": "owner",
						"offset": 0,
						"slot": "0",
						"type": "t_address"
					},
					{
						"astId": 5,
						"contract": "ProposalContract.sol:ProposalContract",
						"label": "counter",
						"offset": 0,
						"slot": "1",
						"type": "t_uint256"
					},
					{
						"astId": 8,
						"contract": "ProposalContract.sol:ProposalContract",
						"label": "voted_addresses",
						"offset": 0,
						"slot": "2",
						"type": "t_array(t_address)dyn_storage"
					},
					{
						"astId": 13,
						"contract": "ProposalContract.sol:ProposalContract",
						"label": "proposal_history",
						"offset": 0,
						"slot": "3",
						"type": "t_mapping(t_uint256,t_struct(Proposal)45_storage)"
					}
				],
				"types": {
					"t_address": {
						"encoding": "inplace",
						"label": "address",
						"numberOfBytes": "20"
					},
					"t_array(t_address)dyn_storage": {
						"base": "t_address",
						"encoding": "dynamic_array",
						"label": "address[]",
						"numberOfBytes": "32"
					},
					"t_bool": {
						"encoding": "inplace",
						"label": "bool",
						"numberOfBytes": "1"
					},
					"t_mapping(t_uint256,t_struct(Proposal)45_storage)": {
						"encoding": "mapping",
						"key": "t_uint256",
						"label": "mapping(uint256 => struct ProposalContract.Proposal)",
						"numberOfBytes": "32",
						"value": "t_struct(Proposal)45_storage"
					},
					"t_string_storage": {
						"encoding": "bytes",
						"label": "string",
						"numberOfBytes": "32"
					},
					"t_struct(Proposal)45_storage": {
						"encoding": "inplace",
						"label": "struct ProposalContract.Proposal",
						"members": [
							{
								"astId": 30,
								"contract": "ProposalContract.sol:ProposalContract",
								"label": "title",
								"offset": 0,
								"slot": "0",
								"type": "t_string_storage"
							},
							{
								"astId": 32,
								"contract": "ProposalContract.sol:ProposalContract",
								"label": "description",
								"offset": 0,
								"slot": "1",
								"type": "t_string_storage"
							},
							{
								"astId": 34,
								"contract": "ProposalContract.sol:ProposalContract",
								"label": "approve",
								"offset": 0,
								"slot": "2",
								"type": "t_uint256"
							},
							{
								"astId": 36,
								"contract": "ProposalContract.sol:ProposalContract",
								"label": "reject",
								"offset": 0,
								"slot": "3",
								"type": "t_uint256"
							},
							{
								"astId": 38,
								"contract": "ProposalContract.sol:ProposalContract",
								"label": "pass",
								"offset": 0,
								"slot": "4",
								"type": "t_uint256"
							},
							{
								"astId": 40,
								"contract": "ProposalContract.sol:ProposalContract",
								"label": "total_vote_to_end",
								"offset": 0,
								"slot": "5",
								"type": "t_uint256"
							},
							{
								"astId": 42,
								"contract": "ProposalContract.sol:ProposalContract",
								"label": "current_state",
								"offset": 0,
								"slot": "6",
								"type": "t_bool"
							},
							{
								"astId": 44,
								"contract": "ProposalContract.sol:ProposalContract",
								"label": "is_active",
								"offset": 1,
								"slot": "6",
								"type": "t_bool"
							}
						],
						"numberOfBytes": "224"
					},
					"t_uint256": {
						"encoding": "inplace",
						"label": "uint256",
						"numberOfBytes": "32"
					}
				}
			},
			"userdoc": {
				"kind": "user",
				"methods": {},
				"version": 1
			}
		}
	}
}